{
  "_format": "hh-sol-artifact-1",
  "contractName": "InfinityPass",
  "sourceName": "contracts/InfinityPass.sol",
  "abi": [
    {
      "inputs": [],
      "stateMutability": "nonpayable",
      "type": "constructor"
    },
    {
      "inputs": [
        {
          "internalType": "address",
          "name": "target",
          "type": "address"
        }
      ],
      "name": "AddressEmptyCode",
      "type": "error"
    },
    {
      "inputs": [
        {
          "internalType": "address",
          "name": "implementation",
          "type": "address"
        }
      ],
      "name": "ERC1967InvalidImplementation",
      "type": "error"
    },
    {
      "inputs": [],
      "name": "ERC1967NonPayable",
      "type": "error"
    },
    {
      "inputs": [
        {
          "internalType": "address",
          "name": "sender",
          "type": "address"
        },
        {
          "internalType": "uint256",
          "name": "tokenId",
          "type": "uint256"
        },
        {
          "internalType": "address",
          "name": "owner",
          "type": "address"
        }
      ],
      "name": "ERC721IncorrectOwner",
      "type": "error"
    },
    {
      "inputs": [
        {
          "internalType": "address",
          "name": "operator",
          "type": "address"
        },
        {
          "internalType": "uint256",
          "name": "tokenId",
          "type": "uint256"
        }
      ],
      "name": "ERC721InsufficientApproval",
      "type": "error"
    },
    {
      "inputs": [
        {
          "internalType": "address",
          "name": "approver",
          "type": "address"
        }
      ],
      "name": "ERC721InvalidApprover",
      "type": "error"
    },
    {
      "inputs": [
        {
          "internalType": "address",
          "name": "operator",
          "type": "address"
        }
      ],
      "name": "ERC721InvalidOperator",
      "type": "error"
    },
    {
      "inputs": [
        {
          "internalType": "address",
          "name": "owner",
          "type": "address"
        }
      ],
      "name": "ERC721InvalidOwner",
      "type": "error"
    },
    {
      "inputs": [
        {
          "internalType": "address",
          "name": "receiver",
          "type": "address"
        }
      ],
      "name": "ERC721InvalidReceiver",
      "type": "error"
    },
    {
      "inputs": [
        {
          "internalType": "address",
          "name": "sender",
          "type": "address"
        }
      ],
      "name": "ERC721InvalidSender",
      "type": "error"
    },
    {
      "inputs": [
        {
          "internalType": "uint256",
          "name": "tokenId",
          "type": "uint256"
        }
      ],
      "name": "ERC721NonexistentToken",
      "type": "error"
    },
    {
      "inputs": [],
      "name": "EnforcedPause",
      "type": "error"
    },
    {
      "inputs": [],
      "name": "ExpectedPause",
      "type": "error"
    },
    {
      "inputs": [],
      "name": "FailedInnerCall",
      "type": "error"
    },
    {
      "inputs": [],
      "name": "InvalidInitialization",
      "type": "error"
    },
    {
      "inputs": [],
      "name": "NotInitializing",
      "type": "error"
    },
    {
      "inputs": [
        {
          "internalType": "address",
          "name": "owner",
          "type": "address"
        }
      ],
      "name": "OwnableInvalidOwner",
      "type": "error"
    },
    {
      "inputs": [
        {
          "internalType": "address",
          "name": "account",
          "type": "address"
        }
      ],
      "name": "OwnableUnauthorizedAccount",
      "type": "error"
    },
    {
      "inputs": [],
      "name": "UUPSUnauthorizedCallContext",
      "type": "error"
    },
    {
      "inputs": [
        {
          "internalType": "bytes32",
          "name": "slot",
          "type": "bytes32"
        }
      ],
      "name": "UUPSUnsupportedProxiableUUID",
      "type": "error"
    },
    {
      "anonymous": false,
      "inputs": [
        {
          "indexed": true,
          "internalType": "address",
          "name": "owner",
          "type": "address"
        },
        {
          "indexed": true,
          "internalType": "address",
          "name": "approved",
          "type": "address"
        },
        {
          "indexed": true,
          "internalType": "uint256",
          "name": "tokenId",
          "type": "uint256"
        }
      ],
      "name": "Approval",
      "type": "event"
    },
    {
      "anonymous": false,
      "inputs": [
        {
          "indexed": true,
          "internalType": "address",
          "name": "owner",
          "type": "address"
        },
        {
          "indexed": true,
          "internalType": "address",
          "name": "operator",
          "type": "address"
        },
        {
          "indexed": false,
          "internalType": "bool",
          "name": "approved",
          "type": "bool"
        }
      ],
      "name": "ApprovalForAll",
      "type": "event"
    },
    {
      "anonymous": false,
      "inputs": [
        {
          "indexed": false,
          "internalType": "uint256",
          "name": "_fromTokenId",
          "type": "uint256"
        },
        {
          "indexed": false,
          "internalType": "uint256",
          "name": "_toTokenId",
          "type": "uint256"
        }
      ],
      "name": "BatchMetadataUpdate",
      "type": "event"
    },
    {
      "anonymous": false,
      "inputs": [
        {
          "indexed": false,
          "internalType": "uint64",
          "name": "version",
          "type": "uint64"
        }
      ],
      "name": "Initialized",
      "type": "event"
    },
    {
      "anonymous": false,
      "inputs": [
        {
          "indexed": true,
          "internalType": "address",
          "name": "executor",
          "type": "address"
        },
        {
          "indexed": false,
          "internalType": "uint256",
          "name": "at",
          "type": "uint256"
        }
      ],
      "name": "Initialized",
      "type": "event"
    },
    {
      "anonymous": false,
      "inputs": [
        {
          "indexed": false,
          "internalType": "uint256",
          "name": "_tokenId",
          "type": "uint256"
        }
      ],
      "name": "MetadataUpdate",
      "type": "event"
    },
    {
      "anonymous": false,
      "inputs": [
        {
          "indexed": true,
          "internalType": "address",
          "name": "previousOwner",
          "type": "address"
        },
        {
          "indexed": true,
          "internalType": "address",
          "name": "newOwner",
          "type": "address"
        }
      ],
      "name": "OwnershipTransferred",
      "type": "event"
    },
    {
      "anonymous": false,
      "inputs": [
        {
          "indexed": false,
          "internalType": "address",
          "name": "account",
          "type": "address"
        }
      ],
      "name": "Paused",
      "type": "event"
    },
    {
      "anonymous": false,
      "inputs": [
        {
          "indexed": true,
          "internalType": "address",
          "name": "_address",
          "type": "address"
        }
      ],
      "name": "SetAdminAddress",
      "type": "event"
    },
    {
      "anonymous": false,
      "inputs": [
        {
          "indexed": true,
          "internalType": "address",
          "name": "from",
          "type": "address"
        },
        {
          "indexed": true,
          "internalType": "address",
          "name": "to",
          "type": "address"
        },
        {
          "indexed": true,
          "internalType": "uint256",
          "name": "tokenId",
          "type": "uint256"
        }
      ],
      "name": "Transfer",
      "type": "event"
    },
    {
      "anonymous": false,
      "inputs": [
        {
          "indexed": false,
          "internalType": "address",
          "name": "account",
          "type": "address"
        }
      ],
      "name": "Unpaused",
      "type": "event"
    },
    {
      "anonymous": false,
      "inputs": [
        {
          "indexed": true,
          "internalType": "address",
          "name": "implementation",
          "type": "address"
        }
      ],
      "name": "Upgraded",
      "type": "event"
    },
    {
      "inputs": [],
      "name": "UPGRADE_INTERFACE_VERSION",
      "outputs": [
        {
          "internalType": "string",
          "name": "",
          "type": "string"
        }
      ],
      "stateMutability": "view",
      "type": "function"
    },
    {
      "inputs": [],
      "name": "adminAddress",
      "outputs": [
        {
          "internalType": "address",
          "name": "",
          "type": "address"
        }
      ],
      "stateMutability": "view",
      "type": "function"
    },
    {
      "inputs": [
        {
          "internalType": "address",
          "name": "to",
          "type": "address"
        },
        {
          "internalType": "uint256",
          "name": "tokenId",
          "type": "uint256"
        }
      ],
      "name": "approve",
      "outputs": [],
      "stateMutability": "nonpayable",
      "type": "function"
    },
    {
      "inputs": [
        {
          "internalType": "address",
          "name": "owner",
          "type": "address"
        }
      ],
      "name": "balanceOf",
      "outputs": [
        {
          "internalType": "uint256",
          "name": "",
          "type": "uint256"
        }
      ],
      "stateMutability": "view",
      "type": "function"
    },
    {
      "inputs": [
        {
          "internalType": "uint256",
          "name": "tokenId",
          "type": "uint256"
        }
      ],
      "name": "getApproved",
      "outputs": [
        {
          "internalType": "address",
          "name": "",
          "type": "address"
        }
      ],
      "stateMutability": "view",
      "type": "function"
    },
    {
      "inputs": [],
      "name": "initialize",
      "outputs": [],
      "stateMutability": "nonpayable",
      "type": "function"
    },
    {
      "inputs": [
        {
          "internalType": "address",
          "name": "owner",
          "type": "address"
        },
        {
          "internalType": "address",
          "name": "operator",
          "type": "address"
        }
      ],
      "name": "isApprovedForAll",
      "outputs": [
        {
          "internalType": "bool",
          "name": "",
          "type": "bool"
        }
      ],
      "stateMutability": "view",
      "type": "function"
    },
    {
      "inputs": [],
      "name": "name",
      "outputs": [
        {
          "internalType": "string",
          "name": "",
          "type": "string"
        }
      ],
      "stateMutability": "view",
      "type": "function"
    },
    {
      "inputs": [],
      "name": "owner",
      "outputs": [
        {
          "internalType": "address",
          "name": "",
          "type": "address"
        }
      ],
      "stateMutability": "view",
      "type": "function"
    },
    {
      "inputs": [
        {
          "internalType": "uint256",
          "name": "tokenId",
          "type": "uint256"
        }
      ],
      "name": "ownerOf",
      "outputs": [
        {
          "internalType": "address",
          "name": "",
          "type": "address"
        }
      ],
      "stateMutability": "view",
      "type": "function"
    },
    {
      "inputs": [],
      "name": "pause",
      "outputs": [],
      "stateMutability": "nonpayable",
      "type": "function"
    },
    {
      "inputs": [],
      "name": "paused",
      "outputs": [
        {
          "internalType": "bool",
          "name": "",
          "type": "bool"
        }
      ],
      "stateMutability": "view",
      "type": "function"
    },
    {
      "inputs": [],
      "name": "proxiableUUID",
      "outputs": [
        {
          "internalType": "bytes32",
          "name": "",
          "type": "bytes32"
        }
      ],
      "stateMutability": "view",
      "type": "function"
    },
    {
      "inputs": [],
      "name": "renounceOwnership",
      "outputs": [],
      "stateMutability": "nonpayable",
      "type": "function"
    },
    {
      "inputs": [
        {
          "internalType": "address",
          "name": "to",
          "type": "address"
        },
        {
          "internalType": "string",
          "name": "uri",
          "type": "string"
        }
      ],
      "name": "safeMint",
      "outputs": [],
      "stateMutability": "nonpayable",
      "type": "function"
    },
    {
      "inputs": [
        {
          "internalType": "address",
          "name": "from",
          "type": "address"
        },
        {
          "internalType": "address",
          "name": "to",
          "type": "address"
        },
        {
          "internalType": "uint256",
          "name": "tokenId",
          "type": "uint256"
        }
      ],
      "name": "safeTransferFrom",
      "outputs": [],
      "stateMutability": "nonpayable",
      "type": "function"
    },
    {
      "inputs": [
        {
          "internalType": "address",
          "name": "from",
          "type": "address"
        },
        {
          "internalType": "address",
          "name": "to",
          "type": "address"
        },
        {
          "internalType": "uint256",
          "name": "tokenId",
          "type": "uint256"
        },
        {
          "internalType": "bytes",
          "name": "data",
          "type": "bytes"
        }
      ],
      "name": "safeTransferFrom",
      "outputs": [],
      "stateMutability": "nonpayable",
      "type": "function"
    },
    {
      "inputs": [
        {
          "internalType": "address",
          "name": "_address",
          "type": "address"
        }
      ],
      "name": "setAdminAddress",
      "outputs": [],
      "stateMutability": "nonpayable",
      "type": "function"
    },
    {
      "inputs": [
        {
          "internalType": "address",
          "name": "operator",
          "type": "address"
        },
        {
          "internalType": "bool",
          "name": "approved",
          "type": "bool"
        }
      ],
      "name": "setApprovalForAll",
      "outputs": [],
      "stateMutability": "nonpayable",
      "type": "function"
    },
    {
      "inputs": [
        {
          "internalType": "bytes4",
          "name": "interfaceId",
          "type": "bytes4"
        }
      ],
      "name": "supportsInterface",
      "outputs": [
        {
          "internalType": "bool",
          "name": "",
          "type": "bool"
        }
      ],
      "stateMutability": "view",
      "type": "function"
    },
    {
      "inputs": [],
      "name": "symbol",
      "outputs": [
        {
          "internalType": "string",
          "name": "",
          "type": "string"
        }
      ],
      "stateMutability": "view",
      "type": "function"
    },
    {
      "inputs": [],
      "name": "tokenIndex",
      "outputs": [
        {
          "internalType": "uint256",
          "name": "",
          "type": "uint256"
        }
      ],
      "stateMutability": "view",
      "type": "function"
    },
    {
      "inputs": [
        {
          "internalType": "uint256",
          "name": "tokenId",
          "type": "uint256"
        }
      ],
      "name": "tokenURI",
      "outputs": [
        {
          "internalType": "string",
          "name": "",
          "type": "string"
        }
      ],
      "stateMutability": "view",
      "type": "function"
    },
    {
      "inputs": [
        {
          "internalType": "address",
          "name": "from",
          "type": "address"
        },
        {
          "internalType": "address",
          "name": "to",
          "type": "address"
        },
        {
          "internalType": "uint256",
          "name": "tokenId",
          "type": "uint256"
        }
      ],
      "name": "transferFrom",
      "outputs": [],
      "stateMutability": "nonpayable",
      "type": "function"
    },
    {
      "inputs": [
        {
          "internalType": "address",
          "name": "newOwner",
          "type": "address"
        }
      ],
      "name": "transferOwnership",
      "outputs": [],
      "stateMutability": "nonpayable",
      "type": "function"
    },
    {
      "inputs": [],
      "name": "unpause",
      "outputs": [],
      "stateMutability": "nonpayable",
      "type": "function"
    },
    {
      "inputs": [
        {
          "internalType": "address",
          "name": "newImplementation",
          "type": "address"
        },
        {
          "internalType": "bytes",
          "name": "data",
          "type": "bytes"
        }
      ],
      "name": "upgradeToAndCall",
      "outputs": [],
      "stateMutability": "payable",
      "type": "function"
    }
  ],
  "bytecode": "0x60a06040523060805234801561001457600080fd5b5061001d610022565b6100d4565b7ff0c57e16840df040f15088dc2f81fe391c3923bec73e23a9662efc9c229c6a00805468010000000000000000900460ff16156100725760405163f92ee8a960e01b815260040160405180910390fd5b80546001600160401b03908116146100d15780546001600160401b0319166001600160401b0390811782556040519081527fc7f505b2f371ae2175ee4913f4499e1f2633a7b5936321eed1cdaeb6115181d29060200160405180910390a15b50565b60805161229f620000fe60003960008181610e4301528181610e6c0152610fad015261229f6000f3fe60806040526004361061019c5760003560e01c8063715018a6116100ec578063b88d4fde1161008a578063d55f927311610064578063d55f92731461047c578063e985e9c514610492578063f2fde38b146104b2578063fc6f9468146104d257600080fd5b8063b88d4fde1461041c578063c87b56dd1461043c578063d204c45e1461045c57600080fd5b80638da5cb5b116100c65780638da5cb5b146103a157806395d89b41146103b6578063a22cb465146103cb578063ad3cb1cc146103eb57600080fd5b8063715018a6146103625780638129fc1c146103775780638456cb591461038c57600080fd5b80633f4ba83a1161015957806352d1902d1161013357806352d1902d146102da5780635c975abb146102fd5780636352211e1461032257806370a082311461034257600080fd5b80633f4ba83a1461029257806342842e0e146102a75780634f1ef286146102c757600080fd5b806301ffc9a7146101a157806306fdde03146101d6578063081812fc146101f8578063095ea7b31461023057806323b872dd146102525780632c1e816d14610272575b600080fd5b3480156101ad57600080fd5b506101c16101bc366004611c44565b6104f2565b60405190151581526020015b60405180910390f35b3480156101e257600080fd5b506101eb61051d565b6040516101cd9190611cb1565b34801561020457600080fd5b50610218610213366004611cc4565b6105c1565b6040516001600160a01b0390911681526020016101cd565b34801561023c57600080fd5b5061025061024b366004611cf9565b6105d6565b005b34801561025e57600080fd5b5061025061026d366004611d23565b6105e5565b34801561027e57600080fd5b5061025061028d366004611d5f565b610675565b34801561029e57600080fd5b5061025061070a565b3480156102b357600080fd5b506102506102c2366004611d23565b610761565b6102506102d5366004611e26565b610781565b3480156102e657600080fd5b506102ef61079c565b6040519081526020016101cd565b34801561030957600080fd5b5060008051602061224a8339815191525460ff166101c1565b34801561032e57600080fd5b5061021861033d366004611cc4565b6107b9565b34801561034e57600080fd5b506102ef61035d366004611d5f565b6107c4565b34801561036e57600080fd5b50610250610820565b34801561038357600080fd5b50610250610832565b34801561039857600080fd5b506102506109a1565b3480156103ad57600080fd5b506102186109f6565b3480156103c257600080fd5b506101eb610a24565b3480156103d757600080fd5b506102506103e6366004611e74565b610a63565b3480156103f757600080fd5b506101eb604051806040016040528060058152602001640352e302e360dc1b81525081565b34801561042857600080fd5b50610250610437366004611eb0565b610a6e565b34801561044857600080fd5b506101eb610457366004611cc4565b610a85565b34801561046857600080fd5b50610250610477366004611f18565b610bba565b34801561048857600080fd5b506102ef60335481565b34801561049e57600080fd5b506101c16104ad366004611f70565b610bf3565b3480156104be57600080fd5b506102506104cd366004611d5f565b610c40565b3480156104de57600080fd5b50600054610218906001600160a01b031681565b60006001600160e01b03198216632483248360e11b1480610517575061051782610c7e565b92915050565b60008051602061220a833981519152805460609190819061053d90611fa3565b80601f016020809104026020016040519081016040528092919081815260200182805461056990611fa3565b80156105b65780601f1061058b576101008083540402835291602001916105b6565b820191906000526020600020905b81548152906001019060200180831161059957829003601f168201915b505050505091505090565b60006105cc82610cce565b5061051782610d06565b6105e1828233610d40565b5050565b6001600160a01b03821661061457604051633250574960e11b8152600060048201526024015b60405180910390fd5b6000610621838333610d4d565b9050836001600160a01b0316816001600160a01b03161461066f576040516364283d7b60e01b81526001600160a01b038086166004830152602482018490528216604482015260640161060b565b50505050565b6000546001600160a01b03163314806106a657506106916109f6565b6001600160a01b0316336001600160a01b0316145b6106c25760405162461bcd60e51b815260040161060b90611fdd565b600080546001600160a01b0319166001600160a01b038316908117825560405190917f030ff471e8e3d5a26cd9ee887eb024f145aaf27e12cd2f7bdcd14aeb40cf333191a250565b6000546001600160a01b031633148061073b57506107266109f6565b6001600160a01b0316336001600160a01b0316145b6107575760405162461bcd60e51b815260040161060b90611fdd565b61075f610dd8565b565b61077c83838360405180602001604052806000815250610a6e565b505050565b610789610e38565b61079282610edd565b6105e18282610ee5565b60006107a6610fa2565b5060008051602061222a83398151915290565b600061051782610cce565b600060008051602061220a8339815191526001600160a01b0383166107ff576040516322718ad960e21b81526000600482015260240161060b565b6001600160a01b039092166000908152600390920160205250604090205490565b610828610feb565b61075f600061101d565b7ff0c57e16840df040f15088dc2f81fe391c3923bec73e23a9662efc9c229c6a008054600160401b810460ff16159067ffffffffffffffff166000811580156108785750825b905060008267ffffffffffffffff1660011480156108955750303b155b9050811580156108a3575080155b156108c15760405163f92ee8a960e01b815260040160405180910390fd5b845467ffffffffffffffff1916600117855583156108eb57845460ff60401b1916600160401b1785555b6109476040518060400160405280601781526020017f4a617673706865726520496e66696e69747920506173730000000000000000008152506040518060400160405280600581526020016404a415649560dc1b81525061108e565b60016033556109546110a0565b831561099a57845460ff60401b19168555604051600181527fc7f505b2f371ae2175ee4913f4499e1f2633a7b5936321eed1cdaeb6115181d29060200160405180910390a15b5050505050565b6000546001600160a01b03163314806109d257506109bd6109f6565b6001600160a01b0316336001600160a01b0316145b6109ee5760405162461bcd60e51b815260040161060b90611fdd565b61075f61110d565b7f9016d09d72d40fdae2fd8ceac6b6234c7706214fd39c1cd1e609a0528c199300546001600160a01b031690565b7f80bb2b638cc20bc4d0a60d66940f3ab4a00c1d7b313497ca82fb0b4ab0079301805460609160008051602061220a8339815191529161053d90611fa3565b6105e1338383611156565b610a798484846105e5565b61066f84848484611207565b60607f0542a41881ee128a365a727b282c86fa859579490b9bb45aab8503648c8e7900610ab183610cce565b5060008381526020829052604081208054610acb90611fa3565b80601f0160208091040260200160405190810160405280929190818152602001828054610af790611fa3565b8015610b445780601f10610b1957610100808354040283529160200191610b44565b820191906000526020600020905b815481529060010190602001808311610b2757829003601f168201915b505050505090506000610b6260408051602081019091526000815290565b90508051600003610b7557509392505050565b815115610ba8578082604051602001610b8f929190612014565b6040516020818303038152906040529350505050919050565b610bb185611329565b95945050505050565b610bc2610feb565b610bce8260335461139d565b610bda603354826113b7565b60338054906000610bea83612043565b91905055505050565b6001600160a01b0391821660009081527f80bb2b638cc20bc4d0a60d66940f3ab4a00c1d7b313497ca82fb0b4ab00793056020908152604080832093909416825291909152205460ff1690565b610c48610feb565b6001600160a01b038116610c7257604051631e4fbdf760e01b81526000600482015260240161060b565b610c7b8161101d565b50565b60006001600160e01b031982166380ac58cd60e01b1480610caf57506001600160e01b03198216635b5e139f60e01b145b8061051757506301ffc9a760e01b6001600160e01b0319831614610517565b600080610cda8361142a565b90506001600160a01b03811661051757604051637e27328960e01b81526004810184905260240161060b565b60009081527f80bb2b638cc20bc4d0a60d66940f3ab4a00c1d7b313497ca82fb0b4ab007930460205260409020546001600160a01b031690565b61077c8383836001611464565b600080610d598461142a565b90506001600160a01b03811615610dc25760405162461bcd60e51b815260206004820152602760248201527f496e66696e697479506173733a20746f6b656e207472616e7366657220697320604482015266109313d0d2d15160ca1b606482015260840161060b565b610dcd85858561157a565b9150505b9392505050565b610de0611684565b60008051602061224a833981519152805460ff191681557f5db9ee0a495bf2e6ff9c91a7834c1ba4fdd244a5e8aa4e537bd38aeae4b073aa335b6040516001600160a01b03909116815260200160405180910390a150565b306001600160a01b037f0000000000000000000000000000000000000000000000000000000000000000161480610ebf57507f00000000000000000000000000000000000000000000000000000000000000006001600160a01b0316610eb360008051602061222a833981519152546001600160a01b031690565b6001600160a01b031614155b1561075f5760405163703e46dd60e11b815260040160405180910390fd5b610c7b610feb565b816001600160a01b03166352d1902d6040518163ffffffff1660e01b8152600401602060405180830381865afa925050508015610f3f575060408051601f3d908101601f19168201909252610f3c9181019061206a565b60015b610f6757604051634c9c8ce360e01b81526001600160a01b038316600482015260240161060b565b60008051602061222a8339815191528114610f9857604051632a87526960e21b81526004810182905260240161060b565b61077c83836116b4565b306001600160a01b037f0000000000000000000000000000000000000000000000000000000000000000161461075f5760405163703e46dd60e11b815260040160405180910390fd5b33610ff46109f6565b6001600160a01b03161461075f5760405163118cdaa760e01b815233600482015260240161060b565b7f9016d09d72d40fdae2fd8ceac6b6234c7706214fd39c1cd1e609a0528c19930080546001600160a01b031981166001600160a01b03848116918217845560405192169182907f8be0079c531659141344cd1fd0a4f28419497f9722a3daafe3b4186f6b6457e090600090a3505050565b61109661170a565b6105e18282611753565b6110a861170a565b600080546001600160a01b031916339081179091556110c690611784565b6110ce611795565b6110d66117a5565b60405143815233907f25ff68dd81b34665b5ba7e553ee5511bf6812e12adb4a7e2c0d9e26b3099ce799060200160405180910390a2565b6111156117ad565b60008051602061224a833981519152805460ff191660011781557f62e78cea01bee320cd4e420270b5ea74000d11b0c9f74754ebdbfc544b05a25833610e1a565b60008051602061220a8339815191526001600160a01b03831661119757604051630b61174360e31b81526001600160a01b038416600482015260240161060b565b6001600160a01b038481166000818152600584016020908152604080832094881680845294825291829020805460ff191687151590811790915591519182527f17307eab39ab6107e8899845ad3d59bd9653f200f220920489ca2b5937696c31910160405180910390a350505050565b6001600160a01b0383163b1561066f57604051630a85bd0160e11b81526001600160a01b0384169063150b7a0290611249903390889087908790600401612083565b6020604051808303816000875af1925050508015611284575060408051601f3d908101601f19168201909252611281918101906120c0565b60015b6112ed573d8080156112b2576040519150601f19603f3d011682016040523d82523d6000602084013e6112b7565b606091505b5080516000036112e557604051633250574960e11b81526001600160a01b038516600482015260240161060b565b805181602001fd5b6001600160e01b03198116630a85bd0160e11b1461099a57604051633250574960e11b81526001600160a01b038516600482015260240161060b565b606061133482610cce565b50600061134c60408051602081019091526000815290565b9050600081511161136c5760405180602001604052806000815250610dd1565b80611376846117de565b604051602001611387929190612014565b6040516020818303038152906040529392505050565b6105e1828260405180602001604052806000815250611871565b60008281527f0542a41881ee128a365a727b282c86fa859579490b9bb45aab8503648c8e7900602081905260409091206113f1838261212d565b506040518381527ff8e1a15aba9398e019f0b49df1a4fde98ee17ae345cb5f6b5e2c27f5033e8ce79060200160405180910390a1505050565b60009081527f80bb2b638cc20bc4d0a60d66940f3ab4a00c1d7b313497ca82fb0b4ab007930260205260409020546001600160a01b031690565b60008051602061220a833981519152818061148757506001600160a01b03831615155b1561154957600061149785610cce565b90506001600160a01b038416158015906114c35750836001600160a01b0316816001600160a01b031614155b80156114d657506114d48185610bf3565b155b156114ff5760405163a9fbf51f60e01b81526001600160a01b038516600482015260240161060b565b82156115475784866001600160a01b0316826001600160a01b03167f8c5be1e5ebec7d5bd14f71427d1e84f3dd0314c0f7b2291e5b200ac8c7c3b92560405160405180910390a45b505b600093845260040160205250506040902080546001600160a01b0319166001600160a01b0392909216919091179055565b600060008051602061220a833981519152816115958561142a565b90506001600160a01b038416156115b1576115b1818587611888565b6001600160a01b038116156115f1576115ce600086600080611464565b6001600160a01b0381166000908152600383016020526040902080546000190190555b6001600160a01b03861615611622576001600160a01b03861660009081526003830160205260409020805460010190555b600085815260028301602052604080822080546001600160a01b0319166001600160a01b038a811691821790925591518893918516917fddf252ad1be2c89b69c2b068fc378daa952ba7f163c4a11628f55a4df523b3ef91a495945050505050565b60008051602061224a8339815191525460ff1661075f57604051638dfc202b60e01b815260040160405180910390fd5b6116bd826118ec565b6040516001600160a01b038316907fbc7cd75a20ee27fd9adebab32041f755214dbc6bffa90cc0225b39da2e5c2d3b90600090a28051156117025761077c8282611951565b6105e16119be565b7ff0c57e16840df040f15088dc2f81fe391c3923bec73e23a9662efc9c229c6a0054600160401b900460ff1661075f57604051631afcd79f60e31b815260040160405180910390fd5b61175b61170a565b60008051602061220a83398151915280611775848261212d565b506001810161066f838261212d565b61178c61170a565b610c7b816119dd565b61179d61170a565b61075f6119e5565b61075f61170a565b60008051602061224a8339815191525460ff161561075f5760405163d93c066560e01b815260040160405180910390fd5b606060006117eb83611a06565b600101905060008167ffffffffffffffff81111561180b5761180b611d7a565b6040519080825280601f01601f191660200182016040528015611835576020820181803683370190505b5090508181016020015b600019016f181899199a1a9b1b9c1cb0b131b232b360811b600a86061a8153600a850494508461183f57509392505050565b61187b8383611ade565b61077c6000848484611207565b611893838383611b43565b61077c576001600160a01b0383166118c157604051637e27328960e01b81526004810182905260240161060b565b60405163177e802f60e01b81526001600160a01b03831660048201526024810182905260440161060b565b806001600160a01b03163b60000361192257604051634c9c8ce360e01b81526001600160a01b038216600482015260240161060b565b60008051602061222a83398151915280546001600160a01b0319166001600160a01b0392909216919091179055565b6060600080846001600160a01b03168460405161196e91906121ed565b600060405180830381855af49150503d80600081146119a9576040519150601f19603f3d011682016040523d82523d6000602084013e6119ae565b606091505b5091509150610bb1858383611ba9565b341561075f5760405163b398979f60e01b815260040160405180910390fd5b610c4861170a565b6119ed61170a565b60008051602061224a833981519152805460ff19169055565b60008072184f03e93ff9f4daa797ed6e38ed64bf6a1f0160401b8310611a455772184f03e93ff9f4daa797ed6e38ed64bf6a1f0160401b830492506040015b6d04ee2d6d415b85acef81000000008310611a71576d04ee2d6d415b85acef8100000000830492506020015b662386f26fc100008310611a8f57662386f26fc10000830492506010015b6305f5e1008310611aa7576305f5e100830492506008015b6127108310611abb57612710830492506004015b60648310611acd576064830492506002015b600a83106105175760010192915050565b6001600160a01b038216611b0857604051633250574960e11b81526000600482015260240161060b565b6000611b1683836000610d4d565b90506001600160a01b0381161561077c576040516339e3563760e11b81526000600482015260240161060b565b60006001600160a01b03831615801590611ba15750826001600160a01b0316846001600160a01b03161480611b7d5750611b7d8484610bf3565b80611ba15750826001600160a01b0316611b9683610d06565b6001600160a01b0316145b949350505050565b606082611bbe57611bb982611c05565b610dd1565b8151158015611bd557506001600160a01b0384163b155b15611bfe57604051639996b31560e01b81526001600160a01b038516600482015260240161060b565b5080610dd1565b805115611c155780518082602001fd5b604051630a12f52160e11b815260040160405180910390fd5b6001600160e01b031981168114610c7b57600080fd5b600060208284031215611c5657600080fd5b8135610dd181611c2e565b60005b83811015611c7c578181015183820152602001611c64565b50506000910152565b60008151808452611c9d816020860160208601611c61565b601f01601f19169290920160200192915050565b602081526000610dd16020830184611c85565b600060208284031215611cd657600080fd5b5035919050565b80356001600160a01b0381168114611cf457600080fd5b919050565b60008060408385031215611d0c57600080fd5b611d1583611cdd565b946020939093013593505050565b600080600060608486031215611d3857600080fd5b611d4184611cdd565b9250611d4f60208501611cdd565b9150604084013590509250925092565b600060208284031215611d7157600080fd5b610dd182611cdd565b634e487b7160e01b600052604160045260246000fd5b600067ffffffffffffffff80841115611dab57611dab611d7a565b604051601f8501601f19908116603f01168101908282118183101715611dd357611dd3611d7a565b81604052809350858152868686011115611dec57600080fd5b858560208301376000602087830101525050509392505050565b600082601f830112611e1757600080fd5b610dd183833560208501611d90565b60008060408385031215611e3957600080fd5b611e4283611cdd565b9150602083013567ffffffffffffffff811115611e5e57600080fd5b611e6a85828601611e06565b9150509250929050565b60008060408385031215611e8757600080fd5b611e9083611cdd565b915060208301358015158114611ea557600080fd5b809150509250929050565b60008060008060808587031215611ec657600080fd5b611ecf85611cdd565b9350611edd60208601611cdd565b925060408501359150606085013567ffffffffffffffff811115611f0057600080fd5b611f0c87828801611e06565b91505092959194509250565b60008060408385031215611f2b57600080fd5b611f3483611cdd565b9150602083013567ffffffffffffffff811115611f5057600080fd5b8301601f81018513611f6157600080fd5b611e6a85823560208401611d90565b60008060408385031215611f8357600080fd5b611f8c83611cdd565b9150611f9a60208401611cdd565b90509250929050565b600181811c90821680611fb757607f821691505b602082108103611fd757634e487b7160e01b600052602260045260246000fd5b50919050565b6020808252601a908201527f4261736555706772616461626c653a206f6e6c792061646d696e000000000000604082015260600190565b60008351612026818460208801611c61565b83519083019061203a818360208801611c61565b01949350505050565b60006001820161206357634e487b7160e01b600052601160045260246000fd5b5060010190565b60006020828403121561207c57600080fd5b5051919050565b6001600160a01b03858116825284166020820152604081018390526080606082018190526000906120b690830184611c85565b9695505050505050565b6000602082840312156120d257600080fd5b8151610dd181611c2e565b601f82111561077c576000816000526020600020601f850160051c810160208610156121065750805b601f850160051c820191505b8181101561212557828155600101612112565b505050505050565b815167ffffffffffffffff81111561214757612147611d7a565b61215b816121558454611fa3565b846120dd565b602080601f83116001811461219057600084156121785750858301515b600019600386901b1c1916600185901b178555612125565b600085815260208120601f198616915b828110156121bf578886015182559484019460019091019084016121a0565b50858210156121dd5787850151600019600388901b60f8161c191681555b5050505050600190811b01905550565b600082516121ff818460208701611c61565b919091019291505056fe80bb2b638cc20bc4d0a60d66940f3ab4a00c1d7b313497ca82fb0b4ab0079300360894a13ba1a3210667c828492db98dca3e2076cc3735a920a3ca505d382bbccd5ed15c6e187e77e9aee88184c21f4f2182ab5827cb3b7e07fbedcd63f03300a2646970667358221220a3f93a036552ec3a54931c0bd633dc88a512a26069bad77310f2d7c111a5565c64736f6c63430008180033",
  "linkReferences": {},
  "deployedLinkReferences": {}
}