{
  "_format": "hh-sol-artifact-1",
  "contractName": "JavFreezer",
  "sourceName": "contracts/JavFreezer.sol",
  "abi": [
    {
      "inputs": [],
      "stateMutability": "nonpayable",
      "type": "constructor"
    },
    {
      "inputs": [
        {
          "internalType": "address",
          "name": "target",
          "type": "address"
        }
      ],
      "name": "AddressEmptyCode",
      "type": "error"
    },
    {
      "inputs": [
        {
          "internalType": "address",
          "name": "account",
          "type": "address"
        }
      ],
      "name": "AddressInsufficientBalance",
      "type": "error"
    },
    {
      "inputs": [
        {
          "internalType": "address",
          "name": "implementation",
          "type": "address"
        }
      ],
      "name": "ERC1967InvalidImplementation",
      "type": "error"
    },
    {
      "inputs": [],
      "name": "ERC1967NonPayable",
      "type": "error"
    },
    {
      "inputs": [],
      "name": "EnforcedPause",
      "type": "error"
    },
    {
      "inputs": [],
      "name": "ExpectedPause",
      "type": "error"
    },
    {
      "inputs": [],
      "name": "FailedInnerCall",
      "type": "error"
    },
    {
      "inputs": [],
      "name": "InvalidInitialization",
      "type": "error"
    },
    {
      "inputs": [],
      "name": "NotInitializing",
      "type": "error"
    },
    {
      "inputs": [
        {
          "internalType": "address",
          "name": "owner",
          "type": "address"
        }
      ],
      "name": "OwnableInvalidOwner",
      "type": "error"
    },
    {
      "inputs": [
        {
          "internalType": "address",
          "name": "account",
          "type": "address"
        }
      ],
      "name": "OwnableUnauthorizedAccount",
      "type": "error"
    },
    {
      "inputs": [],
      "name": "ReentrancyGuardReentrantCall",
      "type": "error"
    },
    {
      "inputs": [
        {
          "internalType": "address",
          "name": "token",
          "type": "address"
        }
      ],
      "name": "SafeERC20FailedOperation",
      "type": "error"
    },
    {
      "inputs": [],
      "name": "UUPSUnauthorizedCallContext",
      "type": "error"
    },
    {
      "inputs": [
        {
          "internalType": "bytes32",
          "name": "slot",
          "type": "bytes32"
        }
      ],
      "name": "UUPSUnsupportedProxiableUUID",
      "type": "error"
    },
    {
      "anonymous": false,
      "inputs": [
        {
          "indexed": true,
          "internalType": "address",
          "name": "_baseToken",
          "type": "address"
        },
        {
          "indexed": true,
          "internalType": "address",
          "name": "_rewardToken",
          "type": "address"
        },
        {
          "indexed": false,
          "internalType": "uint256",
          "name": "_lastRewardBlock",
          "type": "uint256"
        },
        {
          "indexed": false,
          "internalType": "uint256",
          "name": "_accRewardPerShare",
          "type": "uint256"
        }
      ],
      "name": "AddPool",
      "type": "event"
    },
    {
      "anonymous": false,
      "inputs": [
        {
          "indexed": true,
          "internalType": "uint256",
          "name": "pid",
          "type": "uint256"
        },
        {
          "indexed": false,
          "internalType": "uint256",
          "name": "amount",
          "type": "uint256"
        }
      ],
      "name": "AddRewards",
      "type": "event"
    },
    {
      "anonymous": false,
      "inputs": [
        {
          "indexed": true,
          "internalType": "address",
          "name": "user",
          "type": "address"
        },
        {
          "indexed": false,
          "internalType": "uint256",
          "name": "amount",
          "type": "uint256"
        },
        {
          "indexed": true,
          "internalType": "uint256",
          "name": "pid",
          "type": "uint256"
        },
        {
          "indexed": true,
          "internalType": "uint256",
          "name": "period",
          "type": "uint256"
        }
      ],
      "name": "ClaimUserReward",
      "type": "event"
    },
    {
      "anonymous": false,
      "inputs": [
        {
          "indexed": true,
          "internalType": "address",
          "name": "user",
          "type": "address"
        },
        {
          "indexed": false,
          "internalType": "uint256",
          "name": "amount",
          "type": "uint256"
        },
        {
          "indexed": true,
          "internalType": "uint256",
          "name": "pid",
          "type": "uint256"
        },
        {
          "indexed": true,
          "internalType": "uint256",
          "name": "period",
          "type": "uint256"
        },
        {
          "indexed": false,
          "internalType": "uint256",
          "name": "depositTimestamp",
          "type": "uint256"
        },
        {
          "indexed": false,
          "internalType": "uint256",
          "name": "withdrawalTimestamp",
          "type": "uint256"
        }
      ],
      "name": "Deposit",
      "type": "event"
    },
    {
      "anonymous": false,
      "inputs": [
        {
          "indexed": false,
          "internalType": "uint64",
          "name": "version",
          "type": "uint64"
        }
      ],
      "name": "Initialized",
      "type": "event"
    },
    {
      "anonymous": false,
      "inputs": [
        {
          "indexed": true,
          "internalType": "address",
          "name": "executor",
          "type": "address"
        },
        {
          "indexed": false,
          "internalType": "uint256",
          "name": "at",
          "type": "uint256"
        }
      ],
      "name": "Initialized",
      "type": "event"
    },
    {
      "anonymous": false,
      "inputs": [
        {
          "indexed": true,
          "internalType": "address",
          "name": "previousOwner",
          "type": "address"
        },
        {
          "indexed": true,
          "internalType": "address",
          "name": "newOwner",
          "type": "address"
        }
      ],
      "name": "OwnershipTransferred",
      "type": "event"
    },
    {
      "anonymous": false,
      "inputs": [
        {
          "indexed": false,
          "internalType": "address",
          "name": "account",
          "type": "address"
        }
      ],
      "name": "Paused",
      "type": "event"
    },
    {
      "anonymous": false,
      "inputs": [
        {
          "indexed": false,
          "internalType": "uint256",
          "name": "oldValue",
          "type": "uint256"
        },
        {
          "indexed": false,
          "internalType": "uint256",
          "name": "newValue",
          "type": "uint256"
        }
      ],
      "name": "RewardPerBlockUpdated",
      "type": "event"
    },
    {
      "anonymous": false,
      "inputs": [
        {
          "indexed": true,
          "internalType": "address",
          "name": "_address",
          "type": "address"
        }
      ],
      "name": "SetAdminAddress",
      "type": "event"
    },
    {
      "anonymous": false,
      "inputs": [
        {
          "indexed": true,
          "internalType": "uint256",
          "name": "_lockId",
          "type": "uint256"
        },
        {
          "indexed": false,
          "internalType": "uint256",
          "name": "_duration",
          "type": "uint256"
        }
      ],
      "name": "SetLockPeriod",
      "type": "event"
    },
    {
      "anonymous": false,
      "inputs": [
        {
          "indexed": true,
          "internalType": "uint256",
          "name": "_lockId",
          "type": "uint256"
        },
        {
          "indexed": false,
          "internalType": "uint256",
          "name": "_multiplier",
          "type": "uint256"
        }
      ],
      "name": "SetLockPeriodMultiplier",
      "type": "event"
    },
    {
      "anonymous": false,
      "inputs": [
        {
          "indexed": false,
          "internalType": "uint256",
          "name": "_pid",
          "type": "uint256"
        },
        {
          "indexed": false,
          "internalType": "uint256",
          "name": "_lastRewardBlock",
          "type": "uint256"
        },
        {
          "indexed": false,
          "internalType": "uint256",
          "name": "_accRewardPerShare",
          "type": "uint256"
        }
      ],
      "name": "SetPoolInfo",
      "type": "event"
    },
    {
      "anonymous": false,
      "inputs": [
        {
          "indexed": true,
          "internalType": "address",
          "name": "_address",
          "type": "address"
        }
      ],
      "name": "SetRewardsDistributorAddress",
      "type": "event"
    },
    {
      "anonymous": false,
      "inputs": [
        {
          "indexed": true,
          "internalType": "address",
          "name": "_address",
          "type": "address"
        }
      ],
      "name": "SetVestingAddress",
      "type": "event"
    },
    {
      "anonymous": false,
      "inputs": [
        {
          "indexed": false,
          "internalType": "address",
          "name": "account",
          "type": "address"
        }
      ],
      "name": "Unpaused",
      "type": "event"
    },
    {
      "anonymous": false,
      "inputs": [
        {
          "indexed": true,
          "internalType": "address",
          "name": "implementation",
          "type": "address"
        }
      ],
      "name": "Upgraded",
      "type": "event"
    },
    {
      "anonymous": false,
      "inputs": [
        {
          "indexed": true,
          "internalType": "address",
          "name": "user",
          "type": "address"
        },
        {
          "indexed": false,
          "internalType": "uint256",
          "name": "amount",
          "type": "uint256"
        },
        {
          "indexed": true,
          "internalType": "uint256",
          "name": "pid",
          "type": "uint256"
        },
        {
          "indexed": true,
          "internalType": "uint256",
          "name": "period",
          "type": "uint256"
        }
      ],
      "name": "Withdraw",
      "type": "event"
    },
    {
      "inputs": [],
      "name": "DIVIDER",
      "outputs": [
        {
          "internalType": "uint256",
          "name": "",
          "type": "uint256"
        }
      ],
      "stateMutability": "view",
      "type": "function"
    },
    {
      "inputs": [],
      "name": "REWARD_PER_BLOCK_MULTIPLIER",
      "outputs": [
        {
          "internalType": "uint256",
          "name": "",
          "type": "uint256"
        }
      ],
      "stateMutability": "view",
      "type": "function"
    },
    {
      "inputs": [],
      "name": "UPGRADE_INTERFACE_VERSION",
      "outputs": [
        {
          "internalType": "string",
          "name": "",
          "type": "string"
        }
      ],
      "stateMutability": "view",
      "type": "function"
    },
    {
      "inputs": [
        {
          "internalType": "address",
          "name": "_baseToken",
          "type": "address"
        },
        {
          "internalType": "address",
          "name": "_rewardToken",
          "type": "address"
        },
        {
          "internalType": "uint256",
          "name": "_lastRewardBlock",
          "type": "uint256"
        },
        {
          "internalType": "uint256",
          "name": "_accRewardPerShare",
          "type": "uint256"
        }
      ],
      "name": "addPool",
      "outputs": [],
      "stateMutability": "nonpayable",
      "type": "function"
    },
    {
      "inputs": [],
      "name": "addPoolRewardsInfo",
      "outputs": [],
      "stateMutability": "nonpayable",
      "type": "function"
    },
    {
      "inputs": [
        {
          "internalType": "uint256",
          "name": "_pid",
          "type": "uint256"
        },
        {
          "internalType": "uint256",
          "name": "_amount",
          "type": "uint256"
        }
      ],
      "name": "addRewards",
      "outputs": [],
      "stateMutability": "nonpayable",
      "type": "function"
    },
    {
      "inputs": [],
      "name": "adminAddress",
      "outputs": [
        {
          "internalType": "address",
          "name": "",
          "type": "address"
        }
      ],
      "stateMutability": "view",
      "type": "function"
    },
    {
      "inputs": [
        {
          "internalType": "uint256",
          "name": "_pid",
          "type": "uint256"
        },
        {
          "internalType": "uint256",
          "name": "_lockId",
          "type": "uint256"
        }
      ],
      "name": "apr",
      "outputs": [
        {
          "internalType": "uint256",
          "name": "",
          "type": "uint256"
        }
      ],
      "stateMutability": "view",
      "type": "function"
    },
    {
      "inputs": [
        {
          "internalType": "uint256",
          "name": "_pid",
          "type": "uint256"
        },
        {
          "internalType": "uint256",
          "name": "_depositId",
          "type": "uint256"
        }
      ],
      "name": "claim",
      "outputs": [],
      "stateMutability": "nonpayable",
      "type": "function"
    },
    {
      "inputs": [
        {
          "internalType": "uint256",
          "name": "_pid",
          "type": "uint256"
        }
      ],
      "name": "claimAll",
      "outputs": [],
      "stateMutability": "nonpayable",
      "type": "function"
    },
    {
      "inputs": [
        {
          "internalType": "uint256",
          "name": "_pid",
          "type": "uint256"
        },
        {
          "internalType": "uint256",
          "name": "_lockId",
          "type": "uint256"
        }
      ],
      "name": "claimAllByByLockId",
      "outputs": [],
      "stateMutability": "nonpayable",
      "type": "function"
    },
    {
      "inputs": [
        {
          "internalType": "uint256",
          "name": "_pid",
          "type": "uint256"
        },
        {
          "internalType": "uint256",
          "name": "_periodId",
          "type": "uint256"
        },
        {
          "internalType": "uint256",
          "name": "_amount",
          "type": "uint256"
        }
      ],
      "name": "deposit",
      "outputs": [],
      "stateMutability": "nonpayable",
      "type": "function"
    },
    {
      "inputs": [
        {
          "internalType": "address",
          "name": "_holder",
          "type": "address"
        },
        {
          "internalType": "uint256",
          "name": "_pid",
          "type": "uint256"
        },
        {
          "internalType": "uint256",
          "name": "_amount",
          "type": "uint256"
        },
        {
          "internalType": "uint256",
          "name": "_depositTimestamp",
          "type": "uint256"
        },
        {
          "internalType": "uint256",
          "name": "_withdrawalTimestamp",
          "type": "uint256"
        },
        {
          "internalType": "uint256",
          "name": "_lockId",
          "type": "uint256"
        }
      ],
      "name": "depositVesting",
      "outputs": [],
      "stateMutability": "nonpayable",
      "type": "function"
    },
    {
      "inputs": [],
      "name": "getPoolLength",
      "outputs": [
        {
          "internalType": "uint256",
          "name": "",
          "type": "uint256"
        }
      ],
      "stateMutability": "view",
      "type": "function"
    },
    {
      "inputs": [],
      "name": "getRewardPerBlock",
      "outputs": [
        {
          "internalType": "uint256",
          "name": "",
          "type": "uint256"
        }
      ],
      "stateMutability": "view",
      "type": "function"
    },
    {
      "inputs": [],
      "name": "getRewardsConfiguration",
      "outputs": [
        {
          "components": [
            {
              "internalType": "uint256",
              "name": "rewardPerBlock",
              "type": "uint256"
            },
            {
              "internalType": "uint256",
              "name": "lastUpdateBlockNum",
              "type": "uint256"
            },
            {
              "internalType": "uint256",
              "name": "updateBlocksInterval",
              "type": "uint256"
            }
          ],
          "internalType": "struct RewardRateConfigurable.RewardsConfiguration",
          "name": "",
          "type": "tuple"
        }
      ],
      "stateMutability": "view",
      "type": "function"
    },
    {
      "inputs": [
        {
          "internalType": "uint256",
          "name": "_pid",
          "type": "uint256"
        },
        {
          "internalType": "address",
          "name": "_user",
          "type": "address"
        }
      ],
      "name": "getUserLastDepositId",
      "outputs": [
        {
          "internalType": "uint256",
          "name": "",
          "type": "uint256"
        }
      ],
      "stateMutability": "view",
      "type": "function"
    },
    {
      "inputs": [
        {
          "internalType": "uint256",
          "name": "_rewardPerBlock",
          "type": "uint256"
        },
        {
          "internalType": "uint256",
          "name": "_rewardUpdateBlocksInterval",
          "type": "uint256"
        },
        {
          "internalType": "address",
          "name": "_vestingAddress",
          "type": "address"
        }
      ],
      "name": "initialize",
      "outputs": [],
      "stateMutability": "nonpayable",
      "type": "function"
    },
    {
      "inputs": [
        {
          "internalType": "uint256",
          "name": "",
          "type": "uint256"
        }
      ],
      "name": "lockPeriod",
      "outputs": [
        {
          "internalType": "uint256",
          "name": "",
          "type": "uint256"
        }
      ],
      "stateMutability": "view",
      "type": "function"
    },
    {
      "inputs": [
        {
          "internalType": "uint256",
          "name": "",
          "type": "uint256"
        }
      ],
      "name": "lockPeriodMultiplier",
      "outputs": [
        {
          "internalType": "uint256",
          "name": "",
          "type": "uint256"
        }
      ],
      "stateMutability": "view",
      "type": "function"
    },
    {
      "inputs": [],
      "name": "owner",
      "outputs": [
        {
          "internalType": "address",
          "name": "",
          "type": "address"
        }
      ],
      "stateMutability": "view",
      "type": "function"
    },
    {
      "inputs": [],
      "name": "pause",
      "outputs": [],
      "stateMutability": "nonpayable",
      "type": "function"
    },
    {
      "inputs": [],
      "name": "paused",
      "outputs": [
        {
          "internalType": "bool",
          "name": "",
          "type": "bool"
        }
      ],
      "stateMutability": "view",
      "type": "function"
    },
    {
      "inputs": [
        {
          "internalType": "uint256",
          "name": "_pid",
          "type": "uint256"
        },
        {
          "internalType": "uint256",
          "name": "_depositId",
          "type": "uint256"
        },
        {
          "internalType": "address",
          "name": "_user",
          "type": "address"
        }
      ],
      "name": "pendingReward",
      "outputs": [
        {
          "internalType": "uint256",
          "name": "",
          "type": "uint256"
        }
      ],
      "stateMutability": "view",
      "type": "function"
    },
    {
      "inputs": [
        {
          "internalType": "uint256",
          "name": "_pid",
          "type": "uint256"
        },
        {
          "internalType": "uint256",
          "name": "_lockId",
          "type": "uint256"
        },
        {
          "internalType": "address",
          "name": "_user",
          "type": "address"
        }
      ],
      "name": "pendingRewardByLockId",
      "outputs": [
        {
          "internalType": "uint256",
          "name": "",
          "type": "uint256"
        }
      ],
      "stateMutability": "view",
      "type": "function"
    },
    {
      "inputs": [
        {
          "internalType": "uint256",
          "name": "_pid",
          "type": "uint256"
        },
        {
          "internalType": "address",
          "name": "_user",
          "type": "address"
        }
      ],
      "name": "pendingRewardTotal",
      "outputs": [
        {
          "internalType": "uint256",
          "name": "",
          "type": "uint256"
        }
      ],
      "stateMutability": "view",
      "type": "function"
    },
    {
      "inputs": [
        {
          "internalType": "uint256",
          "name": "",
          "type": "uint256"
        }
      ],
      "name": "poolInfo",
      "outputs": [
        {
          "internalType": "contract IERC20",
          "name": "baseToken",
          "type": "address"
        },
        {
          "internalType": "contract IERC20",
          "name": "rewardToken",
          "type": "address"
        },
        {
          "internalType": "uint256",
          "name": "totalShares",
          "type": "uint256"
        },
        {
          "internalType": "uint256",
          "name": "lastRewardBlock",
          "type": "uint256"
        },
        {
          "internalType": "uint256",
          "name": "accRewardPerShare",
          "type": "uint256"
        }
      ],
      "stateMutability": "view",
      "type": "function"
    },
    {
      "inputs": [
        {
          "internalType": "address",
          "name": "",
          "type": "address"
        },
        {
          "internalType": "uint256",
          "name": "",
          "type": "uint256"
        },
        {
          "internalType": "uint256",
          "name": "",
          "type": "uint256"
        }
      ],
      "name": "productsRewardsDebt",
      "outputs": [
        {
          "internalType": "uint256",
          "name": "",
          "type": "uint256"
        }
      ],
      "stateMutability": "view",
      "type": "function"
    },
    {
      "inputs": [
        {
          "internalType": "uint256",
          "name": "",
          "type": "uint256"
        }
      ],
      "name": "productsRewardsInfo",
      "outputs": [
        {
          "internalType": "uint256",
          "name": "rewardsAmount",
          "type": "uint256"
        },
        {
          "internalType": "uint256",
          "name": "rewardsPerShare",
          "type": "uint256"
        }
      ],
      "stateMutability": "view",
      "type": "function"
    },
    {
      "inputs": [],
      "name": "proxiableUUID",
      "outputs": [
        {
          "internalType": "bytes32",
          "name": "",
          "type": "bytes32"
        }
      ],
      "stateMutability": "view",
      "type": "function"
    },
    {
      "inputs": [],
      "name": "renounceOwnership",
      "outputs": [],
      "stateMutability": "nonpayable",
      "type": "function"
    },
    {
      "inputs": [],
      "name": "rewardsDistributorAddress",
      "outputs": [
        {
          "internalType": "address",
          "name": "",
          "type": "address"
        }
      ],
      "stateMutability": "view",
      "type": "function"
    },
    {
      "inputs": [
        {
          "internalType": "address",
          "name": "_address",
          "type": "address"
        }
      ],
      "name": "setAdminAddress",
      "outputs": [],
      "stateMutability": "nonpayable",
      "type": "function"
    },
    {
      "inputs": [
        {
          "internalType": "uint256",
          "name": "_lockId",
          "type": "uint256"
        },
        {
          "internalType": "uint256",
          "name": "_duration",
          "type": "uint256"
        }
      ],
      "name": "setLockPeriod",
      "outputs": [],
      "stateMutability": "nonpayable",
      "type": "function"
    },
    {
      "inputs": [
        {
          "internalType": "uint256",
          "name": "_lockId",
          "type": "uint256"
        },
        {
          "internalType": "uint256",
          "name": "_multiplier",
          "type": "uint256"
        }
      ],
      "name": "setLockPeriodMultiplier",
      "outputs": [],
      "stateMutability": "nonpayable",
      "type": "function"
    },
    {
      "inputs": [
        {
          "internalType": "uint256",
          "name": "pid",
          "type": "uint256"
        },
        {
          "internalType": "uint256",
          "name": "lastRewardBlock",
          "type": "uint256"
        },
        {
          "internalType": "uint256",
          "name": "accRewardPerShare",
          "type": "uint256"
        }
      ],
      "name": "setPoolInfo",
      "outputs": [],
      "stateMutability": "nonpayable",
      "type": "function"
    },
    {
      "inputs": [
        {
          "internalType": "uint256",
          "name": "rewardPerBlock",
          "type": "uint256"
        },
        {
          "internalType": "uint256",
          "name": "updateBlocksInterval",
          "type": "uint256"
        }
      ],
      "name": "setRewardConfiguration",
      "outputs": [],
      "stateMutability": "nonpayable",
      "type": "function"
    },
    {
      "inputs": [
        {
          "internalType": "address",
          "name": "_address",
          "type": "address"
        }
      ],
      "name": "setRewardsDistributorAddress",
      "outputs": [],
      "stateMutability": "nonpayable",
      "type": "function"
    },
    {
      "inputs": [
        {
          "internalType": "uint256",
          "name": "_pid",
          "type": "uint256"
        },
        {
          "internalType": "uint256",
          "name": "_lockId",
          "type": "uint256"
        },
        {
          "internalType": "uint256",
          "name": "_tvl",
          "type": "uint256"
        }
      ],
      "name": "setTvl",
      "outputs": [],
      "stateMutability": "nonpayable",
      "type": "function"
    },
    {
      "inputs": [
        {
          "internalType": "address",
          "name": "_address",
          "type": "address"
        }
      ],
      "name": "setVestingAddress",
      "outputs": [],
      "stateMutability": "nonpayable",
      "type": "function"
    },
    {
      "inputs": [
        {
          "internalType": "address",
          "name": "newOwner",
          "type": "address"
        }
      ],
      "name": "transferOwnership",
      "outputs": [],
      "stateMutability": "nonpayable",
      "type": "function"
    },
    {
      "inputs": [
        {
          "internalType": "uint256",
          "name": "",
          "type": "uint256"
        },
        {
          "internalType": "uint256",
          "name": "",
          "type": "uint256"
        }
      ],
      "name": "tvl",
      "outputs": [
        {
          "internalType": "uint256",
          "name": "",
          "type": "uint256"
        }
      ],
      "stateMutability": "view",
      "type": "function"
    },
    {
      "inputs": [],
      "name": "unpause",
      "outputs": [],
      "stateMutability": "nonpayable",
      "type": "function"
    },
    {
      "inputs": [
        {
          "internalType": "address",
          "name": "newImplementation",
          "type": "address"
        },
        {
          "internalType": "bytes",
          "name": "data",
          "type": "bytes"
        }
      ],
      "name": "upgradeToAndCall",
      "outputs": [],
      "stateMutability": "payable",
      "type": "function"
    },
    {
      "inputs": [
        {
          "internalType": "address",
          "name": "",
          "type": "address"
        },
        {
          "internalType": "uint256",
          "name": "",
          "type": "uint256"
        },
        {
          "internalType": "uint256",
          "name": "",
          "type": "uint256"
        }
      ],
      "name": "userDeposits",
      "outputs": [
        {
          "internalType": "uint256",
          "name": "depositTokens",
          "type": "uint256"
        },
        {
          "internalType": "uint256",
          "name": "stakePeriod",
          "type": "uint256"
        },
        {
          "internalType": "uint256",
          "name": "depositTimestamp",
          "type": "uint256"
        },
        {
          "internalType": "uint256",
          "name": "withdrawalTimestamp",
          "type": "uint256"
        },
        {
          "internalType": "uint256",
          "name": "rewardsClaimed",
          "type": "uint256"
        },
        {
          "internalType": "uint256",
          "name": "rewardDebt",
          "type": "uint256"
        },
        {
          "internalType": "bool",
          "name": "is_finished",
          "type": "bool"
        }
      ],
      "stateMutability": "view",
      "type": "function"
    },
    {
      "inputs": [
        {
          "internalType": "address",
          "name": "",
          "type": "address"
        },
        {
          "internalType": "uint256",
          "name": "",
          "type": "uint256"
        }
      ],
      "name": "userInfo",
      "outputs": [
        {
          "internalType": "uint256",
          "name": "totalDepositTokens",
          "type": "uint256"
        },
        {
          "internalType": "uint256",
          "name": "depositId",
          "type": "uint256"
        },
        {
          "internalType": "uint256",
          "name": "totalClaim",
          "type": "uint256"
        }
      ],
      "stateMutability": "view",
      "type": "function"
    },
    {
      "inputs": [],
      "name": "vestingAddress",
      "outputs": [
        {
          "internalType": "address",
          "name": "",
          "type": "address"
        }
      ],
      "stateMutability": "view",
      "type": "function"
    },
    {
      "inputs": [
        {
          "internalType": "uint256",
          "name": "_pid",
          "type": "uint256"
        },
        {
          "internalType": "uint256",
          "name": "_depositId",
          "type": "uint256"
        }
      ],
      "name": "withdraw",
      "outputs": [],
      "stateMutability": "nonpayable",
      "type": "function"
    },
    {
      "inputs": [
        {
          "internalType": "address",
          "name": "_holder",
          "type": "address"
        },
        {
          "internalType": "uint256",
          "name": "_pid",
          "type": "uint256"
        },
        {
          "internalType": "uint256",
          "name": "_depositId",
          "type": "uint256"
        },
        {
          "internalType": "uint256",
          "name": "_amount",
          "type": "uint256"
        }
      ],
      "name": "withdrawVesting",
      "outputs": [],
      "stateMutability": "nonpayable",
      "type": "function"
    }
  ],
  "bytecode": "0x60a0604052306080523480156200001557600080fd5b506200002062000026565b620000da565b7ff0c57e16840df040f15088dc2f81fe391c3923bec73e23a9662efc9c229c6a00805468010000000000000000900460ff1615620000775760405163f92ee8a960e01b815260040160405180910390fd5b80546001600160401b0390811614620000d75780546001600160401b0319166001600160401b0390811782556040519081527fc7f505b2f371ae2175ee4913f4499e1f2633a7b5936321eed1cdaeb6115181d29060200160405180910390a15b50565b608051613f8162000104600039600081816130070152818161303001526131710152613f816000f3fe6080604052600436106102ad5760003560e01c80638456cb5911610175578063bfc0699f116100dc578063e4d75c9d11610095578063f2fde38b1161006f578063f2fde38b14610947578063fb7853a914610967578063fc41aa0914610987578063fc6f9468146109a757600080fd5b8063e4d75c9d146108da578063eb9fa54e146108fa578063ef27c7731461091a57600080fd5b8063bfc0699f1461052a578063c20632ba1461083a578063c34902631461085a578063c77c73871461087a578063db3e81261461089a578063dd899a9e146108ba57600080fd5b8063ad3cb1cc1161012e578063ad3cb1cc14610742578063adec6a5014610780578063aede87ec146107ad578063b3944d52146107e5578063b76d2663146107fa578063bdb665b01461081a57600080fd5b80638456cb59146106a3578063868ba188146106b85780638da5cb5b146106d857806395560653146106ed5780639e2dbf9214610702578063a6ab36f21461072257600080fd5b806352d1902d116102195780636b53efbb116101d25780636b53efbb1461058157806370f4fdd0146105bf578063715018a6146105df57806372b04ab4146105f457806377f02902146106145780638369f0f41461066b57600080fd5b806352d1902d146104c557806354bdc188146104da5780635c975abb146104fa57806362043bd81461052a57806365cbaa4e146105415780636930fd2a1461056157600080fd5b80633f4ba83a1161026b5780633f4ba83a14610413578063441a3e701461042857806349df8d33146104485780634eb80d641461045d5780634edf5a89146104925780634f1ef286146104b257600080fd5b8062aeef8a146102b25780630abc92cb146102d45780631526fe27146103075780631fc8b2a11461035a57806321ce919d146103915780632c1e816d146103f3575b600080fd5b3480156102be57600080fd5b506102d26102cd3660046139fb565b6109c7565b005b3480156102e057600080fd5b506102f46102ef366004613a43565b610b9a565b6040519081526020015b60405180910390f35b34801561031357600080fd5b50610327610322366004613a78565b610bb1565b604080516001600160a01b039687168152959094166020860152928401919091526060830152608082015260a0016102fe565b34801561036657600080fd5b5061036f610bfe565b60408051825181526020808401519082015291810151908201526060016102fe565b34801561039d57600080fd5b506103d86103ac366004613a91565b603a60209081526000928352604080842090915290825290208054600182015460029092015490919083565b604080519384526020840192909252908201526060016102fe565b3480156103ff57600080fd5b506102d261040e366004613abb565b610c47565b34801561041f57600080fd5b506102d2610cdc565b34801561043457600080fd5b506102d2610443366004613ad6565b610d33565b34801561045457600080fd5b506033546102f4565b34801561046957600080fd5b5061047d610478366004613a78565b610d8f565b604080519283526020830191909152016102fe565b34801561049e57600080fd5b506102f46104ad366004613af8565b610dbd565b6102d26104c0366004613b3a565b610e1b565b3480156104d157600080fd5b506102f4610e36565b3480156104e657600080fd5b506102f46104f5366004613af8565b610e53565b34801561050657600080fd5b50600080516020613f0c8339815191525460ff1660405190151581526020016102fe565b34801561053657600080fd5b506102f4620f424081565b34801561054d57600080fd5b506102d261055c366004613bfc565b610eb6565b34801561056d57600080fd5b506102d261057c366004613a78565b6111d4565b34801561058d57600080fd5b506102f461059c366004613c46565b603c60209081526000938452604080852082529284528284209052825290205481565b3480156105cb57600080fd5b506102d26105da366004613abb565b611269565b3480156105eb57600080fd5b506102d2611300565b34801561060057600080fd5b506102d261060f366004613ad6565b611312565b34801561062057600080fd5b5061063461062f366004613c46565b6113b0565b604080519788526020880196909652948601939093526060850191909152608084015260a0830152151560c082015260e0016102fe565b34801561067757600080fd5b50603d5461068b906001600160a01b031681565b6040516001600160a01b0390911681526020016102fe565b3480156106af57600080fd5b506102d261141b565b3480156106c457600080fd5b506102d26106d3366004613ad6565b611470565b3480156106e457600080fd5b5061068b611502565b3480156106f957600080fd5b506102d2611530565b34801561070e57600080fd5b506102f461071d366004613ad6565b611657565b34801561072e57600080fd5b506102d261073d366004613a43565b61179e565b34801561074e57600080fd5b50610773604051806040016040528060058152602001640352e302e360dc1b81525081565b6040516102fe9190613c9d565b34801561078c57600080fd5b506102f461079b366004613a78565b60396020526000908152604090205481565b3480156107b957600080fd5b506102f46107c8366004613ad6565b603f60209081526000928352604080842090915290825290205481565b3480156107f157600080fd5b506037546102f4565b34801561080657600080fd5b506102f4610815366004613a43565b611911565b34801561082657600080fd5b506102d2610835366004613cd0565b611a19565b34801561084657600080fd5b506102d2610855366004613d09565b611dd1565b34801561086657600080fd5b506102d2610875366004613ad6565b612005565b34801561088657600080fd5b5060365461068b906001600160a01b031681565b3480156108a657600080fd5b506102d26108b53660046139fb565b612046565b3480156108c657600080fd5b506102d26108d5366004613ad6565b6120da565b3480156108e657600080fd5b506102d26108f5366004613abb565b612131565b34801561090657600080fd5b506102d2610915366004613ad6565b6121c8565b34801561092657600080fd5b506102f4610935366004613a78565b60386020526000908152604090205481565b34801561095357600080fd5b506102d2610962366004613abb565b612330565b34801561097357600080fd5b506102d26109823660046139fb565b61236b565b34801561099357600080fd5b506102d26109a2366004613ad6565b612463565b3480156109b357600080fd5b5060005461068b906001600160a01b031681565b6109cf61252c565b6109d7612564565b60375483908110610a035760405162461bcd60e51b81526004016109fa90613d4b565b60405180910390fd5b600083815260386020526040902054839015801590610a225750600581105b610a3e5760405162461bcd60e51b81526004016109fa90613d82565b600060378681548110610a5357610a53613db9565b60009182526020918290206040805160a08101825260059390930290910180546001600160a01b0390811680855260018301549091169484019490945260028101548383015260038101546060840152600490810154608084015290516370a0823160e01b815233918101919091529092508591906370a0823190602401602060405180830381865afa158015610aee573d6000803e3d6000fd5b505050506040513d601f19601f82011682018060405250810190610b129190613dcf565b1015610b705760405162461bcd60e51b815260206004820152602760248201527f4a6176467265657a65723a20696e76616c69642062616c616e636520666f722060448201526619195c1bdcda5d60ca1b60648201526084016109fa565b610b7b868587612595565b505050610b956001600080516020613f2c83398151915255565b505050565b6000610ba7848484612879565b90505b9392505050565b60378181548110610bc157600080fd5b6000918252602090912060059091020180546001820154600283015460038401546004909401546001600160a01b03938416955091909216929085565b610c2260405180606001604052806000815260200160008152602001600081525090565b5060408051606081018252603354815260345460208201526035549181019190915290565b6000546001600160a01b0316331480610c785750610c63611502565b6001600160a01b0316336001600160a01b0316145b610c945760405162461bcd60e51b81526004016109fa90613de8565b600080546001600160a01b0319166001600160a01b038316908117825560405190917f030ff471e8e3d5a26cd9ee887eb024f145aaf27e12cd2f7bdcd14aeb40cf333191a250565b6000546001600160a01b0316331480610d0d5750610cf8611502565b6001600160a01b0316336001600160a01b0316145b610d295760405162461bcd60e51b81526004016109fa90613de8565b610d31612baf565b565b610d3b61252c565b60375482908110610d5e5760405162461bcd60e51b81526004016109fa90613d4b565b610d69836000612c0f565b610d738383612d2f565b50610d8b6001600080516020613f2c83398151915255565b5050565b603e8181548110610d9f57600080fd5b60009182526020909120600290910201805460019091015490915082565b6001600160a01b0381166000908152603a602090815260408083208584528252808320815160608101835281548152600180830154948201859052600290920154928101929092529091610e119190613e35565b9150505b92915050565b610e23612ffc565b610e2c826130a1565b610d8b82826130a9565b6000610e40613166565b50600080516020613eec83398151915290565b60008060005b6001600160a01b0384166000908152603a60209081526040808320888452909152902060010154811015610eae57610e92858286612879565b610e9c9083613e48565b9150610ea781613e5b565b9050610e59565b509392505050565b610ebe61252c565b610ec6612564565b60375485908110610ee95760405162461bcd60e51b81526004016109fa90613d4b565b6036546001600160a01b03163314610f3e5760405162461bcd60e51b81526020600482015260186024820152774a6176467265657a65723a206f6e6c792076657374696e6760401b60448201526064016109fa565b6001600160a01b0387166000908152603a6020908152604080832089845290915281206037805491929189908110610f7857610f78613db9565b90600052602060002090600502019050610f93886000612c0f565b86826000016000828254610fa79190613e48565b9250508190555086816002016000828254610fc29190613e48565b90915550506000888152603f6020908152604080832087845290915281208054899290610ff0908490613e48565b90915550506004810154600090670de0b6b3a764000090611011908a613e74565b61101b9190613e8b565b905060006040518060e001604052808a815260200187815260200189815260200188815260200160008152602001838152602001600015158152509050603b60008c6001600160a01b03166001600160a01b0316815260200190815260200160002060008b8152602001908152602001600020819080600181540180825580915050600190039060005260206000209060070201600090919091909150600082015181600001556020820151816001015560408201518160020155606082015181600301556080820151816004015560a0820151816005015560c08201518160060160006101000a81548160ff0219169083151502179055505050603b60008c6001600160a01b03166001600160a01b0316815260200190815260200160002060008b8152602001908152602001600020805490508460010181905550858a8c6001600160a01b03167ff943cf10ef4d1e3239f4716ddecdf546e8ba8ab0e41deafd9a71a99936827e458c8c8c6040516111a8939291909283526020830191909152604082015260600190565b60405180910390a450505050506111cc6001600080516020613f2c83398151915255565b505050505050565b6111dc61252c565b603754819081106111ff5760405162461bcd60e51b81526004016109fa90613d4b565b60005b336000908152603a6020908152604080832086845290915290206001015481101561124d57611232836000612c0f565b61123d3384836131af565b61124681613e5b565b9050611202565b50506112666001600080516020613f2c83398151915255565b50565b6000546001600160a01b031633148061129a5750611285611502565b6001600160a01b0316336001600160a01b0316145b6112b65760405162461bcd60e51b81526004016109fa90613de8565b603d80546001600160a01b0319166001600160a01b0383169081179091556040517f826adf12a851d42e0df0f814cfa962485f5a6e647b33a99895309f9196ff14f090600090a250565b6113086133d6565b610d316000613408565b6000546001600160a01b0316331480611343575061132e611502565b6001600160a01b0316336001600160a01b0316145b61135f5760405162461bcd60e51b81526004016109fa90613de8565b600082815260386020526040908190208290555182907f7420ef70bdf62aec257735113af4376cebfe779cce8a9edbcc8bcb82b83ab6c7906113a49084815260200190565b60405180910390a25050565b603b60205282600052604060002060205281600052604060002081815481106113d857600080fd5b6000918252602090912060079091020180546001820154600283015460038401546004850154600586015460069096015494985092965090945092909160ff1687565b6000546001600160a01b031633148061144c5750611437611502565b6001600160a01b0316336001600160a01b0316145b6114685760405162461bcd60e51b81526004016109fa90613de8565b610d31613479565b6000546001600160a01b03163314806114a1575061148c611502565b6001600160a01b0316336001600160a01b0316145b6114bd5760405162461bcd60e51b81526004016109fa90613de8565b600082815260396020526040908190208290555182907fb5ae1dc6de3094e73c53e269880e7c967f3407bfb4449f81a75f86aa5194daeb906113a49084815260200190565b7f9016d09d72d40fdae2fd8ceac6b6234c7706214fd39c1cd1e609a0528c199300546001600160a01b031690565b6000546001600160a01b0316331480611561575061154c611502565b6001600160a01b0316336001600160a01b0316145b61157d5760405162461bcd60e51b81526004016109fa90613de8565b603e54603754116115e05760405162461bcd60e51b815260206004820152602760248201527f4a6176467265657a65723a207265776172647320706f6f6c20616c72656164796044820152662065786973747360c81b60648201526084016109fa565b60408051808201909152600080825260208201818152603e8054600181018255925291517f8d800d6614d35eed73733ee453164a3b48076eb3138f466adeeb9dec7bb31f7060029092029182015590517f8d800d6614d35eed73733ee453164a3b48076eb3138f466adeeb9dec7bb31f7190910155565b6000806037848154811061166d5761166d613db9565b600091825260208083206040805160a081018252600590940290910180546001600160a01b0390811685526001820154169284019290925260028201549083015260038101546060830152600401546080820152603e805491935090869081106116d9576116d9613db9565b906000526020600020906002020160405180604001604052908160008201548152602001600182015481525050905060008083604001511161172357670de0b6b3a7640000611729565b82604001515b82516000878152603960205260409020549192508291620186a09061174d60335490565b6117579190613e74565b6117649062100a40613e74565b61176e9190613e8b565b6117789190613e48565b61178a90670de0b6b3a7640000613e74565b6117949190613e8b565b9695505050505050565b7ff0c57e16840df040f15088dc2f81fe391c3923bec73e23a9662efc9c229c6a008054600160401b810460ff16159067ffffffffffffffff166000811580156117e45750825b905060008267ffffffffffffffff1660011480156118015750303b155b90508115801561180f575080155b1561182d5760405163f92ee8a960e01b815260040160405180910390fd5b845467ffffffffffffffff19166001178555831561185757845460ff60401b1916600160401b1785555b603680546001600160a01b0319166001600160a01b03881617905561187a6134c2565b61188261352f565b61188c888861353f565b60405143815233907f25ff68dd81b34665b5ba7e553ee5511bf6812e12adb4a7e2c0d9e26b3099ce799060200160405180910390a2831561190757845460ff60401b19168555604051600181527fc7f505b2f371ae2175ee4913f4499e1f2633a7b5936321eed1cdaeb6115181d29060200160405180910390a15b5050505050505050565b60008060005b6001600160a01b0384166000908152603a60209081526040808320898452909152902060010154811015611a10576001600160a01b0384166000908152603b60209081526040808320898452909152812080548390811061197a5761197a613db9565b60009182526020918290206040805160e08101825260079093029091018054835260018101549383018490526002810154918301919091526003810154606083015260048101546080830152600581015460a08301526006015460ff16151560c082015291508690036119ff576119f2878387612879565b6119fc9084613e48565b92505b50611a0981613e5b565b9050611917565b50949350505050565b611a2161252c565b611a29612564565b60375483908110611a4c5760405162461bcd60e51b81526004016109fa90613d4b565b6036546001600160a01b03163314611aa15760405162461bcd60e51b81526020600482015260186024820152774a6176467265657a65723a206f6e6c792076657374696e6760401b60448201526064016109fa565b611aac846000612c0f565b6001600160a01b0385166000908152603a6020908152604080832087845290915281206037805491929187908110611ae657611ae6613db9565b600091825260208083206001600160a01b038b168452603b825260408085208b86529092529083208054600590930290910193509087908110611b2b57611b2b613db9565b906000526020600020906007020190506000603e8881548110611b5057611b50613db9565b90600052602060002090600202016040518060400160405290816000820154815260200160018201548152505090508582600001541015611bdf5760405162461bcd60e51b815260206004820152602360248201527f4a6176467265657a65723a20696e76616c696420776974686472617720616d6f6044820152621d5b9d60ea1b60648201526084016109fa565b600682015460ff1615611c345760405162461bcd60e51b815260206004820152601d60248201527f4a6176467265657a65723a20616c72656164792077697468647261776e00000060448201526064016109fa565b611c3f8989896131af565b85826000016000828254611c539190613e35565b909155505060048301548254670de0b6b3a764000091611c7291613e74565b611c7c9190613e8b565b600583015560208101518254670de0b6b3a764000091611c9b91613e74565b611ca59190613e8b565b6001600160a01b038a166000908152603c602090815260408083208c845282528083208b8452909152812091909155845487918691611ce5908490613e35565b9250508190555085836002016000828254611d009190613e35565b90915550506000888152603f602090815260408083206001860154845290915281208054889290611d32908490613e35565b90915550508254611d4d906001600160a01b03168a88613551565b8154600003611d665760068201805460ff191660011790555b8160010154888a6001600160a01b03167f02f25270a4d87bea75db541cdfe559334a275b4a233520ed6c0a2429667cca9489604051611da791815260200190565b60405180910390a45050505050611dcb6001600080516020613f2c83398151915255565b50505050565b6000546001600160a01b0316331480611e025750611ded611502565b6001600160a01b0316336001600160a01b0316145b611e1e5760405162461bcd60e51b81526004016109fa90613de8565b6040805160a0810182526001600160a01b0380871680835286821660208085018281526000868801818152606088018b8152608089018b815260378054600181810183559186529a516005909b027f42a7b7dd785cd69714a189dffb3fd7d7174edc9ece837694ce50f7078f7c31ae810180549c8c166001600160a01b03199d8e1617905595517f42a7b7dd785cd69714a189dffb3fd7d7174edc9ece837694ce50f7078f7c31af8701805491909b169b169a909a1790985590517f42a7b7dd785cd69714a189dffb3fd7d7174edc9ece837694ce50f7078f7c31b0840155517f42a7b7dd785cd69714a189dffb3fd7d7174edc9ece837694ce50f7078f7c31b183015594517f42a7b7dd785cd69714a189dffb3fd7d7174edc9ece837694ce50f7078f7c31b29091015585518087018752848152908101848152603e80549687018155909452516002949094027f8d800d6614d35eed73733ee453164a3b48076eb3138f466adeeb9dec7bb31f7081019490945591517f8d800d6614d35eed73733ee453164a3b48076eb3138f466adeeb9dec7bb31f719093019290925591517f9e5f9d8c569f90178766edc7a7c2f8c6fa96623bdf5593c047d53bddd0bc6fae90611ff79086908690918252602082015260400190565b60405180910390a350505050565b61200d61252c565b603754829081106120305760405162461bcd60e51b81526004016109fa90613d4b565b61203b836000612c0f565b610d733384846131af565b6000546001600160a01b03163314806120775750612062611502565b6001600160a01b0316336001600160a01b0316145b6120935760405162461bcd60e51b81526004016109fa90613de8565b81600514806120a25750816006145b6120be5760405162461bcd60e51b81526004016109fa90613d82565b6000928352603f60209081526040808520938552929052912055565b6000546001600160a01b031633148061210b57506120f6611502565b6001600160a01b0316336001600160a01b0316145b6121275760405162461bcd60e51b81526004016109fa90613de8565b610d8b82826135b0565b6000546001600160a01b0316331480612162575061214d611502565b6001600160a01b0316336001600160a01b0316145b61217e5760405162461bcd60e51b81526004016109fa90613de8565b603680546001600160a01b0319166001600160a01b0383169081179091556040517fddd599b304459e2a29c5074536bd27446e2f8b11bf0174a9c29be65ed63f03e390600090a250565b6121d061252c565b603754829081106121f35760405162461bcd60e51b81526004016109fa90613d4b565b6000828152603860205260409020548290158015906122125750600581105b61222e5760405162461bcd60e51b81526004016109fa90613d82565b60005b336000908152603a6020908152604080832088845290915290206001015481101561231657336000908152603b60209081526040808320888452909152812080548390811061228257612282613db9565b60009182526020918290206040805160e08101825260079093029091018054835260018101549383018490526002810154918301919091526003810154606083015260048101546080830152600581015460a08301526006015460ff16151560c08201529150859003612305576122fa866000612c0f565b6123053387846131af565b5061230f81613e5b565b9050612231565b505050610d8b6001600080516020613f2c83398151915255565b6123386133d6565b6001600160a01b03811661236257604051631e4fbdf760e01b8152600060048201526024016109fa565b61126681613408565b6000546001600160a01b031633148061239c5750612387611502565b6001600160a01b0316336001600160a01b0316145b6123b85760405162461bcd60e51b81526004016109fa90613de8565b603754839081106123db5760405162461bcd60e51b81526004016109fa90613d4b565b6123e6846000612c0f565b6000603785815481106123fb576123fb613db9565b600091825260209182902060036005909202019081018690556004810185905560408051888152928301879052820185905291507f1317fb35f86e495b3f15bfc667fd3386ff9b0f855fd3968ede5f420332888b689060600160405180910390a15050505050565b603d546001600160a01b031633146124c95760405162461bcd60e51b815260206004820152602360248201527f4a6176467265657a65723a206f6e6c79207265776172647344697374726962756044820152623a37b960e91b60648201526084016109fa565b6124d161252c565b6124db8282612c0f565b817f035a6817755d9d163087d4649b27315908b801d1f5e33071a44f1fc0f7a871b38260405161250d91815260200190565b60405180910390a2610d8b6001600080516020613f2c83398151915255565b600080516020613f2c83398151915280546001190161255e57604051633ee5aeb560e01b815260040160405180910390fd5b60029055565b600080516020613f0c8339815191525460ff1615610d315760405163d93c066560e01b815260040160405180910390fd5b336000908152603a60209081526040808320868452909152812060378054919291869081106125c6576125c6613db9565b906000526020600020906005020190506000603e86815481106125eb576125eb613db9565b6000918252602080832060408051808201909152600290930201805483526001015490820152915061261e908790612c0f565b8154612635906001600160a01b03163330886135ff565b848360000160008282546126499190613e48565b92505081905550848260020160008282546126649190613e48565b90915550506000868152603f6020908152604080832087845290915281208054879290612692908490613e48565b90915550506004820154600090670de0b6b3a7640000906126b39088613e74565b6126bd9190613e8b565b90506000670de0b6b3a76400008360200151886126da9190613e74565b6126e49190613e8b565b905060006040518060e00160405280898152602001888152602001428152602001603860008a815260200190815260200160002054426127249190613e48565b8152600060208083018290526040808401889052606093840183905233808452603b83528184208f85528352818420805460018082018355828752858720895160079093020191825588860151828201558885015160028301559688015160038201556080880151600482015560a0880151600582015560c08801516006909101805460ff1916911515919091179055548c8601819055908452603c83528184208f855290925282209394508593926127dc91613e35565b8152602001908152602001600020819055508689336001600160a01b03167ff943cf10ef4d1e3239f4716ddecdf546e8ba8ab0e41deafd9a71a99936827e458b42603860008e8152602001908152602001600020544261283c9190613e48565b6040805193845260208401929092529082015260600160405180910390a4505050505050505050565b6001600080516020613f2c83398151915255565b6001600160a01b0381166000908152603b6020908152604080832086845290915281208054829190859081106128b1576128b1613db9565b600091825260208083206040805160e0810182526007909402909101805484526001810154928401929092526002820154908301526003810154606083015260048101546080830152600581015460a08301526006015460ff16151560c082015260378054919350908790811061292a5761292a613db9565b600091825260208083206040805160a081018252600590940290910180546001600160a01b0390811685526001820154169284019290925260028201549083015260038101546060830152600401546080820152603e8054919350908890811061299657612996613db9565b90600052602060002090600202016040518060400160405290816000820154815260200160018201548152505090508260c00151806129d9575082604001514211155b806129e75750816060015143105b156129f85760009350505050610baa565b6080820151606083015143118015612a135750604083015115155b15612a74576000836060015143612a2a9190613e35565b90506000612a3760335490565b612a419083613e74565b6040860151909150612a5b82670de0b6b3a7640000613e74565b612a659190613e8b565b612a6f9084613e48565b925050505b60008460a00151670de0b6b3a7640000838760000151612a949190613e74565b612a9e9190613e8b565b612aa89190613e35565b6001600160a01b0388166000908152603c602090815260408083208d845282528083208c8452825282205490860151885193945091929091670de0b6b3a764000091612af49190613e74565b612afe9190613e8b565b11612b0a576000612b63565b6001600160a01b0388166000908152603c602090815260408083208d845282528083208c8452825290912054908501518751670de0b6b3a764000091612b4f91613e74565b612b599190613e8b565b612b639190613e35565b905080620186a060396000896020015181526020019081526020016000205484612b8d9190613e74565b612b979190613e8b565b612ba19190613e48565b9a9950505050505050505050565b612bb7613638565b600080516020613f0c833981519152805460ff191681557f5db9ee0a495bf2e6ff9c91a7834c1ba4fdd244a5e8aa4e537bd38aeae4b073aa335b6040516001600160a01b03909116815260200160405180910390a150565b600060378381548110612c2457612c24613db9565b906000526020600020906005020190506000603e8481548110612c4957612c49613db9565b9060005260206000209060020201905081600301544311612c6a5750505050565b8160020154600003612c825750436003909101555050565b6000612c8d60335490565b6003840154612c9c9043613e35565b612ca69190613e74565b6002840154909150612cc082670de0b6b3a7640000613e74565b612cca9190613e8b565b8360040154612cd99190613e48565b6004840155436003840155815484908390600090612cf8908490613e48565b909155505060028301548254612d1690670de0b6b3a7640000613e74565b612d209190613e8b565b82600101819055505050505050565b336000908152603a6020908152604080832085845290915281206037805491929185908110612d6057612d60613db9565b60009182526020808320338452603b825260408085208986529092529083208054600590930290910193509085908110612d9c57612d9c613db9565b906000526020600020906007020190506000603e8681548110612dc157612dc1613db9565b906000526020600020906002020160405180604001604052908160008201548152602001600182015481525050905042826003015410612e515760405162461bcd60e51b815260206004820152602560248201527f4a6176467265657a65723a206c6f636b20706572696f64206861736e27742065604482015264373232b21760d91b60648201526084016109fa565b600682015460ff1615612ea65760405162461bcd60e51b815260206004820152601d60248201527f4a6176467265657a65723a20616c72656164792077697468647261776e00000060448201526064016109fa565b612eb13387876131af565b60048301548254670de0b6b3a764000091612ecb91613e74565b612ed59190613e8b565b600583015560208101518254670de0b6b3a764000091612ef491613e74565b612efe9190613e8b565b336000908152603c602090815260408083208a845282528083208984529091528120919091558254855490918691612f37908490613e35565b90915550508154600284018054600090612f52908490613e35565b909155505081546000878152603f602090815260408083206001870154845290915281208054909190612f86908490613e35565b909155505081548354612fa6916001600160a01b03909116903390613551565b60068201805460ff191660019081179091558201548254604051908152879033907f02f25270a4d87bea75db541cdfe559334a275b4a233520ed6c0a2429667cca949060200160405180910390a4505050505050565b306001600160a01b037f000000000000000000000000000000000000000000000000000000000000000016148061308357507f00000000000000000000000000000000000000000000000000000000000000006001600160a01b0316613077600080516020613eec833981519152546001600160a01b031690565b6001600160a01b031614155b15610d315760405163703e46dd60e11b815260040160405180910390fd5b6112666133d6565b816001600160a01b03166352d1902d6040518163ffffffff1660e01b8152600401602060405180830381865afa925050508015613103575060408051601f3d908101601f1916820190925261310091810190613dcf565b60015b61312b57604051634c9c8ce360e01b81526001600160a01b03831660048201526024016109fa565b600080516020613eec833981519152811461315c57604051632a87526960e21b8152600481018290526024016109fa565b610b958383613668565b306001600160a01b037f00000000000000000000000000000000000000000000000000000000000000001614610d315760405163703e46dd60e11b815260040160405180910390fd5b6001600160a01b0383166000818152603a602090815260408083208684528252808320938352603b825280832086845290915281208054849081106131f6576131f6613db9565b9060005260206000209060070201905060006037858154811061321b5761321b613db9565b600091825260208083206040805160a081018252600590940290910180546001600160a01b0390811685526001820154169284019290925260028201549083015260038101546060830152600401546080820152603e8054919350908790811061328757613287613db9565b600091825260208083206040805180820190915260029093020180548352600101549082015291506132ba87878a612879565b9050801561190757808560020160008282546132d69190613e48565b92505081905550808460040160008282546132f19190613e48565b909155505060808301518454670de0b6b3a76400009161331091613e74565b61331a9190613e8b565b600585015560208201518454670de0b6b3a76400009161333991613e74565b6133439190613e8b565b6001600160a01b03808a166000908152603c602090815260408083208c845282528083208b84528252909120929092559084015161338391168983613551565b836001015487896001600160a01b03167f9fba1214de678ea5d457a1f2cdf90e4b52fd4856667e8b2de5b6502003952d62846040516133c491815260200190565b60405180910390a45050505050505050565b336133df611502565b6001600160a01b031614610d315760405163118cdaa760e01b81523360048201526024016109fa565b7f9016d09d72d40fdae2fd8ceac6b6234c7706214fd39c1cd1e609a0528c19930080546001600160a01b031981166001600160a01b03848116918217845560405192169182907f8be0079c531659141344cd1fd0a4f28419497f9722a3daafe3b4186f6b6457e090600090a3505050565b613481612564565b600080516020613f0c833981519152805460ff191660011781557f62e78cea01bee320cd4e420270b5ea74000d11b0c9f74754ebdbfc544b05a25833612bf1565b6134ca6136be565b600080546001600160a01b031916339081179091556134e890613707565b6134f0613718565b6134f8613728565b60405143815233907f25ff68dd81b34665b5ba7e553ee5511bf6812e12adb4a7e2c0d9e26b3099ce799060200160405180910390a2565b6135376136be565b610d31613730565b6135476136be565b610d8b8282613738565b6040516001600160a01b03838116602483015260448201839052610b9591859182169063a9059cbb906064015b604051602081830303815290604052915060e01b6020820180516001600160e01b03838183161783525050505061374f565b603380549083905543603455603582905560408051828152602081018590527f842e6f2b482c6f39924c8be7b71d40631362ef78f833f0371ceb2649edc5fb10910160405180910390a1505050565b6040516001600160a01b038481166024830152838116604483015260648201839052611dcb9186918216906323b872dd9060840161357e565b600080516020613f0c8339815191525460ff16610d3157604051638dfc202b60e01b815260040160405180910390fd5b613671826137b2565b6040516001600160a01b038316907fbc7cd75a20ee27fd9adebab32041f755214dbc6bffa90cc0225b39da2e5c2d3b90600090a28051156136b657610b958282613817565b610d8b61388d565b7ff0c57e16840df040f15088dc2f81fe391c3923bec73e23a9662efc9c229c6a0054600160401b900460ff16610d3157604051631afcd79f60e31b815260040160405180910390fd5b61370f6136be565b611266816138ac565b6137206136be565b610d316138b4565b610d316136be565b6128656136be565b6137406136be565b60339190915543603455603555565b60006137646001600160a01b038416836138d5565b905080516000141580156137895750808060200190518101906137879190613ead565b155b15610b9557604051635274afe760e01b81526001600160a01b03841660048201526024016109fa565b806001600160a01b03163b6000036137e857604051634c9c8ce360e01b81526001600160a01b03821660048201526024016109fa565b600080516020613eec83398151915280546001600160a01b0319166001600160a01b0392909216919091179055565b6060600080846001600160a01b0316846040516138349190613ecf565b600060405180830381855af49150503d806000811461386f576040519150601f19603f3d011682016040523d82523d6000602084013e613874565b606091505b50915091506138848583836138e3565b95945050505050565b3415610d315760405163b398979f60e01b815260040160405180910390fd5b6123386136be565b6138bc6136be565b600080516020613f0c833981519152805460ff19169055565b6060610baa8383600061393f565b6060826138f8576138f3826139d2565b610baa565b815115801561390f57506001600160a01b0384163b155b1561393857604051639996b31560e01b81526001600160a01b03851660048201526024016109fa565b5080610baa565b6060814710156139645760405163cd78605960e01b81523060048201526024016109fa565b600080856001600160a01b031684866040516139809190613ecf565b60006040518083038185875af1925050503d80600081146139bd576040519150601f19603f3d011682016040523d82523d6000602084013e6139c2565b606091505b50915091506117948683836138e3565b8051156139e25780518082602001fd5b604051630a12f52160e11b815260040160405180910390fd5b600080600060608486031215613a1057600080fd5b505081359360208301359350604090920135919050565b80356001600160a01b0381168114613a3e57600080fd5b919050565b600080600060608486031215613a5857600080fd5b8335925060208401359150613a6f60408501613a27565b90509250925092565b600060208284031215613a8a57600080fd5b5035919050565b60008060408385031215613aa457600080fd5b613aad83613a27565b946020939093013593505050565b600060208284031215613acd57600080fd5b610baa82613a27565b60008060408385031215613ae957600080fd5b50508035926020909101359150565b60008060408385031215613b0b57600080fd5b82359150613b1b60208401613a27565b90509250929050565b634e487b7160e01b600052604160045260246000fd5b60008060408385031215613b4d57600080fd5b613b5683613a27565b9150602083013567ffffffffffffffff80821115613b7357600080fd5b818501915085601f830112613b8757600080fd5b813581811115613b9957613b99613b24565b604051601f8201601f19908116603f01168101908382118183101715613bc157613bc1613b24565b81604052828152886020848701011115613bda57600080fd5b8260208601602083013760006020848301015280955050505050509250929050565b60008060008060008060c08789031215613c1557600080fd5b613c1e87613a27565b9860208801359850604088013597606081013597506080810135965060a00135945092505050565b600080600060608486031215613c5b57600080fd5b613c6484613a27565b95602085013595506040909401359392505050565b60005b83811015613c94578181015183820152602001613c7c565b50506000910152565b6020815260008251806020840152613cbc816040850160208701613c79565b601f01601f19169190910160400192915050565b60008060008060808587031215613ce657600080fd5b613cef85613a27565b966020860135965060408601359560600135945092505050565b60008060008060808587031215613d1f57600080fd5b613d2885613a27565b9350613d3660208601613a27565b93969395505050506040820135916060013590565b60208082526018908201527f4a6176467265657a65723a20556e6b6e6f776e20706f6f6c0000000000000000604082015260600190565b6020808252601f908201527f4a6176467265657a65723a20696e76616c6964206c6f636b20706572696f6400604082015260600190565b634e487b7160e01b600052603260045260246000fd5b600060208284031215613de157600080fd5b5051919050565b6020808252601a908201527f4261736555706772616461626c653a206f6e6c792061646d696e000000000000604082015260600190565b634e487b7160e01b600052601160045260246000fd5b81810381811115610e1557610e15613e1f565b80820180821115610e1557610e15613e1f565b600060018201613e6d57613e6d613e1f565b5060010190565b8082028115828204841417610e1557610e15613e1f565b600082613ea857634e487b7160e01b600052601260045260246000fd5b500490565b600060208284031215613ebf57600080fd5b81518015158114610baa57600080fd5b60008251613ee1818460208701613c79565b919091019291505056fe360894a13ba1a3210667c828492db98dca3e2076cc3735a920a3ca505d382bbccd5ed15c6e187e77e9aee88184c21f4f2182ab5827cb3b7e07fbedcd63f033009b779b17422d0df92223018b32b4d1fa46e071723d6817e2486d003becc55f00a26469706673582212208c512e3d66e051cbcee5396187700cac3b097c58314d9196717eeb1dd3cccac764736f6c63430008140033",
  "linkReferences": {},
  "deployedLinkReferences": {}
}