{
  "_format": "hh-sol-artifact-1",
  "contractName": "JavMarket",
  "sourceName": "contracts/JavMarket.sol",
  "abi": [
    {
      "inputs": [],
      "stateMutability": "nonpayable",
      "type": "constructor"
    },
    {
      "inputs": [
        {
          "internalType": "address",
          "name": "target",
          "type": "address"
        }
      ],
      "name": "AddressEmptyCode",
      "type": "error"
    },
    {
      "inputs": [
        {
          "internalType": "address",
          "name": "account",
          "type": "address"
        }
      ],
      "name": "AddressInsufficientBalance",
      "type": "error"
    },
    {
      "inputs": [
        {
          "internalType": "address",
          "name": "implementation",
          "type": "address"
        }
      ],
      "name": "ERC1967InvalidImplementation",
      "type": "error"
    },
    {
      "inputs": [],
      "name": "ERC1967NonPayable",
      "type": "error"
    },
    {
      "inputs": [],
      "name": "EnforcedPause",
      "type": "error"
    },
    {
      "inputs": [],
      "name": "ExpectedPause",
      "type": "error"
    },
    {
      "inputs": [],
      "name": "FailedInnerCall",
      "type": "error"
    },
    {
      "inputs": [],
      "name": "InvalidInitialization",
      "type": "error"
    },
    {
      "inputs": [],
      "name": "NotInitializing",
      "type": "error"
    },
    {
      "inputs": [
        {
          "internalType": "address",
          "name": "owner",
          "type": "address"
        }
      ],
      "name": "OwnableInvalidOwner",
      "type": "error"
    },
    {
      "inputs": [
        {
          "internalType": "address",
          "name": "account",
          "type": "address"
        }
      ],
      "name": "OwnableUnauthorizedAccount",
      "type": "error"
    },
    {
      "inputs": [],
      "name": "ReentrancyGuardReentrantCall",
      "type": "error"
    },
    {
      "inputs": [
        {
          "internalType": "address",
          "name": "token",
          "type": "address"
        }
      ],
      "name": "SafeERC20FailedOperation",
      "type": "error"
    },
    {
      "inputs": [],
      "name": "UUPSUnauthorizedCallContext",
      "type": "error"
    },
    {
      "inputs": [
        {
          "internalType": "bytes32",
          "name": "slot",
          "type": "bytes32"
        }
      ],
      "name": "UUPSUnsupportedProxiableUUID",
      "type": "error"
    },
    {
      "anonymous": false,
      "inputs": [
        {
          "indexed": true,
          "internalType": "address",
          "name": "_address",
          "type": "address"
        }
      ],
      "name": "AddBotAddress",
      "type": "event"
    },
    {
      "anonymous": false,
      "inputs": [
        {
          "indexed": true,
          "internalType": "address",
          "name": "_address",
          "type": "address"
        }
      ],
      "name": "AddToken",
      "type": "event"
    },
    {
      "anonymous": false,
      "inputs": [
        {
          "indexed": false,
          "internalType": "uint64",
          "name": "version",
          "type": "uint64"
        }
      ],
      "name": "Initialized",
      "type": "event"
    },
    {
      "anonymous": false,
      "inputs": [
        {
          "indexed": true,
          "internalType": "address",
          "name": "executor",
          "type": "address"
        },
        {
          "indexed": false,
          "internalType": "uint256",
          "name": "at",
          "type": "uint256"
        }
      ],
      "name": "Initialized",
      "type": "event"
    },
    {
      "anonymous": false,
      "inputs": [
        {
          "indexed": true,
          "internalType": "uint256",
          "name": "_id",
          "type": "uint256"
        },
        {
          "indexed": true,
          "internalType": "address",
          "name": "_address",
          "type": "address"
        },
        {
          "indexed": false,
          "internalType": "uint256",
          "name": "_amount",
          "type": "uint256"
        },
        {
          "indexed": false,
          "internalType": "uint256",
          "name": "_receiveAmount",
          "type": "uint256"
        },
        {
          "indexed": false,
          "internalType": "string",
          "name": "_tokenId",
          "type": "string"
        },
        {
          "indexed": false,
          "internalType": "uint8",
          "name": "_buyingType",
          "type": "uint8"
        },
        {
          "indexed": false,
          "internalType": "bool",
          "name": "_isBuy",
          "type": "bool"
        },
        {
          "indexed": false,
          "internalType": "uint256",
          "name": "_price",
          "type": "uint256"
        },
        {
          "indexed": false,
          "internalType": "string",
          "name": "_tokenName",
          "type": "string"
        },
        {
          "indexed": false,
          "internalType": "enum JavMarket.OrderStatus",
          "name": "_status",
          "type": "uint8"
        }
      ],
      "name": "OrderExecuted",
      "type": "event"
    },
    {
      "anonymous": false,
      "inputs": [
        {
          "indexed": true,
          "internalType": "address",
          "name": "previousOwner",
          "type": "address"
        },
        {
          "indexed": true,
          "internalType": "address",
          "name": "newOwner",
          "type": "address"
        }
      ],
      "name": "OwnershipTransferred",
      "type": "event"
    },
    {
      "anonymous": false,
      "inputs": [
        {
          "indexed": false,
          "internalType": "address",
          "name": "account",
          "type": "address"
        }
      ],
      "name": "Paused",
      "type": "event"
    },
    {
      "anonymous": false,
      "inputs": [
        {
          "indexed": true,
          "internalType": "address",
          "name": "_address",
          "type": "address"
        }
      ],
      "name": "RemoveBotAddress",
      "type": "event"
    },
    {
      "anonymous": false,
      "inputs": [
        {
          "indexed": true,
          "internalType": "address",
          "name": "_address",
          "type": "address"
        }
      ],
      "name": "RemoveToken",
      "type": "event"
    },
    {
      "anonymous": false,
      "inputs": [
        {
          "indexed": true,
          "internalType": "address",
          "name": "_address",
          "type": "address"
        }
      ],
      "name": "SetAdminAddress",
      "type": "event"
    },
    {
      "anonymous": false,
      "inputs": [
        {
          "indexed": true,
          "internalType": "address",
          "name": "_address",
          "type": "address"
        }
      ],
      "name": "SetBotAddress",
      "type": "event"
    },
    {
      "anonymous": false,
      "inputs": [
        {
          "indexed": true,
          "internalType": "uint256",
          "name": "_fee",
          "type": "uint256"
        }
      ],
      "name": "SetFee",
      "type": "event"
    },
    {
      "anonymous": false,
      "inputs": [
        {
          "indexed": true,
          "internalType": "address",
          "name": "_address",
          "type": "address"
        }
      ],
      "name": "SetTreasuryAddress",
      "type": "event"
    },
    {
      "anonymous": false,
      "inputs": [
        {
          "indexed": false,
          "internalType": "address",
          "name": "account",
          "type": "address"
        }
      ],
      "name": "Unpaused",
      "type": "event"
    },
    {
      "anonymous": false,
      "inputs": [
        {
          "indexed": true,
          "internalType": "address",
          "name": "implementation",
          "type": "address"
        }
      ],
      "name": "Upgraded",
      "type": "event"
    },
    {
      "anonymous": false,
      "inputs": [
        {
          "indexed": true,
          "internalType": "uint256",
          "name": "_tokenId",
          "type": "uint256"
        },
        {
          "indexed": true,
          "internalType": "address",
          "name": "_to",
          "type": "address"
        },
        {
          "indexed": false,
          "internalType": "uint256",
          "name": "_amount",
          "type": "uint256"
        }
      ],
      "name": "Withdraw",
      "type": "event"
    },
    {
      "inputs": [],
      "name": "UPGRADE_INTERFACE_VERSION",
      "outputs": [
        {
          "internalType": "string",
          "name": "",
          "type": "string"
        }
      ],
      "stateMutability": "view",
      "type": "function"
    },
    {
      "inputs": [
        {
          "internalType": "address",
          "name": "_address",
          "type": "address"
        }
      ],
      "name": "addBotAddress",
      "outputs": [],
      "stateMutability": "nonpayable",
      "type": "function"
    },
    {
      "inputs": [
        {
          "internalType": "address",
          "name": "_address",
          "type": "address"
        }
      ],
      "name": "addToken",
      "outputs": [],
      "stateMutability": "nonpayable",
      "type": "function"
    },
    {
      "inputs": [],
      "name": "adminAddress",
      "outputs": [
        {
          "internalType": "address",
          "name": "",
          "type": "address"
        }
      ],
      "stateMutability": "view",
      "type": "function"
    },
    {
      "inputs": [],
      "name": "botAddress",
      "outputs": [
        {
          "internalType": "address",
          "name": "",
          "type": "address"
        }
      ],
      "stateMutability": "view",
      "type": "function"
    },
    {
      "inputs": [
        {
          "components": [
            {
              "internalType": "address",
              "name": "userAddress",
              "type": "address"
            },
            {
              "internalType": "string",
              "name": "tokenId",
              "type": "string"
            },
            {
              "internalType": "string",
              "name": "tokenName",
              "type": "string"
            },
            {
              "internalType": "uint128",
              "name": "id",
              "type": "uint128"
            },
            {
              "internalType": "uint128",
              "name": "tradeTokenId",
              "type": "uint128"
            },
            {
              "internalType": "uint8",
              "name": "buyingType",
              "type": "uint8"
            },
            {
              "internalType": "uint256",
              "name": "amount",
              "type": "uint256"
            },
            {
              "internalType": "uint256",
              "name": "price",
              "type": "uint256"
            },
            {
              "internalType": "uint256",
              "name": "receiveAmount",
              "type": "uint256"
            },
            {
              "internalType": "bool",
              "name": "isBuy",
              "type": "bool"
            }
          ],
          "internalType": "struct JavMarket.OrderExecutedInfo[]",
          "name": "_orderExecutedInfo",
          "type": "tuple[]"
        }
      ],
      "name": "emitOrderExecuted",
      "outputs": [],
      "stateMutability": "nonpayable",
      "type": "function"
    },
    {
      "inputs": [],
      "name": "fee",
      "outputs": [
        {
          "internalType": "uint256",
          "name": "",
          "type": "uint256"
        }
      ],
      "stateMutability": "view",
      "type": "function"
    },
    {
      "inputs": [],
      "name": "getBotsAddresses",
      "outputs": [
        {
          "internalType": "address[]",
          "name": "",
          "type": "address[]"
        }
      ],
      "stateMutability": "view",
      "type": "function"
    },
    {
      "inputs": [],
      "name": "getOpenOrders",
      "outputs": [
        {
          "internalType": "uint256[]",
          "name": "",
          "type": "uint256[]"
        }
      ],
      "stateMutability": "view",
      "type": "function"
    },
    {
      "inputs": [],
      "name": "getTokens",
      "outputs": [
        {
          "internalType": "address[]",
          "name": "",
          "type": "address[]"
        }
      ],
      "stateMutability": "view",
      "type": "function"
    },
    {
      "inputs": [
        {
          "internalType": "address[]",
          "name": "_tokensAddresses",
          "type": "address[]"
        },
        {
          "internalType": "address",
          "name": "_botAddress",
          "type": "address"
        },
        {
          "internalType": "address",
          "name": "_treasuryAddress",
          "type": "address"
        },
        {
          "internalType": "uint256",
          "name": "_fee",
          "type": "uint256"
        }
      ],
      "name": "initialize",
      "outputs": [],
      "stateMutability": "nonpayable",
      "type": "function"
    },
    {
      "inputs": [],
      "name": "owner",
      "outputs": [
        {
          "internalType": "address",
          "name": "",
          "type": "address"
        }
      ],
      "stateMutability": "view",
      "type": "function"
    },
    {
      "inputs": [],
      "name": "pause",
      "outputs": [],
      "stateMutability": "nonpayable",
      "type": "function"
    },
    {
      "inputs": [],
      "name": "paused",
      "outputs": [
        {
          "internalType": "bool",
          "name": "",
          "type": "bool"
        }
      ],
      "stateMutability": "view",
      "type": "function"
    },
    {
      "inputs": [],
      "name": "proxiableUUID",
      "outputs": [
        {
          "internalType": "bytes32",
          "name": "",
          "type": "bytes32"
        }
      ],
      "stateMutability": "view",
      "type": "function"
    },
    {
      "inputs": [
        {
          "internalType": "address",
          "name": "_address",
          "type": "address"
        }
      ],
      "name": "removeBotAddress",
      "outputs": [],
      "stateMutability": "nonpayable",
      "type": "function"
    },
    {
      "inputs": [
        {
          "internalType": "address",
          "name": "_address",
          "type": "address"
        }
      ],
      "name": "removeToken",
      "outputs": [],
      "stateMutability": "nonpayable",
      "type": "function"
    },
    {
      "inputs": [],
      "name": "renounceOwnership",
      "outputs": [],
      "stateMutability": "nonpayable",
      "type": "function"
    },
    {
      "inputs": [
        {
          "internalType": "address",
          "name": "_address",
          "type": "address"
        }
      ],
      "name": "setAdminAddress",
      "outputs": [],
      "stateMutability": "nonpayable",
      "type": "function"
    },
    {
      "inputs": [
        {
          "internalType": "uint256",
          "name": "_fee",
          "type": "uint256"
        }
      ],
      "name": "setFee",
      "outputs": [],
      "stateMutability": "nonpayable",
      "type": "function"
    },
    {
      "inputs": [
        {
          "internalType": "address",
          "name": "_address",
          "type": "address"
        }
      ],
      "name": "setTreasuryAddress",
      "outputs": [],
      "stateMutability": "nonpayable",
      "type": "function"
    },
    {
      "inputs": [],
      "name": "totalAmount",
      "outputs": [
        {
          "internalType": "uint256",
          "name": "",
          "type": "uint256"
        }
      ],
      "stateMutability": "view",
      "type": "function"
    },
    {
      "inputs": [],
      "name": "totalOrders",
      "outputs": [
        {
          "internalType": "uint256",
          "name": "",
          "type": "uint256"
        }
      ],
      "stateMutability": "view",
      "type": "function"
    },
    {
      "inputs": [
        {
          "internalType": "uint256",
          "name": "_tradeTokenId",
          "type": "uint256"
        },
        {
          "internalType": "uint256",
          "name": "_amount",
          "type": "uint256"
        },
        {
          "internalType": "string",
          "name": "_tokenId",
          "type": "string"
        },
        {
          "internalType": "uint8",
          "name": "_buyingType",
          "type": "uint8"
        },
        {
          "internalType": "bool",
          "name": "_isBuy",
          "type": "bool"
        },
        {
          "internalType": "uint256",
          "name": "_price",
          "type": "uint256"
        }
      ],
      "name": "tradeToken",
      "outputs": [],
      "stateMutability": "nonpayable",
      "type": "function"
    },
    {
      "inputs": [
        {
          "internalType": "address",
          "name": "newOwner",
          "type": "address"
        }
      ],
      "name": "transferOwnership",
      "outputs": [],
      "stateMutability": "nonpayable",
      "type": "function"
    },
    {
      "inputs": [],
      "name": "treasuryAddress",
      "outputs": [
        {
          "internalType": "address",
          "name": "",
          "type": "address"
        }
      ],
      "stateMutability": "view",
      "type": "function"
    },
    {
      "inputs": [],
      "name": "unpause",
      "outputs": [],
      "stateMutability": "nonpayable",
      "type": "function"
    },
    {
      "inputs": [
        {
          "internalType": "address",
          "name": "newImplementation",
          "type": "address"
        },
        {
          "internalType": "bytes",
          "name": "data",
          "type": "bytes"
        }
      ],
      "name": "upgradeToAndCall",
      "outputs": [],
      "stateMutability": "payable",
      "type": "function"
    },
    {
      "inputs": [
        {
          "internalType": "uint256",
          "name": "_tokenId",
          "type": "uint256"
        },
        {
          "internalType": "uint256",
          "name": "_amount",
          "type": "uint256"
        },
        {
          "internalType": "address",
          "name": "_withdrawAddress",
          "type": "address"
        }
      ],
      "name": "withdraw",
      "outputs": [],
      "stateMutability": "nonpayable",
      "type": "function"
    }
  ],
  "bytecode": "0x60a0604052306080523480156200001557600080fd5b506200002062000026565b620000da565b7ff0c57e16840df040f15088dc2f81fe391c3923bec73e23a9662efc9c229c6a00805468010000000000000000900460ff1615620000775760405163f92ee8a960e01b815260040160405180910390fd5b80546001600160401b0390811614620000d75780546001600160401b0319166001600160401b0390811782556040519081527fc7f505b2f371ae2175ee4913f4499e1f2633a7b5936321eed1cdaeb6115181d29060200160405180910390a15b50565b6080516126dd62000104600039600081816114440152818161146d01526115ae01526126dd6000f3fe6080604052600436106101c25760003560e01c80637fad46f2116100f7578063c5f956af11610095578063e39d98f111610064578063e39d98f1146104d9578063e41765de146104f9578063f2fde38b14610519578063fc6f94681461053957600080fd5b8063c5f956af14610461578063d48bfca714610481578063dbe5bab5146104a1578063ddca3f43146104c357600080fd5b80639f6dee67116100d15780639f6dee67146103ce578063aa6ca808146103ee578063ad3cb1cc14610403578063c31f35371461044157600080fd5b80637fad46f2146103845780638456cb59146103a45780638da5cb5b146103b957600080fd5b80634f1ef286116101645780635fa7b5841161013e5780635fa7b5841461030f5780636605bfda1461032f57806369fe0e2d1461034f578063715018a61461036f57600080fd5b80634f1ef286146102b757806352d1902d146102ca5780635c975abb146102df57600080fd5b80632c1e816d116101a05780632c1e816d146102285780633f4ba83a1461024857806344e82a111461025d5780634bf4f4231461027f57600080fd5b80630ad58d2f146101c75780631a39d8ef146101e95780631d83440914610212575b600080fd5b3480156101d357600080fd5b506101e76101e2366004611e29565b610559565b005b3480156101f557600080fd5b506101ff603a5481565b6040519081526020015b60405180910390f35b34801561021e57600080fd5b506101ff60395481565b34801561023457600080fd5b506101e7610243366004611e5e565b610727565b34801561025457600080fd5b506101e76107bc565b34801561026957600080fd5b50610272610813565b6040516102099190611e79565b34801561028b57600080fd5b5060375461029f906001600160a01b031681565b6040516001600160a01b039091168152602001610209565b6101e76102c5366004611f8f565b610824565b3480156102d657600080fd5b506101ff610843565b3480156102eb57600080fd5b506000805160206126888339815191525460ff166040519015158152602001610209565b34801561031b57600080fd5b506101e761032a366004611e5e565b610860565b34801561033b57600080fd5b506101e761034a366004611e5e565b6108f0565b34801561035b57600080fd5b506101e761036a366004611ff1565b610987565b34801561037b57600080fd5b506101e7610a06565b34801561039057600080fd5b506101e761039f36600461202e565b610a18565b3480156103b057600080fd5b506101e7610ba9565b3480156103c557600080fd5b5061029f610bfe565b3480156103da57600080fd5b506101e76103e936600461211f565b610c2c565b3480156103fa57600080fd5b50610272610e7d565b34801561040f57600080fd5b50610434604051806040016040528060058152602001640352e302e360dc1b81525081565b6040516102099190612220565b34801561044d57600080fd5b506101e761045c366004611e5e565b610e89565b34801561046d57600080fd5b5060385461029f906001600160a01b031681565b34801561048d57600080fd5b506101e761049c366004611e5e565b610f19565b3480156104ad57600080fd5b506104b6610fa9565b6040516102099190612233565b3480156104cf57600080fd5b506101ff603b5481565b3480156104e557600080fd5b506101e76104f43660046122a2565b610fb5565b34801561050557600080fd5b506101e7610514366004611e5e565b611259565b34801561052557600080fd5b506101e7610534366004611e5e565b6112e9565b34801561054557600080fd5b5060005461029f906001600160a01b031681565b82806105656035611327565b116105b75760405162461bcd60e51b815260206004820152601b60248201527f4a61764d61726b65743a20696e76616c696420746f6b656e206964000000000060448201526064015b60405180910390fd5b6105c2603c33611337565b6106045760405162461bcd60e51b815260206004820152601360248201527212985d93585c9ad95d0e881bdb9b1e48189bdd606a1b60448201526064016105ae565b600061061160358661135c565b6040516370a0823160e01b815230600482015290915084906001600160a01b038316906370a0823190602401602060405180830381865afa15801561065a573d6000803e3d6000fd5b505050506040513d601f19601f8201168201806040525081019061067e919061242a565b10156106c85760405162461bcd60e51b815260206004820152601960248201527812985d93585c9ad95d0e881a5b9d985b1a5908185b5bdd5b9d603a1b60448201526064016105ae565b6106dc6001600160a01b0382168486611368565b826001600160a01b0316857f9da6493a92039daf47d1f2d7a782299c5994c6323eb1e972f69c432089ec52bf8660405161071891815260200190565b60405180910390a35050505050565b6000546001600160a01b03163314806107585750610743610bfe565b6001600160a01b0316336001600160a01b0316145b6107745760405162461bcd60e51b81526004016105ae90612443565b600080546001600160a01b0319166001600160a01b038316908117825560405190917f030ff471e8e3d5a26cd9ee887eb024f145aaf27e12cd2f7bdcd14aeb40cf333191a250565b6000546001600160a01b03163314806107ed57506107d8610bfe565b6001600160a01b0316336001600160a01b0316145b6108095760405162461bcd60e51b81526004016105ae90612443565b6108116113cc565b565b606061081f603c61142c565b905090565b61082c611439565b610835826114de565b61083f82826114e6565b5050565b600061084d6115a3565b5060008051602061266883398151915290565b6000546001600160a01b0316331480610891575061087c610bfe565b6001600160a01b0316336001600160a01b0316145b6108ad5760405162461bcd60e51b81526004016105ae90612443565b6108b86035826115ec565b506040516001600160a01b038216907f4eb129c82dcd3eedb52df2b0e6fb4cfa41ac64ee9d63ff081acbb1877e85d79b90600090a250565b6000546001600160a01b0316331480610921575061090c610bfe565b6001600160a01b0316336001600160a01b0316145b61093d5760405162461bcd60e51b81526004016105ae90612443565b603880546001600160a01b0319166001600160a01b0383169081179091556040517feee016301a2725a577c64816adf35ccf644d07439731069a31748ec3b9102c6090600090a250565b6000546001600160a01b03163314806109b857506109a3610bfe565b6001600160a01b0316336001600160a01b0316145b6109d45760405162461bcd60e51b81526004016105ae90612443565b603b81905560405181907e172ddfc5ae88d08b3de01a5a187667c37a5a53989e8c175055cb6c993792a790600090a250565b610a0e611601565b6108116000611633565b7ff0c57e16840df040f15088dc2f81fe391c3923bec73e23a9662efc9c229c6a008054600160401b810460ff16159067ffffffffffffffff16600081158015610a5e5750825b905060008267ffffffffffffffff166001148015610a7b5750303b155b905081158015610a89575080155b15610aa75760405163f92ee8a960e01b815260040160405180910390fd5b845467ffffffffffffffff191660011785558315610ad157845460ff60401b1916600160401b1785555b603880546001600160a01b0319166001600160a01b038916179055603b86905560005b8951811015610b3b57610b2a8a8281518110610b1257610b1261247a565b602002602001015160356116a490919063ffffffff16565b50610b34816124a6565b9050610af4565b50610b47603c896116a4565b50610b506116b9565b610b58611726565b8315610b9e57845460ff60401b19168555604051600181527fc7f505b2f371ae2175ee4913f4499e1f2633a7b5936321eed1cdaeb6115181d29060200160405180910390a15b505050505050505050565b6000546001600160a01b0316331480610bda5750610bc5610bfe565b6001600160a01b0316336001600160a01b0316145b610bf65760405162461bcd60e51b81526004016105ae90612443565b610811611736565b7f9016d09d72d40fdae2fd8ceac6b6234c7706214fd39c1cd1e609a0528c199300546001600160a01b031690565b610c3461177f565b610c3c6117b0565b8680610c486035611327565b11610c955760405162461bcd60e51b815260206004820152601b60248201527f4a61764d61726b65743a20696e76616c696420746f6b656e206964000000000060448201526064016105ae565b6000610ca260358a61135c565b6040516370a0823160e01b815233600482015290915088906001600160a01b038316906370a0823190602401602060405180830381865afa158015610ceb573d6000803e3d6000fd5b505050506040513d601f19601f82011682018060405250810190610d0f919061242a565b1015610d595760405162461bcd60e51b815260206004820152601960248201527812985d93585c9ad95d0e881a5b9d985b1a5908185b5bdd5b9d603a1b60448201526064016105ae565b60006103e8603b548a610d6c91906124bf565b610d7691906124d6565b90506000610d84828b6124f8565b905080603a6000828254610d98919061250b565b909155505060398054906000610dad836124a6565b9091555050603854610dce906001600160a01b0385811691339116856117fa565b610de36001600160a01b0384163330846117fa565b603954610df290603390611839565b50336001600160a01b03166039547f0a5ffeab71c029359cf0456efae280dc3b2610fa0126c450baf2dfba3eb369d08360008d8d8d8d8d6000604051610e3f989796959493929190612540565b60405180910390a350505050610e7460017f9b779b17422d0df92223018b32b4d1fa46e071723d6817e2486d003becc55f0055565b50505050505050565b606061081f603561142c565b6000546001600160a01b0316331480610eba5750610ea5610bfe565b6001600160a01b0316336001600160a01b0316145b610ed65760405162461bcd60e51b81526004016105ae90612443565b610ee1603c826115ec565b506040516001600160a01b038216907f063b75f31173405e3368ee31dcd46f9fcad55506fe60df52822ea3de911250ca90600090a250565b6000546001600160a01b0316331480610f4a5750610f35610bfe565b6001600160a01b0316336001600160a01b0316145b610f665760405162461bcd60e51b81526004016105ae90612443565b610f716035826116a4565b506040516001600160a01b038216907fe473c74f34be27c1464d6624f14a0d7fd4e301cbfa29c3eba425d378c8a7ebe090600090a250565b606061081f603361142c565b610fc0603c33611337565b6110025760405162461bcd60e51b815260206004820152601360248201527212985d93585c9ad95d0e881bdb9b1e48189bdd606a1b60448201526064016105ae565b60005b815181101561083f576110488282815181106110235761102361247a565b6020026020010151606001516001600160801b0316603361186b90919063ffffffff16565b6110ad5760405162461bcd60e51b815260206004820152603060248201527f4a61764d61726b65743a206f7264657220616c7265616479206578656375746560448201526f19081bdc881b9bdd0818dc99585d195960821b60648201526084016105ae565b6110e78282815181106110c2576110c261247a565b6020026020010151606001516001600160801b0316603361188390919063ffffffff16565b508181815181106110fa576110fa61247a565b6020026020010151600001516001600160a01b03168282815181106111215761112161247a565b6020026020010151606001516001600160801b03167f0a5ffeab71c029359cf0456efae280dc3b2610fa0126c450baf2dfba3eb369d08484815181106111695761116961247a565b602002602001015160c001518585815181106111875761118761247a565b602002602001015161010001518686815181106111a6576111a661247a565b6020026020010151602001518787815181106111c4576111c461247a565b602002602001015160a001518888815181106111e2576111e261247a565b602002602001015161012001518989815181106112015761120161247a565b602002602001015160e001518a8a8151811061121f5761121f61247a565b60200260200101516040015160016040516112419897969594939291906125bd565b60405180910390a3611252816124a6565b9050611005565b6000546001600160a01b031633148061128a5750611275610bfe565b6001600160a01b0316336001600160a01b0316145b6112a65760405162461bcd60e51b81526004016105ae90612443565b6112b1603c826116a4565b506040516001600160a01b038216907f740abab4fbb839e2d91ef17f9d4457b7c73c0923b94db70c82b2d235fc9acbba90600090a250565b6112f1611601565b6001600160a01b03811661131b57604051631e4fbdf760e01b8152600060048201526024016105ae565b61132481611633565b50565b6000611331825490565b92915050565b6001600160a01b038116600090815260018301602052604081205415155b9392505050565b6000611355838361188f565b6040516001600160a01b038381166024830152604482018390526113c791859182169063a9059cbb906064015b604051602081830303815290604052915060e01b6020820180516001600160e01b0383818316178352505050506118b9565b505050565b6113d461191c565b600080516020612688833981519152805460ff191681557f5db9ee0a495bf2e6ff9c91a7834c1ba4fdd244a5e8aa4e537bd38aeae4b073aa335b6040516001600160a01b03909116815260200160405180910390a150565b606060006113558361194c565b306001600160a01b037f00000000000000000000000000000000000000000000000000000000000000001614806114c057507f00000000000000000000000000000000000000000000000000000000000000006001600160a01b03166114b4600080516020612668833981519152546001600160a01b031690565b6001600160a01b031614155b156108115760405163703e46dd60e11b815260040160405180910390fd5b611324611601565b816001600160a01b03166352d1902d6040518163ffffffff1660e01b8152600401602060405180830381865afa925050508015611540575060408051601f3d908101601f1916820190925261153d9181019061242a565b60015b61156857604051634c9c8ce360e01b81526001600160a01b03831660048201526024016105ae565b600080516020612668833981519152811461159957604051632a87526960e21b8152600481018290526024016105ae565b6113c783836119a8565b306001600160a01b037f000000000000000000000000000000000000000000000000000000000000000016146108115760405163703e46dd60e11b815260040160405180910390fd5b6000611355836001600160a01b0384166119fe565b3361160a610bfe565b6001600160a01b0316146108115760405163118cdaa760e01b81523360048201526024016105ae565b7f9016d09d72d40fdae2fd8ceac6b6234c7706214fd39c1cd1e609a0528c19930080546001600160a01b031981166001600160a01b03848116918217845560405192169182907f8be0079c531659141344cd1fd0a4f28419497f9722a3daafe3b4186f6b6457e090600090a3505050565b6000611355836001600160a01b038416611af1565b6116c1611b40565b600080546001600160a01b031916339081179091556116df90611b89565b6116e7611b9a565b6116ef611baa565b60405143815233907f25ff68dd81b34665b5ba7e553ee5511bf6812e12adb4a7e2c0d9e26b3099ce799060200160405180910390a2565b61172e611b40565b610811611bb2565b61173e61177f565b600080516020612688833981519152805460ff191660011781557f62e78cea01bee320cd4e420270b5ea74000d11b0c9f74754ebdbfc544b05a2583361140e565b6000805160206126888339815191525460ff16156108115760405163d93c066560e01b815260040160405180910390fd5b7f9b779b17422d0df92223018b32b4d1fa46e071723d6817e2486d003becc55f008054600119016117f457604051633ee5aeb560e01b815260040160405180910390fd5b60029055565b6040516001600160a01b0384811660248301528381166044830152606482018390526118339186918216906323b872dd90608401611395565b50505050565b60006113558383611af1565b60017f9b779b17422d0df92223018b32b4d1fa46e071723d6817e2486d003becc55f0055565b60008181526001830160205260408120541515611355565b600061135583836119fe565b60008260000182815481106118a6576118a661247a565b9060005260206000200154905092915050565b60006118ce6001600160a01b03841683611bba565b905080516000141580156118f35750808060200190518101906118f19190612618565b155b156113c757604051635274afe760e01b81526001600160a01b03841660048201526024016105ae565b6000805160206126888339815191525460ff1661081157604051638dfc202b60e01b815260040160405180910390fd5b60608160000180548060200260200160405190810160405280929190818152602001828054801561199c57602002820191906000526020600020905b815481526020019060010190808311611988575b50505050509050919050565b6119b182611bc8565b6040516001600160a01b038316907fbc7cd75a20ee27fd9adebab32041f755214dbc6bffa90cc0225b39da2e5c2d3b90600090a28051156119f6576113c78282611c2d565b61083f611ca3565b60008181526001830160205260408120548015611ae7576000611a226001836124f8565b8554909150600090611a36906001906124f8565b9050808214611a9b576000866000018281548110611a5657611a5661247a565b9060005260206000200154905080876000018481548110611a7957611a7961247a565b6000918252602080832090910192909255918252600188019052604090208390555b8554869080611aac57611aac612635565b600190038181906000526020600020016000905590558560010160008681526020019081526020016000206000905560019350505050611331565b6000915050611331565b6000818152600183016020526040812054611b3857508154600181810184556000848152602080822090930184905584548482528286019093526040902091909155611331565b506000611331565b7ff0c57e16840df040f15088dc2f81fe391c3923bec73e23a9662efc9c229c6a0054600160401b900460ff1661081157604051631afcd79f60e31b815260040160405180910390fd5b611b91611b40565b61132481611cc2565b611ba2611b40565b610811611cca565b610811611b40565b611845611b40565b606061135583836000611ceb565b806001600160a01b03163b600003611bfe57604051634c9c8ce360e01b81526001600160a01b03821660048201526024016105ae565b60008051602061266883398151915280546001600160a01b0319166001600160a01b0392909216919091179055565b6060600080846001600160a01b031684604051611c4a919061264b565b600060405180830381855af49150503d8060008114611c85576040519150601f19603f3d011682016040523d82523d6000602084013e611c8a565b606091505b5091509150611c9a858383611d88565b95945050505050565b34156108115760405163b398979f60e01b815260040160405180910390fd5b6112f1611b40565b611cd2611b40565b600080516020612688833981519152805460ff19169055565b606081471015611d105760405163cd78605960e01b81523060048201526024016105ae565b600080856001600160a01b03168486604051611d2c919061264b565b60006040518083038185875af1925050503d8060008114611d69576040519150601f19603f3d011682016040523d82523d6000602084013e611d6e565b606091505b5091509150611d7e868383611d88565b9695505050505050565b606082611d9d57611d9882611de4565b611355565b8151158015611db457506001600160a01b0384163b155b15611ddd57604051639996b31560e01b81526001600160a01b03851660048201526024016105ae565b5080611355565b805115611df45780518082602001fd5b604051630a12f52160e11b815260040160405180910390fd5b80356001600160a01b0381168114611e2457600080fd5b919050565b600080600060608486031215611e3e57600080fd5b8335925060208401359150611e5560408501611e0d565b90509250925092565b600060208284031215611e7057600080fd5b61135582611e0d565b6020808252825182820181905260009190848201906040850190845b81811015611eba5783516001600160a01b031683529284019291840191600101611e95565b50909695505050505050565b634e487b7160e01b600052604160045260246000fd5b604051610140810167ffffffffffffffff81118282101715611f0057611f00611ec6565b60405290565b604051601f8201601f1916810167ffffffffffffffff81118282101715611f2f57611f2f611ec6565b604052919050565b600067ffffffffffffffff831115611f5157611f51611ec6565b611f64601f8401601f1916602001611f06565b9050828152838383011115611f7857600080fd5b828260208301376000602084830101529392505050565b60008060408385031215611fa257600080fd5b611fab83611e0d565b9150602083013567ffffffffffffffff811115611fc757600080fd5b8301601f81018513611fd857600080fd5b611fe785823560208401611f37565b9150509250929050565b60006020828403121561200357600080fd5b5035919050565b600067ffffffffffffffff82111561202457612024611ec6565b5060051b60200190565b6000806000806080858703121561204457600080fd5b843567ffffffffffffffff81111561205b57600080fd5b8501601f8101871361206c57600080fd5b8035602061208161207c8361200a565b611f06565b82815260059290921b8301810191818101908a8411156120a057600080fd5b938201935b838510156120c5576120b685611e0d565b825293820193908201906120a5565b97506120d49050888201611e0d565b95505050506120e560408601611e0d565b9396929550929360600135925050565b803560ff81168114611e2457600080fd5b801515811461132457600080fd5b8035611e2481612106565b600080600080600080600060c0888a03121561213a57600080fd5b8735965060208801359550604088013567ffffffffffffffff8082111561216057600080fd5b818a0191508a601f83011261217457600080fd5b81358181111561218357600080fd5b8b602082850101111561219557600080fd5b6020830197508096505050506121ad606089016120f5565b92506121bb60808901612114565b915060a0880135905092959891949750929550565b60005b838110156121eb5781810151838201526020016121d3565b50506000910152565b6000815180845261220c8160208601602086016121d0565b601f01601f19169290920160200192915050565b60208152600061135560208301846121f4565b6020808252825182820181905260009190848201906040850190845b81811015611eba5783518352928401929184019160010161224f565b600082601f83011261227c57600080fd5b61135583833560208501611f37565b80356001600160801b0381168114611e2457600080fd5b600060208083850312156122b557600080fd5b823567ffffffffffffffff808211156122cd57600080fd5b818501915085601f8301126122e157600080fd5b81356122ef61207c8261200a565b81815260059190911b8301840190848101908883111561230e57600080fd5b8585015b8381101561241d5780358581111561232957600080fd5b8601610140818c03601f190181131561234157600080fd5b612349611edc565b6123548a8401611e0d565b81526040830135888111156123695760008081fd5b6123778e8c8387010161226b565b8b83015250606080840135898111156123905760008081fd5b61239e8f8d8388010161226b565b60408401525060806123b181860161228b565b8284015260a091506123c482860161228b565b9083015260c06123d58582016120f5565b8284015260e091508185013581840152506101008085013582840152610120915081850135818401525061240a838501612114565b9082015285525050918601918601612312565b5098975050505050505050565b60006020828403121561243c57600080fd5b5051919050565b6020808252601a908201527f4261736555706772616461626c653a206f6e6c792061646d696e000000000000604082015260600190565b634e487b7160e01b600052603260045260246000fd5b634e487b7160e01b600052601160045260246000fd5b6000600182016124b8576124b8612490565b5060010190565b808202811582820484141761133157611331612490565b6000826124f357634e487b7160e01b600052601260045260246000fd5b500490565b8181038181111561133157611331612490565b8082018082111561133157611331612490565b6002811061253c57634e487b7160e01b600052602160045260246000fd5b9052565b60006101008a83528960208401528060408401528781840152506101208789828501376000838901820181905260ff88166060850152861515608085015260a08401869052601f8901601f19168401848103830160c0860152918201526101400190506125b060e083018461251e565b9998505050505050505050565b60006101008a83528960208401528060408401526125dd8184018a6121f4565b905060ff8816606084015286151560808401528560a084015282810360c084015261260881866121f4565b9150506125b060e083018461251e565b60006020828403121561262a57600080fd5b815161135581612106565b634e487b7160e01b600052603160045260246000fd5b6000825161265d8184602087016121d0565b919091019291505056fe360894a13ba1a3210667c828492db98dca3e2076cc3735a920a3ca505d382bbccd5ed15c6e187e77e9aee88184c21f4f2182ab5827cb3b7e07fbedcd63f03300a26469706673582212204c94611a6b8005a80ba19685aeaa8287f4f2fe31f6981034d3f01b7936e2fd9664736f6c63430008140033",
  "linkReferences": {},
  "deployedLinkReferences": {}
}