{
  "_format": "hh-sol-artifact-1",
  "contractName": "JavToken",
  "sourceName": "contracts/JavToken.sol",
  "abi": [
    {
      "inputs": [],
      "stateMutability": "nonpayable",
      "type": "constructor"
    },
    {
      "inputs": [
        {
          "internalType": "address",
          "name": "target",
          "type": "address"
        }
      ],
      "name": "AddressEmptyCode",
      "type": "error"
    },
    {
      "inputs": [
        {
          "internalType": "address",
          "name": "implementation",
          "type": "address"
        }
      ],
      "name": "ERC1967InvalidImplementation",
      "type": "error"
    },
    {
      "inputs": [],
      "name": "ERC1967NonPayable",
      "type": "error"
    },
    {
      "inputs": [
        {
          "internalType": "uint256",
          "name": "increasedSupply",
          "type": "uint256"
        },
        {
          "internalType": "uint256",
          "name": "cap",
          "type": "uint256"
        }
      ],
      "name": "ERC20ExceededCap",
      "type": "error"
    },
    {
      "inputs": [
        {
          "internalType": "address",
          "name": "spender",
          "type": "address"
        },
        {
          "internalType": "uint256",
          "name": "allowance",
          "type": "uint256"
        },
        {
          "internalType": "uint256",
          "name": "needed",
          "type": "uint256"
        }
      ],
      "name": "ERC20InsufficientAllowance",
      "type": "error"
    },
    {
      "inputs": [
        {
          "internalType": "address",
          "name": "sender",
          "type": "address"
        },
        {
          "internalType": "uint256",
          "name": "balance",
          "type": "uint256"
        },
        {
          "internalType": "uint256",
          "name": "needed",
          "type": "uint256"
        }
      ],
      "name": "ERC20InsufficientBalance",
      "type": "error"
    },
    {
      "inputs": [
        {
          "internalType": "address",
          "name": "approver",
          "type": "address"
        }
      ],
      "name": "ERC20InvalidApprover",
      "type": "error"
    },
    {
      "inputs": [
        {
          "internalType": "uint256",
          "name": "cap",
          "type": "uint256"
        }
      ],
      "name": "ERC20InvalidCap",
      "type": "error"
    },
    {
      "inputs": [
        {
          "internalType": "address",
          "name": "receiver",
          "type": "address"
        }
      ],
      "name": "ERC20InvalidReceiver",
      "type": "error"
    },
    {
      "inputs": [
        {
          "internalType": "address",
          "name": "sender",
          "type": "address"
        }
      ],
      "name": "ERC20InvalidSender",
      "type": "error"
    },
    {
      "inputs": [
        {
          "internalType": "address",
          "name": "spender",
          "type": "address"
        }
      ],
      "name": "ERC20InvalidSpender",
      "type": "error"
    },
    {
      "inputs": [],
      "name": "EnforcedPause",
      "type": "error"
    },
    {
      "inputs": [],
      "name": "ExpectedPause",
      "type": "error"
    },
    {
      "inputs": [],
      "name": "FailedInnerCall",
      "type": "error"
    },
    {
      "inputs": [],
      "name": "InvalidInitialization",
      "type": "error"
    },
    {
      "inputs": [],
      "name": "NotInitializing",
      "type": "error"
    },
    {
      "inputs": [
        {
          "internalType": "address",
          "name": "owner",
          "type": "address"
        }
      ],
      "name": "OwnableInvalidOwner",
      "type": "error"
    },
    {
      "inputs": [
        {
          "internalType": "address",
          "name": "account",
          "type": "address"
        }
      ],
      "name": "OwnableUnauthorizedAccount",
      "type": "error"
    },
    {
      "inputs": [],
      "name": "UUPSUnauthorizedCallContext",
      "type": "error"
    },
    {
      "inputs": [
        {
          "internalType": "bytes32",
          "name": "slot",
          "type": "bytes32"
        }
      ],
      "name": "UUPSUnsupportedProxiableUUID",
      "type": "error"
    },
    {
      "anonymous": false,
      "inputs": [
        {
          "indexed": true,
          "internalType": "address",
          "name": "owner",
          "type": "address"
        },
        {
          "indexed": true,
          "internalType": "address",
          "name": "spender",
          "type": "address"
        },
        {
          "indexed": false,
          "internalType": "uint256",
          "name": "value",
          "type": "uint256"
        }
      ],
      "name": "Approval",
      "type": "event"
    },
    {
      "anonymous": false,
      "inputs": [
        {
          "indexed": false,
          "internalType": "uint64",
          "name": "version",
          "type": "uint64"
        }
      ],
      "name": "Initialized",
      "type": "event"
    },
    {
      "anonymous": false,
      "inputs": [
        {
          "indexed": true,
          "internalType": "address",
          "name": "executor",
          "type": "address"
        },
        {
          "indexed": false,
          "internalType": "uint256",
          "name": "at",
          "type": "uint256"
        }
      ],
      "name": "Initialized",
      "type": "event"
    },
    {
      "anonymous": false,
      "inputs": [
        {
          "indexed": true,
          "internalType": "address",
          "name": "previousOwner",
          "type": "address"
        },
        {
          "indexed": true,
          "internalType": "address",
          "name": "newOwner",
          "type": "address"
        }
      ],
      "name": "OwnershipTransferred",
      "type": "event"
    },
    {
      "anonymous": false,
      "inputs": [
        {
          "indexed": false,
          "internalType": "address",
          "name": "account",
          "type": "address"
        }
      ],
      "name": "Paused",
      "type": "event"
    },
    {
      "anonymous": false,
      "inputs": [
        {
          "indexed": true,
          "internalType": "address",
          "name": "_address",
          "type": "address"
        }
      ],
      "name": "SetAdminAddress",
      "type": "event"
    },
    {
      "anonymous": false,
      "inputs": [
        {
          "indexed": true,
          "internalType": "address",
          "name": "from",
          "type": "address"
        },
        {
          "indexed": true,
          "internalType": "address",
          "name": "to",
          "type": "address"
        },
        {
          "indexed": false,
          "internalType": "uint256",
          "name": "value",
          "type": "uint256"
        }
      ],
      "name": "Transfer",
      "type": "event"
    },
    {
      "anonymous": false,
      "inputs": [
        {
          "indexed": false,
          "internalType": "address",
          "name": "account",
          "type": "address"
        }
      ],
      "name": "Unpaused",
      "type": "event"
    },
    {
      "anonymous": false,
      "inputs": [
        {
          "indexed": true,
          "internalType": "address",
          "name": "implementation",
          "type": "address"
        }
      ],
      "name": "Upgraded",
      "type": "event"
    },
    {
      "inputs": [],
      "name": "UPGRADE_INTERFACE_VERSION",
      "outputs": [
        {
          "internalType": "string",
          "name": "",
          "type": "string"
        }
      ],
      "stateMutability": "view",
      "type": "function"
    },
    {
      "inputs": [],
      "name": "adminAddress",
      "outputs": [
        {
          "internalType": "address",
          "name": "",
          "type": "address"
        }
      ],
      "stateMutability": "view",
      "type": "function"
    },
    {
      "inputs": [
        {
          "internalType": "address",
          "name": "owner",
          "type": "address"
        },
        {
          "internalType": "address",
          "name": "spender",
          "type": "address"
        }
      ],
      "name": "allowance",
      "outputs": [
        {
          "internalType": "uint256",
          "name": "",
          "type": "uint256"
        }
      ],
      "stateMutability": "view",
      "type": "function"
    },
    {
      "inputs": [
        {
          "internalType": "address",
          "name": "spender",
          "type": "address"
        },
        {
          "internalType": "uint256",
          "name": "value",
          "type": "uint256"
        }
      ],
      "name": "approve",
      "outputs": [
        {
          "internalType": "bool",
          "name": "",
          "type": "bool"
        }
      ],
      "stateMutability": "nonpayable",
      "type": "function"
    },
    {
      "inputs": [
        {
          "internalType": "address",
          "name": "account",
          "type": "address"
        }
      ],
      "name": "balanceOf",
      "outputs": [
        {
          "internalType": "uint256",
          "name": "",
          "type": "uint256"
        }
      ],
      "stateMutability": "view",
      "type": "function"
    },
    {
      "inputs": [
        {
          "internalType": "uint256",
          "name": "value",
          "type": "uint256"
        }
      ],
      "name": "burn",
      "outputs": [],
      "stateMutability": "nonpayable",
      "type": "function"
    },
    {
      "inputs": [
        {
          "internalType": "address",
          "name": "account",
          "type": "address"
        },
        {
          "internalType": "uint256",
          "name": "value",
          "type": "uint256"
        }
      ],
      "name": "burnFrom",
      "outputs": [],
      "stateMutability": "nonpayable",
      "type": "function"
    },
    {
      "inputs": [],
      "name": "cap",
      "outputs": [
        {
          "internalType": "uint256",
          "name": "",
          "type": "uint256"
        }
      ],
      "stateMutability": "view",
      "type": "function"
    },
    {
      "inputs": [],
      "name": "decimals",
      "outputs": [
        {
          "internalType": "uint8",
          "name": "",
          "type": "uint8"
        }
      ],
      "stateMutability": "view",
      "type": "function"
    },
    {
      "inputs": [
        {
          "internalType": "uint256",
          "name": "_cap",
          "type": "uint256"
        }
      ],
      "name": "initialize",
      "outputs": [],
      "stateMutability": "nonpayable",
      "type": "function"
    },
    {
      "inputs": [
        {
          "internalType": "address",
          "name": "account",
          "type": "address"
        },
        {
          "internalType": "uint256",
          "name": "amount",
          "type": "uint256"
        }
      ],
      "name": "mint",
      "outputs": [],
      "stateMutability": "nonpayable",
      "type": "function"
    },
    {
      "inputs": [],
      "name": "name",
      "outputs": [
        {
          "internalType": "string",
          "name": "",
          "type": "string"
        }
      ],
      "stateMutability": "view",
      "type": "function"
    },
    {
      "inputs": [],
      "name": "owner",
      "outputs": [
        {
          "internalType": "address",
          "name": "",
          "type": "address"
        }
      ],
      "stateMutability": "view",
      "type": "function"
    },
    {
      "inputs": [],
      "name": "pause",
      "outputs": [],
      "stateMutability": "nonpayable",
      "type": "function"
    },
    {
      "inputs": [],
      "name": "paused",
      "outputs": [
        {
          "internalType": "bool",
          "name": "",
          "type": "bool"
        }
      ],
      "stateMutability": "view",
      "type": "function"
    },
    {
      "inputs": [],
      "name": "proxiableUUID",
      "outputs": [
        {
          "internalType": "bytes32",
          "name": "",
          "type": "bytes32"
        }
      ],
      "stateMutability": "view",
      "type": "function"
    },
    {
      "inputs": [],
      "name": "renounceOwnership",
      "outputs": [],
      "stateMutability": "nonpayable",
      "type": "function"
    },
    {
      "inputs": [
        {
          "internalType": "address",
          "name": "_address",
          "type": "address"
        }
      ],
      "name": "setAdminAddress",
      "outputs": [],
      "stateMutability": "nonpayable",
      "type": "function"
    },
    {
      "inputs": [],
      "name": "symbol",
      "outputs": [
        {
          "internalType": "string",
          "name": "",
          "type": "string"
        }
      ],
      "stateMutability": "view",
      "type": "function"
    },
    {
      "inputs": [],
      "name": "totalSupply",
      "outputs": [
        {
          "internalType": "uint256",
          "name": "",
          "type": "uint256"
        }
      ],
      "stateMutability": "view",
      "type": "function"
    },
    {
      "inputs": [
        {
          "internalType": "address",
          "name": "to",
          "type": "address"
        },
        {
          "internalType": "uint256",
          "name": "value",
          "type": "uint256"
        }
      ],
      "name": "transfer",
      "outputs": [
        {
          "internalType": "bool",
          "name": "",
          "type": "bool"
        }
      ],
      "stateMutability": "nonpayable",
      "type": "function"
    },
    {
      "inputs": [
        {
          "internalType": "address",
          "name": "from",
          "type": "address"
        },
        {
          "internalType": "address",
          "name": "to",
          "type": "address"
        },
        {
          "internalType": "uint256",
          "name": "value",
          "type": "uint256"
        }
      ],
      "name": "transferFrom",
      "outputs": [
        {
          "internalType": "bool",
          "name": "",
          "type": "bool"
        }
      ],
      "stateMutability": "nonpayable",
      "type": "function"
    },
    {
      "inputs": [
        {
          "internalType": "address",
          "name": "newOwner",
          "type": "address"
        }
      ],
      "name": "transferOwnership",
      "outputs": [],
      "stateMutability": "nonpayable",
      "type": "function"
    },
    {
      "inputs": [],
      "name": "unpause",
      "outputs": [],
      "stateMutability": "nonpayable",
      "type": "function"
    },
    {
      "inputs": [
        {
          "internalType": "address",
          "name": "newImplementation",
          "type": "address"
        },
        {
          "internalType": "bytes",
          "name": "data",
          "type": "bytes"
        }
      ],
      "name": "upgradeToAndCall",
      "outputs": [],
      "stateMutability": "payable",
      "type": "function"
    }
  ],
  "bytecode": "0x60a06040523060805234801561001457600080fd5b5061001d610022565b6100d4565b7ff0c57e16840df040f15088dc2f81fe391c3923bec73e23a9662efc9c229c6a00805468010000000000000000900460ff16156100725760405163f92ee8a960e01b815260040160405180910390fd5b80546001600160401b03908116146100d15780546001600160401b0319166001600160401b0390811782556040519081527fc7f505b2f371ae2175ee4913f4499e1f2633a7b5936321eed1cdaeb6115181d29060200160405180910390a15b50565b6080516119896100fd60003960008181610be501528181610c0e0152610d4f01526119896000f3fe6080604052600436106101665760003560e01c80635c975abb116100d157806395d89b411161008a578063dd62ed3e11610064578063dd62ed3e14610458578063f2fde38b14610478578063fc6f946814610498578063fe4b84df146104b857600080fd5b806395d89b41146103f2578063a9059cbb14610407578063ad3cb1cc1461042757600080fd5b80635c975abb1461031357806370a0823114610338578063715018a61461037b57806379cc6790146103905780638456cb59146103b05780638da5cb5b146103c557600080fd5b8063355274ea11610123578063355274ea146102625780633f4ba83a1461029657806340c10f19146102ab57806342966c68146102cb5780634f1ef286146102eb57806352d1902d146102fe57600080fd5b806306fdde031461016b578063095ea7b31461019657806318160ddd146101c657806323b872dd146102045780632c1e816d14610224578063313ce56714610246575b600080fd5b34801561017757600080fd5b506101806104d8565b60405161018d9190611530565b60405180910390f35b3480156101a257600080fd5b506101b66101b136600461157f565b61059b565b604051901515815260200161018d565b3480156101d257600080fd5b507f52c63247e1f47db19d5ce0460030c497f067ca4cebf71ba98eeadabe20bace02545b60405190815260200161018d565b34801561021057600080fd5b506101b661021f3660046115a9565b6105b5565b34801561023057600080fd5b5061024461023f3660046115e5565b6105db565b005b34801561025257600080fd5b506040516012815260200161018d565b34801561026e57600080fd5b507f0f070392f17d5f958cc1ac31867dabecfc5c9758b4a419a200803226d7155d00546101f6565b3480156102a257600080fd5b50610244610679565b3480156102b757600080fd5b506102446102c636600461157f565b6106d0565b3480156102d757600080fd5b506102446102e6366004611600565b6106e6565b6102446102f936600461162f565b6106f3565b34801561030a57600080fd5b506101f661070e565b34801561031f57600080fd5b506000805160206119348339815191525460ff166101b6565b34801561034457600080fd5b506101f66103533660046115e5565b6001600160a01b031660009081526000805160206118f4833981519152602052604090205490565b34801561038757600080fd5b5061024461072b565b34801561039c57600080fd5b506102446103ab36600461157f565b61073d565b3480156103bc57600080fd5b50610244610752565b3480156103d157600080fd5b506103da6107a7565b6040516001600160a01b03909116815260200161018d565b3480156103fe57600080fd5b506101806107d5565b34801561041357600080fd5b506101b661042236600461157f565b610814565b34801561043357600080fd5b50610180604051806040016040528060058152602001640352e302e360dc1b81525081565b34801561046457600080fd5b506101f66104733660046116f1565b610822565b34801561048457600080fd5b506102446104933660046115e5565b61086c565b3480156104a457600080fd5b506000546103da906001600160a01b031681565b3480156104c457600080fd5b506102446104d3366004611600565b6108a7565b7f52c63247e1f47db19d5ce0460030c497f067ca4cebf71ba98eeadabe20bace0380546060916000805160206118f48339815191529161051790611724565b80601f016020809104026020016040519081016040528092919081815260200182805461054390611724565b80156105905780601f1061056557610100808354040283529160200191610590565b820191906000526020600020905b81548152906001019060200180831161057357829003601f168201915b505050505091505090565b6000336105a9818585610a05565b60019150505b92915050565b6000336105c3858285610a17565b6105ce858585610a7d565b60019150505b9392505050565b6000546001600160a01b031633148061060c57506105f76107a7565b6001600160a01b0316336001600160a01b0316145b6106315760405162461bcd60e51b81526004016106289061175e565b60405180910390fd5b600080546001600160a01b0319166001600160a01b038316908117825560405190917f030ff471e8e3d5a26cd9ee887eb024f145aaf27e12cd2f7bdcd14aeb40cf333191a250565b6000546001600160a01b03163314806106aa57506106956107a7565b6001600160a01b0316336001600160a01b0316145b6106c65760405162461bcd60e51b81526004016106289061175e565b6106ce610adc565b565b6106d8610b3c565b6106e28282610b6e565b5050565b6106f03382610ba4565b50565b6106fb610bda565b61070482610c7f565b6106e28282610c87565b6000610718610d44565b5060008051602061191483398151915290565b610733610b3c565b6106ce6000610d8d565b610748823383610a17565b6106e28282610ba4565b6000546001600160a01b0316331480610783575061076e6107a7565b6001600160a01b0316336001600160a01b0316145b61079f5760405162461bcd60e51b81526004016106289061175e565b6106ce610dfe565b7f9016d09d72d40fdae2fd8ceac6b6234c7706214fd39c1cd1e609a0528c199300546001600160a01b031690565b7f52c63247e1f47db19d5ce0460030c497f067ca4cebf71ba98eeadabe20bace0480546060916000805160206118f48339815191529161051790611724565b6000336105a9818585610a7d565b6001600160a01b0391821660009081527f52c63247e1f47db19d5ce0460030c497f067ca4cebf71ba98eeadabe20bace016020908152604080832093909416825291909152205490565b610874610b3c565b6001600160a01b03811661089e57604051631e4fbdf760e01b815260006004820152602401610628565b6106f081610d8d565b7ff0c57e16840df040f15088dc2f81fe391c3923bec73e23a9662efc9c229c6a008054600160401b810460ff16159067ffffffffffffffff166000811580156108ed5750825b905060008267ffffffffffffffff16600114801561090a5750303b155b905081158015610918575080155b156109365760405163f92ee8a960e01b815260040160405180910390fd5b845467ffffffffffffffff19166001178555831561096057845460ff60401b1916600160401b1785555b6109a6604051806040016040528060098152602001684a617673706865726560b81b815250604051806040016040528060038152602001622520ab60e91b815250610e47565b6109af86610e59565b6109b7610e6a565b83156109fd57845460ff60401b19168555604051600181527fc7f505b2f371ae2175ee4913f4499e1f2633a7b5936321eed1cdaeb6115181d29060200160405180910390a15b505050505050565b610a128383836001610ed7565b505050565b6000610a238484610822565b90506000198114610a775781811015610a6857604051637dc7a0d960e11b81526001600160a01b03841660048201526024810182905260448101839052606401610628565b610a7784848484036000610ed7565b50505050565b6001600160a01b038316610aa757604051634b637e8f60e11b815260006004820152602401610628565b6001600160a01b038216610ad15760405163ec442f0560e01b815260006004820152602401610628565b610a12838383610fbf565b610ae461105b565b600080516020611934833981519152805460ff191681557f5db9ee0a495bf2e6ff9c91a7834c1ba4fdd244a5e8aa4e537bd38aeae4b073aa335b6040516001600160a01b03909116815260200160405180910390a150565b33610b456107a7565b6001600160a01b0316146106ce5760405163118cdaa760e01b8152336004820152602401610628565b6001600160a01b038216610b985760405163ec442f0560e01b815260006004820152602401610628565b6106e260008383610fbf565b6001600160a01b038216610bce57604051634b637e8f60e11b815260006004820152602401610628565b6106e282600083610fbf565b306001600160a01b037f0000000000000000000000000000000000000000000000000000000000000000161480610c6157507f00000000000000000000000000000000000000000000000000000000000000006001600160a01b0316610c55600080516020611914833981519152546001600160a01b031690565b6001600160a01b031614155b156106ce5760405163703e46dd60e11b815260040160405180910390fd5b6106f0610b3c565b816001600160a01b03166352d1902d6040518163ffffffff1660e01b8152600401602060405180830381865afa925050508015610ce1575060408051601f3d908101601f19168201909252610cde91810190611795565b60015b610d0957604051634c9c8ce360e01b81526001600160a01b0383166004820152602401610628565b6000805160206119148339815191528114610d3a57604051632a87526960e21b815260048101829052602401610628565b610a12838361108b565b306001600160a01b037f000000000000000000000000000000000000000000000000000000000000000016146106ce5760405163703e46dd60e11b815260040160405180910390fd5b7f9016d09d72d40fdae2fd8ceac6b6234c7706214fd39c1cd1e609a0528c19930080546001600160a01b031981166001600160a01b03848116918217845560405192169182907f8be0079c531659141344cd1fd0a4f28419497f9722a3daafe3b4186f6b6457e090600090a3505050565b610e066110e1565b600080516020611934833981519152805460ff191660011781557f62e78cea01bee320cd4e420270b5ea74000d11b0c9f74754ebdbfc544b05a25833610b1e565b610e4f611112565b6106e2828261115b565b610e61611112565b6106f0816111ac565b610e72611112565b600080546001600160a01b03191633908117909155610e90906111fd565b610e9861120e565b610ea061121e565b60405143815233907f25ff68dd81b34665b5ba7e553ee5511bf6812e12adb4a7e2c0d9e26b3099ce799060200160405180910390a2565b6000805160206118f48339815191526001600160a01b038516610f105760405163e602df0560e01b815260006004820152602401610628565b6001600160a01b038416610f3a57604051634a1406b160e11b815260006004820152602401610628565b6001600160a01b03808616600090815260018301602090815260408083209388168352929052208390558115610fb857836001600160a01b0316856001600160a01b03167f8c5be1e5ebec7d5bd14f71427d1e84f3dd0314c0f7b2291e5b200ac8c7c3b92585604051610faf91815260200190565b60405180910390a35b5050505050565b610fca838383611226565b6001600160a01b038316610a125760006110027f0f070392f17d5f958cc1ac31867dabecfc5c9758b4a419a200803226d7155d005490565b9050600061102e7f52c63247e1f47db19d5ce0460030c497f067ca4cebf71ba98eeadabe20bace025490565b905081811115610fb85760405163279e7e1560e21b81526004810182905260248101839052604401610628565b6000805160206119348339815191525460ff166106ce57604051638dfc202b60e01b815260040160405180910390fd5b61109482611364565b6040516001600160a01b038316907fbc7cd75a20ee27fd9adebab32041f755214dbc6bffa90cc0225b39da2e5c2d3b90600090a28051156110d957610a1282826113c9565b6106e261143f565b6000805160206119348339815191525460ff16156106ce5760405163d93c066560e01b815260040160405180910390fd5b7ff0c57e16840df040f15088dc2f81fe391c3923bec73e23a9662efc9c229c6a0054600160401b900460ff166106ce57604051631afcd79f60e31b815260040160405180910390fd5b611163611112565b6000805160206118f48339815191527f52c63247e1f47db19d5ce0460030c497f067ca4cebf71ba98eeadabe20bace0361119d84826117f6565b5060048101610a7783826117f6565b6111b4611112565b7f0f070392f17d5f958cc1ac31867dabecfc5c9758b4a419a200803226d7155d0060008290036111fa5760405163392e1e2760e01b815260006004820152602401610628565b55565b611205611112565b6106f08161145e565b611216611112565b6106ce611466565b6106ce611112565b6000805160206118f48339815191526001600160a01b038416611262578181600201600082825461125791906118b6565b909155506112d49050565b6001600160a01b038416600090815260208290526040902054828110156112b55760405163391434e360e21b81526001600160a01b03861660048201526024810182905260448101849052606401610628565b6001600160a01b03851660009081526020839052604090209083900390555b6001600160a01b0383166112f2576002810180548390039055611311565b6001600160a01b03831660009081526020829052604090208054830190555b826001600160a01b0316846001600160a01b03167fddf252ad1be2c89b69c2b068fc378daa952ba7f163c4a11628f55a4df523b3ef8460405161135691815260200190565b60405180910390a350505050565b806001600160a01b03163b60000361139a57604051634c9c8ce360e01b81526001600160a01b0382166004820152602401610628565b60008051602061191483398151915280546001600160a01b0319166001600160a01b0392909216919091179055565b6060600080846001600160a01b0316846040516113e691906118d7565b600060405180830381855af49150503d8060008114611421576040519150601f19603f3d011682016040523d82523d6000602084013e611426565b606091505b5091509150611436858383611487565b95945050505050565b34156106ce5760405163b398979f60e01b815260040160405180910390fd5b610874611112565b61146e611112565b600080516020611934833981519152805460ff19169055565b60608261149c57611497826114e3565b6105d4565b81511580156114b357506001600160a01b0384163b155b156114dc57604051639996b31560e01b81526001600160a01b0385166004820152602401610628565b50806105d4565b8051156114f35780518082602001fd5b604051630a12f52160e11b815260040160405180910390fd5b60005b8381101561152757818101518382015260200161150f565b50506000910152565b602081526000825180602084015261154f81604085016020870161150c565b601f01601f19169190910160400192915050565b80356001600160a01b038116811461157a57600080fd5b919050565b6000806040838503121561159257600080fd5b61159b83611563565b946020939093013593505050565b6000806000606084860312156115be57600080fd5b6115c784611563565b92506115d560208501611563565b9150604084013590509250925092565b6000602082840312156115f757600080fd5b6105d482611563565b60006020828403121561161257600080fd5b5035919050565b634e487b7160e01b600052604160045260246000fd5b6000806040838503121561164257600080fd5b61164b83611563565b9150602083013567ffffffffffffffff8082111561166857600080fd5b818501915085601f83011261167c57600080fd5b81358181111561168e5761168e611619565b604051601f8201601f19908116603f011681019083821181831017156116b6576116b6611619565b816040528281528860208487010111156116cf57600080fd5b8260208601602083013760006020848301015280955050505050509250929050565b6000806040838503121561170457600080fd5b61170d83611563565b915061171b60208401611563565b90509250929050565b600181811c9082168061173857607f821691505b60208210810361175857634e487b7160e01b600052602260045260246000fd5b50919050565b6020808252601a908201527f4261736555706772616461626c653a206f6e6c792061646d696e000000000000604082015260600190565b6000602082840312156117a757600080fd5b5051919050565b601f821115610a12576000816000526020600020601f850160051c810160208610156117d75750805b601f850160051c820191505b818110156109fd578281556001016117e3565b815167ffffffffffffffff81111561181057611810611619565b6118248161181e8454611724565b846117ae565b602080601f83116001811461185957600084156118415750858301515b600019600386901b1c1916600185901b1785556109fd565b600085815260208120601f198616915b8281101561188857888601518255948401946001909101908401611869565b50858210156118a65787850151600019600388901b60f8161c191681555b5050505050600190811b01905550565b808201808211156105af57634e487b7160e01b600052601160045260246000fd5b600082516118e981846020870161150c565b919091019291505056fe52c63247e1f47db19d5ce0460030c497f067ca4cebf71ba98eeadabe20bace00360894a13ba1a3210667c828492db98dca3e2076cc3735a920a3ca505d382bbccd5ed15c6e187e77e9aee88184c21f4f2182ab5827cb3b7e07fbedcd63f03300a264697066735822122012ffbb8d15d7b18f1755f44f1f9717a62d4c018d67717b1f2ec25a0d8827cd9a64736f6c63430008180033",
  "linkReferences": {},
  "deployedLinkReferences": {}
}