{
  "_format": "hh-sol-artifact-1",
  "contractName": "TokenVestingFreezer",
  "sourceName": "contracts/launch/TokenVestingFreezer.sol",
  "abi": [
    {
      "inputs": [],
      "stateMutability": "nonpayable",
      "type": "constructor"
    },
    {
      "inputs": [
        {
          "internalType": "address",
          "name": "target",
          "type": "address"
        }
      ],
      "name": "AddressEmptyCode",
      "type": "error"
    },
    {
      "inputs": [
        {
          "internalType": "address",
          "name": "implementation",
          "type": "address"
        }
      ],
      "name": "ERC1967InvalidImplementation",
      "type": "error"
    },
    {
      "inputs": [],
      "name": "ERC1967NonPayable",
      "type": "error"
    },
    {
      "inputs": [],
      "name": "EnforcedPause",
      "type": "error"
    },
    {
      "inputs": [],
      "name": "ExpectedPause",
      "type": "error"
    },
    {
      "inputs": [],
      "name": "FailedInnerCall",
      "type": "error"
    },
    {
      "inputs": [],
      "name": "InvalidInitialization",
      "type": "error"
    },
    {
      "inputs": [],
      "name": "NotInitializing",
      "type": "error"
    },
    {
      "inputs": [
        {
          "internalType": "address",
          "name": "owner",
          "type": "address"
        }
      ],
      "name": "OwnableInvalidOwner",
      "type": "error"
    },
    {
      "inputs": [
        {
          "internalType": "address",
          "name": "account",
          "type": "address"
        }
      ],
      "name": "OwnableUnauthorizedAccount",
      "type": "error"
    },
    {
      "inputs": [],
      "name": "ReentrancyGuardReentrantCall",
      "type": "error"
    },
    {
      "inputs": [],
      "name": "UUPSUnauthorizedCallContext",
      "type": "error"
    },
    {
      "inputs": [
        {
          "internalType": "bytes32",
          "name": "slot",
          "type": "bytes32"
        }
      ],
      "name": "UUPSUnsupportedProxiableUUID",
      "type": "error"
    },
    {
      "anonymous": false,
      "inputs": [
        {
          "indexed": true,
          "internalType": "address",
          "name": "_address",
          "type": "address"
        }
      ],
      "name": "AddAllowedAddress",
      "type": "event"
    },
    {
      "anonymous": false,
      "inputs": [
        {
          "indexed": false,
          "internalType": "uint64",
          "name": "version",
          "type": "uint64"
        }
      ],
      "name": "Initialized",
      "type": "event"
    },
    {
      "anonymous": false,
      "inputs": [
        {
          "indexed": true,
          "internalType": "address",
          "name": "executor",
          "type": "address"
        },
        {
          "indexed": false,
          "internalType": "uint256",
          "name": "at",
          "type": "uint256"
        }
      ],
      "name": "Initialized",
      "type": "event"
    },
    {
      "anonymous": false,
      "inputs": [
        {
          "indexed": true,
          "internalType": "address",
          "name": "previousOwner",
          "type": "address"
        },
        {
          "indexed": true,
          "internalType": "address",
          "name": "newOwner",
          "type": "address"
        }
      ],
      "name": "OwnershipTransferred",
      "type": "event"
    },
    {
      "anonymous": false,
      "inputs": [
        {
          "indexed": false,
          "internalType": "address",
          "name": "account",
          "type": "address"
        }
      ],
      "name": "Paused",
      "type": "event"
    },
    {
      "anonymous": false,
      "inputs": [
        {
          "indexed": true,
          "internalType": "bytes32",
          "name": "vestingScheduleId",
          "type": "bytes32"
        },
        {
          "indexed": true,
          "internalType": "address",
          "name": "to",
          "type": "address"
        },
        {
          "indexed": false,
          "internalType": "uint256",
          "name": "amount",
          "type": "uint256"
        }
      ],
      "name": "Released",
      "type": "event"
    },
    {
      "anonymous": false,
      "inputs": [
        {
          "indexed": true,
          "internalType": "address",
          "name": "_address",
          "type": "address"
        }
      ],
      "name": "RemoveAllowedAddress",
      "type": "event"
    },
    {
      "anonymous": false,
      "inputs": [
        {
          "indexed": true,
          "internalType": "bytes32",
          "name": "vestingScheduleId",
          "type": "bytes32"
        },
        {
          "indexed": false,
          "internalType": "uint256",
          "name": "amount",
          "type": "uint256"
        }
      ],
      "name": "Revoked",
      "type": "event"
    },
    {
      "anonymous": false,
      "inputs": [
        {
          "indexed": true,
          "internalType": "address",
          "name": "_address",
          "type": "address"
        }
      ],
      "name": "SetAdminAddress",
      "type": "event"
    },
    {
      "anonymous": false,
      "inputs": [
        {
          "indexed": true,
          "internalType": "address",
          "name": "_address",
          "type": "address"
        }
      ],
      "name": "SetFreezerAddress",
      "type": "event"
    },
    {
      "anonymous": false,
      "inputs": [
        {
          "indexed": false,
          "internalType": "address",
          "name": "account",
          "type": "address"
        }
      ],
      "name": "Unpaused",
      "type": "event"
    },
    {
      "anonymous": false,
      "inputs": [
        {
          "indexed": true,
          "internalType": "address",
          "name": "implementation",
          "type": "address"
        }
      ],
      "name": "Upgraded",
      "type": "event"
    },
    {
      "anonymous": false,
      "inputs": [
        {
          "indexed": true,
          "internalType": "address",
          "name": "beneficiary",
          "type": "address"
        },
        {
          "indexed": false,
          "internalType": "uint256",
          "name": "cliff",
          "type": "uint256"
        },
        {
          "indexed": false,
          "internalType": "uint256",
          "name": "start",
          "type": "uint256"
        },
        {
          "indexed": false,
          "internalType": "uint256",
          "name": "duration",
          "type": "uint256"
        },
        {
          "indexed": false,
          "internalType": "uint256",
          "name": "slicePeriodSeconds",
          "type": "uint256"
        },
        {
          "indexed": false,
          "internalType": "uint256",
          "name": "amountTotal",
          "type": "uint256"
        },
        {
          "indexed": false,
          "internalType": "bool",
          "name": "revocable",
          "type": "bool"
        },
        {
          "indexed": false,
          "internalType": "uint8",
          "name": "vestingType",
          "type": "uint8"
        }
      ],
      "name": "VestingScheduleAdded",
      "type": "event"
    },
    {
      "anonymous": false,
      "inputs": [
        {
          "indexed": true,
          "internalType": "address",
          "name": "to",
          "type": "address"
        },
        {
          "indexed": false,
          "internalType": "uint256",
          "name": "amount",
          "type": "uint256"
        }
      ],
      "name": "Withdraw",
      "type": "event"
    },
    {
      "inputs": [],
      "name": "UPGRADE_INTERFACE_VERSION",
      "outputs": [
        {
          "internalType": "string",
          "name": "",
          "type": "string"
        }
      ],
      "stateMutability": "view",
      "type": "function"
    },
    {
      "inputs": [
        {
          "internalType": "address",
          "name": "_address",
          "type": "address"
        }
      ],
      "name": "addAllowedAddress",
      "outputs": [],
      "stateMutability": "nonpayable",
      "type": "function"
    },
    {
      "inputs": [],
      "name": "adminAddress",
      "outputs": [
        {
          "internalType": "address",
          "name": "",
          "type": "address"
        }
      ],
      "stateMutability": "view",
      "type": "function"
    },
    {
      "inputs": [
        {
          "internalType": "bytes32",
          "name": "vestingScheduleId",
          "type": "bytes32"
        }
      ],
      "name": "computeReleasableAmount",
      "outputs": [
        {
          "internalType": "uint256",
          "name": "",
          "type": "uint256"
        }
      ],
      "stateMutability": "view",
      "type": "function"
    },
    {
      "inputs": [
        {
          "internalType": "address",
          "name": "holder",
          "type": "address"
        },
        {
          "internalType": "uint256",
          "name": "index",
          "type": "uint256"
        }
      ],
      "name": "computeVestingScheduleIdForAddressAndIndex",
      "outputs": [
        {
          "internalType": "bytes32",
          "name": "",
          "type": "bytes32"
        }
      ],
      "stateMutability": "pure",
      "type": "function"
    },
    {
      "inputs": [
        {
          "internalType": "address",
          "name": "_beneficiary",
          "type": "address"
        },
        {
          "internalType": "uint128",
          "name": "_start",
          "type": "uint128"
        },
        {
          "internalType": "uint128",
          "name": "_cliff",
          "type": "uint128"
        },
        {
          "internalType": "uint128",
          "name": "_duration",
          "type": "uint128"
        },
        {
          "internalType": "uint128",
          "name": "_slicePeriodSeconds",
          "type": "uint128"
        },
        {
          "internalType": "bool",
          "name": "_revocable",
          "type": "bool"
        },
        {
          "internalType": "uint128",
          "name": "_amount",
          "type": "uint128"
        },
        {
          "internalType": "uint8",
          "name": "_vestingType",
          "type": "uint8"
        },
        {
          "internalType": "uint256",
          "name": "_lockId",
          "type": "uint256"
        }
      ],
      "name": "createVestingSchedule",
      "outputs": [],
      "stateMutability": "nonpayable",
      "type": "function"
    },
    {
      "inputs": [
        {
          "components": [
            {
              "internalType": "address",
              "name": "beneficiary",
              "type": "address"
            },
            {
              "internalType": "uint128",
              "name": "start",
              "type": "uint128"
            },
            {
              "internalType": "uint128",
              "name": "cliff",
              "type": "uint128"
            },
            {
              "internalType": "uint128",
              "name": "duration",
              "type": "uint128"
            },
            {
              "internalType": "uint128",
              "name": "slicePeriodSeconds",
              "type": "uint128"
            },
            {
              "internalType": "bool",
              "name": "revocable",
              "type": "bool"
            },
            {
              "internalType": "uint128",
              "name": "amount",
              "type": "uint128"
            },
            {
              "internalType": "uint8",
              "name": "vestingType",
              "type": "uint8"
            },
            {
              "internalType": "uint8",
              "name": "lockId",
              "type": "uint8"
            }
          ],
          "internalType": "struct ITokenVesting.InitialVestingSchedule[]",
          "name": "_vestingInfo",
          "type": "tuple[]"
        }
      ],
      "name": "createVestingScheduleBatch",
      "outputs": [],
      "stateMutability": "nonpayable",
      "type": "function"
    },
    {
      "inputs": [],
      "name": "currentVestingId",
      "outputs": [
        {
          "internalType": "uint256",
          "name": "",
          "type": "uint256"
        }
      ],
      "stateMutability": "view",
      "type": "function"
    },
    {
      "inputs": [],
      "name": "freezer",
      "outputs": [
        {
          "internalType": "address",
          "name": "",
          "type": "address"
        }
      ],
      "stateMutability": "view",
      "type": "function"
    },
    {
      "inputs": [],
      "name": "getAllowedAddresses",
      "outputs": [
        {
          "internalType": "address[]",
          "name": "",
          "type": "address[]"
        }
      ],
      "stateMutability": "view",
      "type": "function"
    },
    {
      "inputs": [
        {
          "internalType": "address",
          "name": "holder",
          "type": "address"
        }
      ],
      "name": "getLastVestingScheduleForHolder",
      "outputs": [
        {
          "components": [
            {
              "internalType": "bool",
              "name": "initialized",
              "type": "bool"
            },
            {
              "internalType": "address",
              "name": "beneficiary",
              "type": "address"
            },
            {
              "internalType": "uint128",
              "name": "cliff",
              "type": "uint128"
            },
            {
              "internalType": "uint128",
              "name": "start",
              "type": "uint128"
            },
            {
              "internalType": "uint128",
              "name": "duration",
              "type": "uint128"
            },
            {
              "internalType": "uint128",
              "name": "slicePeriodSeconds",
              "type": "uint128"
            },
            {
              "internalType": "bool",
              "name": "revocable",
              "type": "bool"
            },
            {
              "internalType": "uint128",
              "name": "amountTotal",
              "type": "uint128"
            },
            {
              "internalType": "uint128",
              "name": "released",
              "type": "uint128"
            },
            {
              "internalType": "bool",
              "name": "revoked",
              "type": "bool"
            },
            {
              "internalType": "uint8",
              "name": "vestingType",
              "type": "uint8"
            }
          ],
          "internalType": "struct TokenVestingFreezer.VestingSchedule",
          "name": "",
          "type": "tuple"
        }
      ],
      "stateMutability": "view",
      "type": "function"
    },
    {
      "inputs": [
        {
          "internalType": "address",
          "name": "holder",
          "type": "address"
        },
        {
          "internalType": "uint256",
          "name": "index",
          "type": "uint256"
        }
      ],
      "name": "getVestingScheduleByAddressAndIndex",
      "outputs": [
        {
          "components": [
            {
              "internalType": "bool",
              "name": "initialized",
              "type": "bool"
            },
            {
              "internalType": "address",
              "name": "beneficiary",
              "type": "address"
            },
            {
              "internalType": "uint128",
              "name": "cliff",
              "type": "uint128"
            },
            {
              "internalType": "uint128",
              "name": "start",
              "type": "uint128"
            },
            {
              "internalType": "uint128",
              "name": "duration",
              "type": "uint128"
            },
            {
              "internalType": "uint128",
              "name": "slicePeriodSeconds",
              "type": "uint128"
            },
            {
              "internalType": "bool",
              "name": "revocable",
              "type": "bool"
            },
            {
              "internalType": "uint128",
              "name": "amountTotal",
              "type": "uint128"
            },
            {
              "internalType": "uint128",
              "name": "released",
              "type": "uint128"
            },
            {
              "internalType": "bool",
              "name": "revoked",
              "type": "bool"
            },
            {
              "internalType": "uint8",
              "name": "vestingType",
              "type": "uint8"
            }
          ],
          "internalType": "struct TokenVestingFreezer.VestingSchedule",
          "name": "",
          "type": "tuple"
        }
      ],
      "stateMutability": "view",
      "type": "function"
    },
    {
      "inputs": [
        {
          "internalType": "address",
          "name": "",
          "type": "address"
        }
      ],
      "name": "holdersVestingCount",
      "outputs": [
        {
          "internalType": "uint256",
          "name": "",
          "type": "uint256"
        }
      ],
      "stateMutability": "view",
      "type": "function"
    },
    {
      "inputs": [
        {
          "internalType": "address",
          "name": "_freezerAddress",
          "type": "address"
        }
      ],
      "name": "initialize",
      "outputs": [],
      "stateMutability": "nonpayable",
      "type": "function"
    },
    {
      "inputs": [],
      "name": "owner",
      "outputs": [
        {
          "internalType": "address",
          "name": "",
          "type": "address"
        }
      ],
      "stateMutability": "view",
      "type": "function"
    },
    {
      "inputs": [],
      "name": "pause",
      "outputs": [],
      "stateMutability": "nonpayable",
      "type": "function"
    },
    {
      "inputs": [],
      "name": "paused",
      "outputs": [
        {
          "internalType": "bool",
          "name": "",
          "type": "bool"
        }
      ],
      "stateMutability": "view",
      "type": "function"
    },
    {
      "inputs": [],
      "name": "proxiableUUID",
      "outputs": [
        {
          "internalType": "bytes32",
          "name": "",
          "type": "bytes32"
        }
      ],
      "stateMutability": "view",
      "type": "function"
    },
    {
      "inputs": [
        {
          "internalType": "bytes32",
          "name": "vestingScheduleId",
          "type": "bytes32"
        },
        {
          "internalType": "uint128",
          "name": "amount",
          "type": "uint128"
        }
      ],
      "name": "release",
      "outputs": [],
      "stateMutability": "nonpayable",
      "type": "function"
    },
    {
      "inputs": [
        {
          "internalType": "address",
          "name": "_address",
          "type": "address"
        }
      ],
      "name": "removeAllowedAddress",
      "outputs": [],
      "stateMutability": "nonpayable",
      "type": "function"
    },
    {
      "inputs": [],
      "name": "renounceOwnership",
      "outputs": [],
      "stateMutability": "nonpayable",
      "type": "function"
    },
    {
      "inputs": [
        {
          "internalType": "bytes32",
          "name": "vestingScheduleId",
          "type": "bytes32"
        }
      ],
      "name": "revoke",
      "outputs": [],
      "stateMutability": "nonpayable",
      "type": "function"
    },
    {
      "inputs": [
        {
          "internalType": "address",
          "name": "_address",
          "type": "address"
        }
      ],
      "name": "setAdminAddress",
      "outputs": [],
      "stateMutability": "nonpayable",
      "type": "function"
    },
    {
      "inputs": [
        {
          "internalType": "address",
          "name": "_address",
          "type": "address"
        }
      ],
      "name": "setFreezerAddress",
      "outputs": [],
      "stateMutability": "nonpayable",
      "type": "function"
    },
    {
      "inputs": [
        {
          "internalType": "address",
          "name": "newOwner",
          "type": "address"
        }
      ],
      "name": "transferOwnership",
      "outputs": [],
      "stateMutability": "nonpayable",
      "type": "function"
    },
    {
      "inputs": [],
      "name": "unpause",
      "outputs": [],
      "stateMutability": "nonpayable",
      "type": "function"
    },
    {
      "inputs": [
        {
          "internalType": "address",
          "name": "newImplementation",
          "type": "address"
        },
        {
          "internalType": "bytes",
          "name": "data",
          "type": "bytes"
        }
      ],
      "name": "upgradeToAndCall",
      "outputs": [],
      "stateMutability": "payable",
      "type": "function"
    },
    {
      "inputs": [
        {
          "internalType": "bytes32",
          "name": "",
          "type": "bytes32"
        }
      ],
      "name": "vestingFreezeId",
      "outputs": [
        {
          "internalType": "uint256",
          "name": "",
          "type": "uint256"
        }
      ],
      "stateMutability": "view",
      "type": "function"
    },
    {
      "inputs": [
        {
          "internalType": "bytes32",
          "name": "",
          "type": "bytes32"
        }
      ],
      "name": "vestingSchedules",
      "outputs": [
        {
          "internalType": "bool",
          "name": "initialized",
          "type": "bool"
        },
        {
          "internalType": "address",
          "name": "beneficiary",
          "type": "address"
        },
        {
          "internalType": "uint128",
          "name": "cliff",
          "type": "uint128"
        },
        {
          "internalType": "uint128",
          "name": "start",
          "type": "uint128"
        },
        {
          "internalType": "uint128",
          "name": "duration",
          "type": "uint128"
        },
        {
          "internalType": "uint128",
          "name": "slicePeriodSeconds",
          "type": "uint128"
        },
        {
          "internalType": "bool",
          "name": "revocable",
          "type": "bool"
        },
        {
          "internalType": "uint128",
          "name": "amountTotal",
          "type": "uint128"
        },
        {
          "internalType": "uint128",
          "name": "released",
          "type": "uint128"
        },
        {
          "internalType": "bool",
          "name": "revoked",
          "type": "bool"
        },
        {
          "internalType": "uint8",
          "name": "vestingType",
          "type": "uint8"
        }
      ],
      "stateMutability": "view",
      "type": "function"
    },
    {
      "inputs": [],
      "name": "vestingSchedulesTotalAmount",
      "outputs": [
        {
          "internalType": "uint256",
          "name": "",
          "type": "uint256"
        }
      ],
      "stateMutability": "view",
      "type": "function"
    }
  ],
  "bytecode": "0x60a0604052306080523480156200001557600080fd5b506200002062000026565b620000da565b7ff0c57e16840df040f15088dc2f81fe391c3923bec73e23a9662efc9c229c6a00805468010000000000000000900460ff1615620000775760405163f92ee8a960e01b815260040160405180910390fd5b80546001600160401b0390811614620000d75780546001600160401b0319166001600160401b0390811782556040519081527fc7f505b2f371ae2175ee4913f4499e1f2633a7b5936321eed1cdaeb6115181d29060200160405180910390a15b50565b608051612ff2620001046000396000818161148f015281816114b801526115fe0152612ff26000f3fe6080604052600436106101cd5760003560e01c80638af104da116100f7578063c4d66de811610095578063f2fde38b11610064578063f2fde38b14610638578063f51321d714610658578063fc6f946814610678578063ff4ff86f1461069857600080fd5b8063c4d66de8146105a9578063d7cf9a5c146105c9578063e808dc14146105f6578063ea1bb3d51461061857600080fd5b80639d8535ad116100d15780639d8535ad14610515578063a931208f1461052b578063ad3cb1cc1461054b578063b75c7dc61461058957600080fd5b80638af104da146104a85780638da5cb5b146104c857806392716054146104f557600080fd5b80635c975abb1161016f5780637e913dc61161013e5780637e913dc61461042657806381788e2b146104535780638456cb591461047357806387b9c84a1461048857600080fd5b80635c975abb146102b157806360417887146102e1578063646fd909146103f1578063715018a61461041157600080fd5b80633f4ba83a116101ab5780633f4ba83a14610234578063471121d1146102495780634f1ef2861461028957806352d1902d1461029c57600080fd5b80632c1e816d146101d25780633b867bdd146101f45780633c9d93b814610214575b600080fd5b3480156101de57600080fd5b506101f26101ed36600461286c565b6106ae565b005b34801561020057600080fd5b506101f261020f36600461286c565b61074c565b34801561022057600080fd5b506101f261022f36600461286c565b6107e3565b34801561024057600080fd5b506101f2610873565b34801561025557600080fd5b5061027661026436600461286c565b603a6020526000908152604090205481565b6040519081526020015b60405180910390f35b6101f26102973660046128f8565b6108ca565b3480156102a857600080fd5b506102766108e9565b3480156102bd57600080fd5b50600080516020612f9d8339815191525460ff166040519015158152602001610280565b3480156102ed57600080fd5b5061037c6102fc36600461299e565b6038602052600090815260409020805460018201546002830154600384015460049094015460ff808516956001600160a01b036101009687900416956001600160801b0380871696600160801b908190048216968083169690829004831695858116959490940483169392811692918104821691600160881b909104168b565b604080519b15158c526001600160a01b03909a1660208c01526001600160801b03988916998b019990995295871660608a0152938616608089015291851660a0880152151560c0870152831660e086015291909116610100840152151561012083015260ff1661014082015261016001610280565b3480156103fd57600080fd5b506101f261040c3660046129ce565b610906565b34801561041d57600080fd5b506101f261098e565b34801561043257600080fd5b5061044661044136600461286c565b6109a0565b60405161028091906129fa565b34801561045f57600080fd5b506101f261046e36600461286c565b610aa2565b34801561047f57600080fd5b506101f2610b32565b34801561049457600080fd5b506101f26104a3366004612b12565b610b87565b3480156104b457600080fd5b506102766104c3366004612c63565b610ce4565b3480156104d457600080fd5b506104dd610cf9565b6040516001600160a01b039091168152602001610280565b34801561050157600080fd5b506035546104dd906001600160a01b031681565b34801561052157600080fd5b5061027660375481565b34801561053757600080fd5b506101f2610546366004612c8d565b610d27565b34801561055757600080fd5b5061057c604051806040016040528060058152602001640352e302e360dc1b81525081565b6040516102809190612d52565b34801561059557600080fd5b506101f26105a436600461299e565b610d6a565b3480156105b557600080fd5b506101f26105c436600461286c565b610fe1565b3480156105d557600080fd5b506102766105e436600461299e565b60396020526000908152604090205481565b34801561060257600080fd5b5061060b611124565b6040516102809190612d85565b34801561062457600080fd5b5061027661063336600461299e565b611135565b34801561064457600080fd5b506101f261065336600461286c565b6112f8565b34801561066457600080fd5b50610446610673366004612c63565b611336565b34801561068457600080fd5b506000546104dd906001600160a01b031681565b3480156106a457600080fd5b5061027660365481565b6000546001600160a01b03163314806106df57506106ca610cf9565b6001600160a01b0316336001600160a01b0316145b6107045760405162461bcd60e51b81526004016106fb90612dd2565b60405180910390fd5b600080546001600160a01b0319166001600160a01b038316908117825560405190917f030ff471e8e3d5a26cd9ee887eb024f145aaf27e12cd2f7bdcd14aeb40cf333191a250565b6000546001600160a01b031633148061077d5750610768610cf9565b6001600160a01b0316336001600160a01b0316145b6107995760405162461bcd60e51b81526004016106fb90612dd2565b603580546001600160a01b0319166001600160a01b0383169081179091556040517fd608448203670beb990ff21fa7291d9cb4f32034c9308a0002f56854d070117690600090a250565b6000546001600160a01b031633148061081457506107ff610cf9565b6001600160a01b0316336001600160a01b0316145b6108305760405162461bcd60e51b81526004016106fb90612dd2565b61083b60338261140f565b506040516001600160a01b038216907fec953dd0c3cc0e610c4084a9ac18540acf1e88f392862dde4d74baa9f5aebc9e90600090a250565b6000546001600160a01b03163314806108a4575061088f610cf9565b6001600160a01b0316336001600160a01b0316145b6108c05760405162461bcd60e51b81526004016106fb90612dd2565b6108c8611424565b565b6108d2611484565b6108db82611529565b6108e58282611531565b5050565b60006108f36115f3565b50600080516020612f7d83398151915290565b61090e61163c565b61091661166d565b600082815260386020526040902054829060ff1661093357600080fd5b600081815260386020526040902060040154600160801b900460ff161561095957600080fd5b6109643384846116b7565b506108e560017f9b779b17422d0df92223018b32b4d1fa46e071723d6817e2486d003becc55f0055565b610996611a29565b6108c86000611a5b565b6109a86127f4565b6001600160a01b0382166000908152603a6020526040812054603891906109dc9085906109d790600190612e1f565b611acc565b81526020808201929092526040908101600020815161016081018352815460ff808216151583526001600160a01b0361010092839004169583019590955260018301546001600160801b0380821695840195909552600160801b908190048516606084015260028401548086166080850152819004851660a08401526003840154808716151560c0850152829004851660e08401526004909301549384169082015290820483161515610120820152600160881b90910490911661014082015292915050565b6000546001600160a01b0316331480610ad35750610abe610cf9565b6001600160a01b0316336001600160a01b0316145b610aef5760405162461bcd60e51b81526004016106fb90612dd2565b610afa603382611b13565b506040516001600160a01b038216907f3606fcf39703633cb9c4be698c208c42df5a457031fcd4370c9bb3bd127f8f1290600090a250565b6000546001600160a01b0316331480610b635750610b4e610cf9565b6001600160a01b0316336001600160a01b0316145b610b7f5760405162461bcd60e51b81526004016106fb90612dd2565b6108c8611b28565b610b92603333611b71565b610bae5760405162461bcd60e51b81526004016106fb90612e32565b60005b81518110156108e557610cd4828281518110610bcf57610bcf612e76565b602002602001015160000151838381518110610bed57610bed612e76565b602002602001015160200151848481518110610c0b57610c0b612e76565b602002602001015160400151858581518110610c2957610c29612e76565b602002602001015160600151868681518110610c4757610c47612e76565b602002602001015160800151878781518110610c6557610c65612e76565b602002602001015160a00151888881518110610c8357610c83612e76565b602002602001015160c00151898981518110610ca157610ca1612e76565b602002602001015160e001518a8a81518110610cbf57610cbf612e76565b6020026020010151610100015160ff16611b93565b610cdd81612e8c565b9050610bb1565b6000610cf08383611acc565b90505b92915050565b7f9016d09d72d40fdae2fd8ceac6b6234c7706214fd39c1cd1e609a0528c199300546001600160a01b031690565b610d32603333611b71565b610d4e5760405162461bcd60e51b81526004016106fb90612e32565b610d5f898989898989898989611b93565b505050505050505050565b6000546001600160a01b0316331480610d9b5750610d86610cf9565b6001600160a01b0316336001600160a01b0316145b610db75760405162461bcd60e51b81526004016106fb90612dd2565b600081815260386020526040902054819060ff16610dd457600080fd5b600081815260386020526040902060040154600160801b900460ff1615610dfa57600080fd5b6000828152603860205260409020600381015460ff16610e6b5760405162461bcd60e51b815260206004820152602660248201527f546f6b656e56657374696e673a2076657374696e67206973206e6f74207265766044820152656f6361626c6560d01b60648201526084016106fb565b6040805161016081018252825460ff808216151583526001600160a01b036101009283900416602084015260018501546001600160801b0380821695850195909552600160801b908190048516606085015260028601548086166080860152819004851660a08501526003860154808316151560c0860152839004851660e085015260048601549485169284019290925290830481161515610120830152600160881b909204909116610140820152600090610f269061221b565b90506001600160801b03811615610f4257610f423385836116b7565b60048201546003830154600091610f6b916001600160801b039182169161010090910416612ea5565b6001600160801b0316905080603754610f849190612e1f565b60375560048301805460ff60801b1916600160801b1790556040516001600160801b038316815285907ff53e4c807734a99e87fb386d2952cda1e1aa71600280ecf91f5eaae69677c3339060200160405180910390a25050505050565b7ff0c57e16840df040f15088dc2f81fe391c3923bec73e23a9662efc9c229c6a008054600160401b810460ff16159067ffffffffffffffff166000811580156110275750825b905060008267ffffffffffffffff1660011480156110445750303b155b905081158015611052575080155b156110705760405163f92ee8a960e01b815260040160405180910390fd5b845467ffffffffffffffff19166001178555831561109a57845460ff60401b1916600160401b1785555b6001603655603580546001600160a01b0319166001600160a01b0388161790556110c5603333611b13565b506110ce612324565b6110d6612391565b831561111c57845460ff60401b19168555604051600181527fc7f505b2f371ae2175ee4913f4499e1f2633a7b5936321eed1cdaeb6115181d29060200160405180910390a15b505050505050565b606061113060336123a1565b905090565b600081815260386020526040812054829060ff1661115257600080fd5b600081815260386020526040902060040154600160801b900460ff161561117857600080fd5b6000838152603860209081526040808320815161016081018352815460ff808216151583526001600160a01b0361010092839004169583019590955260018301546001600160801b0380821695840195909552600160801b908190048516606084015260028401548086166080850152819004851660a08401526003840154808716151560c0850152829004851660e08401526004909301549384169082015290820483161515610120820152600160881b909104909116610140820152906112408261221b565b603554600087815260396020908152604080832054918701519051630abc92cb60e01b81526004810184905260248101929092526001600160a01b0390811660448301526001600160801b03949094169450909290911690630abc92cb90606401602060405180830381865afa1580156112be573d6000803e3d6000fd5b505050506040513d601f19601f820116820180604052508101906112e29190612ec5565b90506112ee8183612ede565b9695505050505050565b611300611a29565b6001600160a01b03811661132a57604051631e4fbdf760e01b8152600060048201526024016106fb565b61133381611a5b565b50565b61133e6127f4565b600061134a8484611acc565b600090815260386020908152604091829020825161016081018452815460ff80821615158352610100918290046001600160a01b03169483019490945260018301546001600160801b0380821696840196909652600160801b908190048616606084015260028401548087166080850152819004861660a08401526003840154808616151560c0850152829004861660e08401526004909301549485169082015290830482161515610120820152600160881b90920416610140820152949350505050565b6000610cf0836001600160a01b0384166123ae565b61142c6124a8565b600080516020612f9d833981519152805460ff191681557f5db9ee0a495bf2e6ff9c91a7834c1ba4fdd244a5e8aa4e537bd38aeae4b073aa335b6040516001600160a01b03909116815260200160405180910390a150565b306001600160a01b037f000000000000000000000000000000000000000000000000000000000000000016148061150b57507f00000000000000000000000000000000000000000000000000000000000000006001600160a01b03166114ff600080516020612f7d833981519152546001600160a01b031690565b6001600160a01b031614155b156108c85760405163703e46dd60e11b815260040160405180910390fd5b611333611a29565b816001600160a01b03166352d1902d6040518163ffffffff1660e01b8152600401602060405180830381865afa92505050801561158b575060408051601f3d908101601f1916820190925261158891810190612ec5565b60015b6115b357604051634c9c8ce360e01b81526001600160a01b03831660048201526024016106fb565b600080516020612f7d83398151915281146115e457604051632a87526960e21b8152600481018290526024016106fb565b6115ee83836124d8565b505050565b306001600160a01b037f000000000000000000000000000000000000000000000000000000000000000016146108c85760405163703e46dd60e11b815260040160405180910390fd5b600080516020612f9d8339815191525460ff16156108c85760405163d93c066560e01b815260040160405180910390fd5b7f9b779b17422d0df92223018b32b4d1fa46e071723d6817e2486d003becc55f008054600119016116b157604051633ee5aeb560e01b815260040160405180910390fd5b60029055565b6000828152603860205260408120805490916101009091046001600160a01b0390811690861614906116e7610cf9565b6001600160a01b0316866001600160a01b031614905081806117065750805b6117835760405162461bcd60e51b815260206004820152604260248201527f546f6b656e56657374696e673a206f6e6c792062656e6566696369617279206160448201527f6e64206f776e65722063616e2072656c656173652076657374656420746f6b656064820152616e7360f01b608482015260a4016106fb565b6040805161016081018252845460ff808216151583526001600160a01b036101009283900416602084015260018701546001600160801b0380821695850195909552600160801b908190048516606085015260028801548086166080860152819004851660a08501526003880154808316151560c0860152839004851660e085015260048801549485169284019290925290830481161515610120830152600160881b90920490911661014082015260009061183e9061221b565b6001600160801b03169050846001600160801b03168110156118c85760405162461bcd60e51b815260206004820152603d60248201527f546f6b656e56657374696e673a2063616e6e6f742072656c6561736520746f6b60448201527f656e732c206e6f7420656e6f7567682076657374656420746f6b656e7300000060648201526084016106fb565b6035548454600088815260396020526040808220549051630bdb665b60e41b81526001600160a01b0361010090940484166004820152602481019290925260448201526001600160801b038816606482015291169063bdb665b090608401600060405180830381600087803b15801561194057600080fd5b505af1158015611954573d6000803e3d6000fd5b5050506004850154611971915086906001600160801b0316612ef1565b6004850180546fffffffffffffffffffffffffffffffff19166001600160801b039283161790556037546119a791871690612e1f565b60375583546040516001600160801b03871681526101009091046001600160a01b03169087907fc8fa66dff4b9073528c3f1bf21a8dc9a18fdf09847e88e96188bc953aef519f09060200160405180910390a350505050505050565b60017f9b779b17422d0df92223018b32b4d1fa46e071723d6817e2486d003becc55f0055565b33611a32610cf9565b6001600160a01b0316146108c85760405163118cdaa760e01b81523360048201526024016106fb565b7f9016d09d72d40fdae2fd8ceac6b6234c7706214fd39c1cd1e609a0528c19930080546001600160a01b031981166001600160a01b03848116918217845560405192169182907f8be0079c531659141344cd1fd0a4f28419497f9722a3daafe3b4186f6b6457e090600090a3505050565b6040516bffffffffffffffffffffffff19606084901b1660208201526034810182905260009060540160405160208183030381529060405280519060200120905092915050565b6000610cf0836001600160a01b03841661252e565b611b3061163c565b600080516020612f9d833981519152805460ff191660011781557f62e78cea01bee320cd4e420270b5ea74000d11b0c9f74754ebdbfc544b05a25833611466565b6001600160a01b03811660009081526001830160205260408120541515610cf0565b6000866001600160801b031611611bf75760405162461bcd60e51b815260206004820152602260248201527f546f6b656e56657374696e673a206475726174696f6e206d757374206265203e604482015261020360f41b60648201526084016106fb565b6000836001600160801b031611611c505760405162461bcd60e51b815260206004820181905260248201527f546f6b656e56657374696e673a20616d6f756e74206d757374206265203e203060448201526064016106fb565b6000856001600160801b031611611cbe5760405162461bcd60e51b815260206004820152602c60248201527f546f6b656e56657374696e673a20736c696365506572696f645365636f6e647360448201526b0206d757374206265203e20360a41b60648201526084016106fb565b866001600160801b0316866001600160801b03161015611d305760405162461bcd60e51b815260206004820152602760248201527f546f6b656e56657374696e673a206475726174696f6e206d757374206265203e6044820152661e9031b634b33360c91b60648201526084016106fb565b6001600160a01b0389166000908152603a6020526040812054611d54908b90611acc565b90506000611d62898b612ef1565b90506040518061016001604052806001151581526020018c6001600160a01b03168152602001826001600160801b031681526020018b6001600160801b03168152602001896001600160801b03168152602001886001600160801b031681526020018715158152602001866001600160801b0316815260200160006001600160801b031681526020016000151581526020018560ff168152506038600084815260200190815260200160002060008201518160000160006101000a81548160ff02191690831515021790555060208201518160000160016101000a8154816001600160a01b0302191690836001600160a01b0316021790555060408201518160010160006101000a8154816001600160801b0302191690836001600160801b0316021790555060608201518160010160106101000a8154816001600160801b0302191690836001600160801b0316021790555060808201518160020160006101000a8154816001600160801b0302191690836001600160801b0316021790555060a08201518160020160106101000a8154816001600160801b0302191690836001600160801b0316021790555060c08201518160030160006101000a81548160ff02191690831515021790555060e08201518160030160016101000a8154816001600160801b0302191690836001600160801b031602179055506101008201518160040160006101000a8154816001600160801b0302191690836001600160801b031602179055506101208201518160040160106101000a81548160ff0219169083151502179055506101408201518160040160116101000a81548160ff021916908360ff160217905550905050846001600160801b0316603754611fe79190612ede565b60375560368054906000611ffa83612e8c565b90915550506001600160a01b038b166000908152603a60205260408120805460019290612028908490612ede565b909155506000905061203a898c612ef1565b6035546040516332e5d52760e11b81526001600160a01b038f81166004830152600060248301526001600160801b038a811660448401528681166064840152939093166084820181905260a4820188905293509116906365cbaa4e9060c401600060405180830381600087803b1580156120b357600080fd5b505af11580156120c7573d6000803e3d6000fd5b505050506000603560009054906101000a90046001600160a01b03166001600160a01b0316634edf5a8960008f6040518363ffffffff1660e01b81526004016121239291909182526001600160a01b0316602082015260400190565b602060405180830381865afa158015612140573d6000803e3d6000fd5b505050506040513d601f19601f820116820180604052508101906121649190612ec5565b90508060396000868152602001908152602001600020819055508c6001600160a01b03167f0d7e62b8eae1491e5336ee3a9e9c99eba55a1759a78aa6853afb7ac8a404b29e848e8d8d8c8e8d60405161220497969594939291906001600160801b039788168152958716602087015293861660408601529185166060850152909316608083015291151560a082015260ff9190911660c082015260e00190565b60405180910390a250505050505050505050505050565b604081015160009042906001600160801b031681108061223d57508261012001515b1561224b5750600092915050565b8260800151836060015161225f9190612ef1565b6001600160801b0316811061228a578261010001518360e001516122839190612ea5565b9392505050565b600083606001516001600160801b0316826122a59190612e1f565b60a08501519091506001600160801b031660006122c28284612f11565b905060006122d08383612f33565b9050600087608001516001600160801b0316828960e001516001600160801b03166122fb9190612f33565b6123059190612f11565b9050876101000151816123189190612ea5565b98975050505050505050565b61232c61257d565b600080546001600160a01b0319163390811790915561234a906125c6565b6123526125d7565b61235a6125e7565b60405143815233907f25ff68dd81b34665b5ba7e553ee5511bf6812e12adb4a7e2c0d9e26b3099ce799060200160405180910390a2565b61239961257d565b6108c86125ef565b60606000612283836125f7565b600081815260018301602052604081205480156124975760006123d2600183612e1f565b85549091506000906123e690600190612e1f565b905080821461244b57600086600001828154811061240657612406612e76565b906000526020600020015490508087600001848154811061242957612429612e76565b6000918252602080832090910192909255918252600188019052604090208390555b855486908061245c5761245c612f4a565b600190038181906000526020600020016000905590558560010160008681526020019081526020016000206000905560019350505050610cf3565b6000915050610cf3565b5092915050565b600080516020612f9d8339815191525460ff166108c857604051638dfc202b60e01b815260040160405180910390fd5b6124e182612653565b6040516001600160a01b038316907fbc7cd75a20ee27fd9adebab32041f755214dbc6bffa90cc0225b39da2e5c2d3b90600090a2805115612526576115ee82826126b8565b6108e561272e565b600081815260018301602052604081205461257557508154600181810184556000848152602080822090930184905584548482528286019093526040902091909155610cf3565b506000610cf3565b7ff0c57e16840df040f15088dc2f81fe391c3923bec73e23a9662efc9c229c6a0054600160401b900460ff166108c857604051631afcd79f60e31b815260040160405180910390fd5b6125ce61257d565b6113338161274d565b6125df61257d565b6108c8612755565b6108c861257d565b611a0361257d565b60608160000180548060200260200160405190810160405280929190818152602001828054801561264757602002820191906000526020600020905b815481526020019060010190808311612633575b50505050509050919050565b806001600160a01b03163b60000361268957604051634c9c8ce360e01b81526001600160a01b03821660048201526024016106fb565b600080516020612f7d83398151915280546001600160a01b0319166001600160a01b0392909216919091179055565b6060600080846001600160a01b0316846040516126d59190612f60565b600060405180830381855af49150503d8060008114612710576040519150601f19603f3d011682016040523d82523d6000602084013e612715565b606091505b5091509150612725858383612776565b95945050505050565b34156108c85760405163b398979f60e01b815260040160405180910390fd5b61130061257d565b61275d61257d565b600080516020612f9d833981519152805460ff19169055565b60608261278b57612786826127cb565b612283565b81511580156127a257506001600160a01b0384163b155b156124a157604051639996b31560e01b81526001600160a01b03851660048201526024016106fb565b8051156127db5780518082602001fd5b604051630a12f52160e11b815260040160405180910390fd5b6040805161016081018252600080825260208201819052918101829052606081018290526080810182905260a0810182905260c0810182905260e081018290526101008101829052610120810182905261014081019190915290565b80356001600160a01b038116811461286757600080fd5b919050565b60006020828403121561287e57600080fd5b610cf082612850565b634e487b7160e01b600052604160045260246000fd5b604051610120810167ffffffffffffffff811182821017156128c1576128c1612887565b60405290565b604051601f8201601f1916810167ffffffffffffffff811182821017156128f0576128f0612887565b604052919050565b6000806040838503121561290b57600080fd5b61291483612850565b915060208084013567ffffffffffffffff8082111561293257600080fd5b818601915086601f83011261294657600080fd5b81358181111561295857612958612887565b61296a601f8201601f191685016128c7565b9150808252878482850101111561298057600080fd5b80848401858401376000848284010152508093505050509250929050565b6000602082840312156129b057600080fd5b5035919050565b80356001600160801b038116811461286757600080fd5b600080604083850312156129e157600080fd5b823591506129f1602084016129b7565b90509250929050565b81511515815261016081016020830151612a1f60208401826001600160a01b03169052565b506040830151612a3a60408401826001600160801b03169052565b506060830151612a5560608401826001600160801b03169052565b506080830151612a7060808401826001600160801b03169052565b5060a0830151612a8b60a08401826001600160801b03169052565b5060c0830151612a9f60c084018215159052565b5060e0830151612aba60e08401826001600160801b03169052565b50610100838101516001600160801b031690830152610120808401511515908301526101409283015160ff16929091019190915290565b8035801515811461286757600080fd5b803560ff8116811461286757600080fd5b60006020808385031215612b2557600080fd5b823567ffffffffffffffff80821115612b3d57600080fd5b818501915085601f830112612b5157600080fd5b813581811115612b6357612b63612887565b612b71848260051b016128c7565b8181528481019250610120918202840185019188831115612b9157600080fd5b938501935b82851015612c575780858a031215612bae5760008081fd5b612bb661289d565b612bbf86612850565b8152612bcc8787016129b7565b878201526040612bdd8188016129b7565b908201526060612bee8782016129b7565b908201526080612bff8782016129b7565b9082015260a0612c10878201612af1565b9082015260c0612c218782016129b7565b9082015260e0612c32878201612b01565b90820152610100612c44878201612b01565b9082015284529384019392850192612b96565b50979650505050505050565b60008060408385031215612c7657600080fd5b612c7f83612850565b946020939093013593505050565b60008060008060008060008060006101208a8c031215612cac57600080fd5b612cb58a612850565b9850612cc360208b016129b7565b9750612cd160408b016129b7565b9650612cdf60608b016129b7565b9550612ced60808b016129b7565b9450612cfb60a08b01612af1565b9350612d0960c08b016129b7565b9250612d1760e08b01612b01565b91506101008a013590509295985092959850929598565b60005b83811015612d49578181015183820152602001612d31565b50506000910152565b6020815260008251806020840152612d71816040850160208701612d2e565b601f01601f19169190910160400192915050565b6020808252825182820181905260009190848201906040850190845b81811015612dc65783516001600160a01b031683529284019291840191600101612da1565b50909695505050505050565b6020808252601a908201527f4261736555706772616461626c653a206f6e6c792061646d696e000000000000604082015260600190565b634e487b7160e01b600052601160045260246000fd5b81810381811115610cf357610cf3612e09565b60208082526024908201527f546f6b656e56657374696e673a206f6e6c7920616c6c6f7765642061646472656040820152637373657360e01b606082015260800190565b634e487b7160e01b600052603260045260246000fd5b600060018201612e9e57612e9e612e09565b5060010190565b6001600160801b038281168282160390808211156124a1576124a1612e09565b600060208284031215612ed757600080fd5b5051919050565b80820180821115610cf357610cf3612e09565b6001600160801b038181168382160190808211156124a1576124a1612e09565b600082612f2e57634e487b7160e01b600052601260045260246000fd5b500490565b8082028115828204841417610cf357610cf3612e09565b634e487b7160e01b600052603160045260246000fd5b60008251612f72818460208701612d2e565b919091019291505056fe360894a13ba1a3210667c828492db98dca3e2076cc3735a920a3ca505d382bbccd5ed15c6e187e77e9aee88184c21f4f2182ab5827cb3b7e07fbedcd63f03300a26469706673582212208954f5d84d52109b71b2efed956c095578edc5b8a4deb44fa96e066db1b2bfcb64736f6c63430008140033",
  "linkReferences": {},
  "deployedLinkReferences": {}
}