{
  "_format": "hh-sol-artifact-1",
  "contractName": "TokenVesting",
  "sourceName": "contracts/launch/TokenVesting.sol",
  "abi": [
    {
      "inputs": [],
      "stateMutability": "nonpayable",
      "type": "constructor"
    },
    {
      "inputs": [
        {
          "internalType": "address",
          "name": "target",
          "type": "address"
        }
      ],
      "name": "AddressEmptyCode",
      "type": "error"
    },
    {
      "inputs": [
        {
          "internalType": "address",
          "name": "account",
          "type": "address"
        }
      ],
      "name": "AddressInsufficientBalance",
      "type": "error"
    },
    {
      "inputs": [
        {
          "internalType": "address",
          "name": "implementation",
          "type": "address"
        }
      ],
      "name": "ERC1967InvalidImplementation",
      "type": "error"
    },
    {
      "inputs": [],
      "name": "ERC1967NonPayable",
      "type": "error"
    },
    {
      "inputs": [],
      "name": "EnforcedPause",
      "type": "error"
    },
    {
      "inputs": [],
      "name": "ExpectedPause",
      "type": "error"
    },
    {
      "inputs": [],
      "name": "FailedInnerCall",
      "type": "error"
    },
    {
      "inputs": [],
      "name": "InvalidInitialization",
      "type": "error"
    },
    {
      "inputs": [],
      "name": "NotInitializing",
      "type": "error"
    },
    {
      "inputs": [
        {
          "internalType": "address",
          "name": "owner",
          "type": "address"
        }
      ],
      "name": "OwnableInvalidOwner",
      "type": "error"
    },
    {
      "inputs": [
        {
          "internalType": "address",
          "name": "account",
          "type": "address"
        }
      ],
      "name": "OwnableUnauthorizedAccount",
      "type": "error"
    },
    {
      "inputs": [],
      "name": "ReentrancyGuardReentrantCall",
      "type": "error"
    },
    {
      "inputs": [
        {
          "internalType": "address",
          "name": "token",
          "type": "address"
        }
      ],
      "name": "SafeERC20FailedOperation",
      "type": "error"
    },
    {
      "inputs": [],
      "name": "UUPSUnauthorizedCallContext",
      "type": "error"
    },
    {
      "inputs": [
        {
          "internalType": "bytes32",
          "name": "slot",
          "type": "bytes32"
        }
      ],
      "name": "UUPSUnsupportedProxiableUUID",
      "type": "error"
    },
    {
      "anonymous": false,
      "inputs": [
        {
          "indexed": true,
          "internalType": "address",
          "name": "_address",
          "type": "address"
        }
      ],
      "name": "AddAllowedAddress",
      "type": "event"
    },
    {
      "anonymous": false,
      "inputs": [
        {
          "indexed": false,
          "internalType": "uint64",
          "name": "version",
          "type": "uint64"
        }
      ],
      "name": "Initialized",
      "type": "event"
    },
    {
      "anonymous": false,
      "inputs": [
        {
          "indexed": true,
          "internalType": "address",
          "name": "executor",
          "type": "address"
        },
        {
          "indexed": false,
          "internalType": "uint256",
          "name": "at",
          "type": "uint256"
        }
      ],
      "name": "Initialized",
      "type": "event"
    },
    {
      "anonymous": false,
      "inputs": [
        {
          "indexed": true,
          "internalType": "address",
          "name": "previousOwner",
          "type": "address"
        },
        {
          "indexed": true,
          "internalType": "address",
          "name": "newOwner",
          "type": "address"
        }
      ],
      "name": "OwnershipTransferred",
      "type": "event"
    },
    {
      "anonymous": false,
      "inputs": [
        {
          "indexed": false,
          "internalType": "address",
          "name": "account",
          "type": "address"
        }
      ],
      "name": "Paused",
      "type": "event"
    },
    {
      "anonymous": false,
      "inputs": [
        {
          "indexed": true,
          "internalType": "bytes32",
          "name": "vestingScheduleId",
          "type": "bytes32"
        },
        {
          "indexed": true,
          "internalType": "address",
          "name": "to",
          "type": "address"
        },
        {
          "indexed": false,
          "internalType": "uint256",
          "name": "amount",
          "type": "uint256"
        }
      ],
      "name": "Released",
      "type": "event"
    },
    {
      "anonymous": false,
      "inputs": [
        {
          "indexed": true,
          "internalType": "address",
          "name": "_address",
          "type": "address"
        }
      ],
      "name": "RemoveAllowedAddress",
      "type": "event"
    },
    {
      "anonymous": false,
      "inputs": [
        {
          "indexed": true,
          "internalType": "bytes32",
          "name": "vestingScheduleId",
          "type": "bytes32"
        },
        {
          "indexed": false,
          "internalType": "uint256",
          "name": "amount",
          "type": "uint256"
        }
      ],
      "name": "Revoked",
      "type": "event"
    },
    {
      "anonymous": false,
      "inputs": [
        {
          "indexed": true,
          "internalType": "address",
          "name": "_address",
          "type": "address"
        }
      ],
      "name": "SetAdminAddress",
      "type": "event"
    },
    {
      "anonymous": false,
      "inputs": [
        {
          "indexed": false,
          "internalType": "address",
          "name": "account",
          "type": "address"
        }
      ],
      "name": "Unpaused",
      "type": "event"
    },
    {
      "anonymous": false,
      "inputs": [
        {
          "indexed": true,
          "internalType": "address",
          "name": "implementation",
          "type": "address"
        }
      ],
      "name": "Upgraded",
      "type": "event"
    },
    {
      "anonymous": false,
      "inputs": [
        {
          "indexed": true,
          "internalType": "address",
          "name": "beneficiary",
          "type": "address"
        },
        {
          "indexed": false,
          "internalType": "uint256",
          "name": "cliff",
          "type": "uint256"
        },
        {
          "indexed": false,
          "internalType": "uint256",
          "name": "start",
          "type": "uint256"
        },
        {
          "indexed": false,
          "internalType": "uint256",
          "name": "duration",
          "type": "uint256"
        },
        {
          "indexed": false,
          "internalType": "uint256",
          "name": "slicePeriodSeconds",
          "type": "uint256"
        },
        {
          "indexed": false,
          "internalType": "uint256",
          "name": "amountTotal",
          "type": "uint256"
        },
        {
          "indexed": false,
          "internalType": "bool",
          "name": "revocable",
          "type": "bool"
        },
        {
          "indexed": false,
          "internalType": "uint8",
          "name": "vestingType",
          "type": "uint8"
        }
      ],
      "name": "VestingScheduleAdded",
      "type": "event"
    },
    {
      "anonymous": false,
      "inputs": [
        {
          "indexed": true,
          "internalType": "address",
          "name": "to",
          "type": "address"
        },
        {
          "indexed": false,
          "internalType": "uint256",
          "name": "amount",
          "type": "uint256"
        }
      ],
      "name": "Withdraw",
      "type": "event"
    },
    {
      "inputs": [],
      "name": "UPGRADE_INTERFACE_VERSION",
      "outputs": [
        {
          "internalType": "string",
          "name": "",
          "type": "string"
        }
      ],
      "stateMutability": "view",
      "type": "function"
    },
    {
      "inputs": [
        {
          "internalType": "address",
          "name": "_address",
          "type": "address"
        }
      ],
      "name": "addAllowedAddress",
      "outputs": [],
      "stateMutability": "nonpayable",
      "type": "function"
    },
    {
      "inputs": [],
      "name": "adminAddress",
      "outputs": [
        {
          "internalType": "address",
          "name": "",
          "type": "address"
        }
      ],
      "stateMutability": "view",
      "type": "function"
    },
    {
      "inputs": [
        {
          "internalType": "bytes32",
          "name": "vestingScheduleId",
          "type": "bytes32"
        }
      ],
      "name": "computeReleasableAmount",
      "outputs": [
        {
          "internalType": "uint256",
          "name": "",
          "type": "uint256"
        }
      ],
      "stateMutability": "view",
      "type": "function"
    },
    {
      "inputs": [
        {
          "internalType": "address",
          "name": "holder",
          "type": "address"
        },
        {
          "internalType": "uint256",
          "name": "index",
          "type": "uint256"
        }
      ],
      "name": "computeVestingScheduleIdForAddressAndIndex",
      "outputs": [
        {
          "internalType": "bytes32",
          "name": "",
          "type": "bytes32"
        }
      ],
      "stateMutability": "pure",
      "type": "function"
    },
    {
      "inputs": [
        {
          "internalType": "address",
          "name": "_beneficiary",
          "type": "address"
        },
        {
          "internalType": "uint128",
          "name": "_start",
          "type": "uint128"
        },
        {
          "internalType": "uint128",
          "name": "_cliff",
          "type": "uint128"
        },
        {
          "internalType": "uint128",
          "name": "_duration",
          "type": "uint128"
        },
        {
          "internalType": "uint128",
          "name": "_slicePeriodSeconds",
          "type": "uint128"
        },
        {
          "internalType": "bool",
          "name": "_revocable",
          "type": "bool"
        },
        {
          "internalType": "uint128",
          "name": "_amount",
          "type": "uint128"
        },
        {
          "internalType": "uint8",
          "name": "_vestingType",
          "type": "uint8"
        },
        {
          "internalType": "uint256",
          "name": "_lockId",
          "type": "uint256"
        }
      ],
      "name": "createVestingSchedule",
      "outputs": [],
      "stateMutability": "nonpayable",
      "type": "function"
    },
    {
      "inputs": [
        {
          "components": [
            {
              "internalType": "address",
              "name": "beneficiary",
              "type": "address"
            },
            {
              "internalType": "uint128",
              "name": "start",
              "type": "uint128"
            },
            {
              "internalType": "uint128",
              "name": "cliff",
              "type": "uint128"
            },
            {
              "internalType": "uint128",
              "name": "duration",
              "type": "uint128"
            },
            {
              "internalType": "uint128",
              "name": "slicePeriodSeconds",
              "type": "uint128"
            },
            {
              "internalType": "bool",
              "name": "revocable",
              "type": "bool"
            },
            {
              "internalType": "uint128",
              "name": "amount",
              "type": "uint128"
            },
            {
              "internalType": "uint8",
              "name": "vestingType",
              "type": "uint8"
            },
            {
              "internalType": "uint8",
              "name": "lockId",
              "type": "uint8"
            }
          ],
          "internalType": "struct ITokenVesting.InitialVestingSchedule[]",
          "name": "_vestingInfo",
          "type": "tuple[]"
        }
      ],
      "name": "createVestingScheduleBatch",
      "outputs": [],
      "stateMutability": "nonpayable",
      "type": "function"
    },
    {
      "inputs": [],
      "name": "currentVestingId",
      "outputs": [
        {
          "internalType": "uint256",
          "name": "",
          "type": "uint256"
        }
      ],
      "stateMutability": "view",
      "type": "function"
    },
    {
      "inputs": [],
      "name": "getAllowedAddresses",
      "outputs": [
        {
          "internalType": "address[]",
          "name": "",
          "type": "address[]"
        }
      ],
      "stateMutability": "view",
      "type": "function"
    },
    {
      "inputs": [
        {
          "internalType": "address",
          "name": "holder",
          "type": "address"
        }
      ],
      "name": "getLastVestingScheduleForHolder",
      "outputs": [
        {
          "components": [
            {
              "internalType": "bool",
              "name": "initialized",
              "type": "bool"
            },
            {
              "internalType": "address",
              "name": "beneficiary",
              "type": "address"
            },
            {
              "internalType": "uint128",
              "name": "cliff",
              "type": "uint128"
            },
            {
              "internalType": "uint128",
              "name": "start",
              "type": "uint128"
            },
            {
              "internalType": "uint128",
              "name": "duration",
              "type": "uint128"
            },
            {
              "internalType": "uint128",
              "name": "slicePeriodSeconds",
              "type": "uint128"
            },
            {
              "internalType": "bool",
              "name": "revocable",
              "type": "bool"
            },
            {
              "internalType": "uint128",
              "name": "amountTotal",
              "type": "uint128"
            },
            {
              "internalType": "uint128",
              "name": "released",
              "type": "uint128"
            },
            {
              "internalType": "bool",
              "name": "revoked",
              "type": "bool"
            },
            {
              "internalType": "uint8",
              "name": "vestingType",
              "type": "uint8"
            }
          ],
          "internalType": "struct TokenVesting.VestingSchedule",
          "name": "",
          "type": "tuple"
        }
      ],
      "stateMutability": "view",
      "type": "function"
    },
    {
      "inputs": [
        {
          "internalType": "address",
          "name": "holder",
          "type": "address"
        },
        {
          "internalType": "uint256",
          "name": "index",
          "type": "uint256"
        }
      ],
      "name": "getVestingScheduleByAddressAndIndex",
      "outputs": [
        {
          "components": [
            {
              "internalType": "bool",
              "name": "initialized",
              "type": "bool"
            },
            {
              "internalType": "address",
              "name": "beneficiary",
              "type": "address"
            },
            {
              "internalType": "uint128",
              "name": "cliff",
              "type": "uint128"
            },
            {
              "internalType": "uint128",
              "name": "start",
              "type": "uint128"
            },
            {
              "internalType": "uint128",
              "name": "duration",
              "type": "uint128"
            },
            {
              "internalType": "uint128",
              "name": "slicePeriodSeconds",
              "type": "uint128"
            },
            {
              "internalType": "bool",
              "name": "revocable",
              "type": "bool"
            },
            {
              "internalType": "uint128",
              "name": "amountTotal",
              "type": "uint128"
            },
            {
              "internalType": "uint128",
              "name": "released",
              "type": "uint128"
            },
            {
              "internalType": "bool",
              "name": "revoked",
              "type": "bool"
            },
            {
              "internalType": "uint8",
              "name": "vestingType",
              "type": "uint8"
            }
          ],
          "internalType": "struct TokenVesting.VestingSchedule",
          "name": "",
          "type": "tuple"
        }
      ],
      "stateMutability": "view",
      "type": "function"
    },
    {
      "inputs": [],
      "name": "getWithdrawableAmount",
      "outputs": [
        {
          "internalType": "uint256",
          "name": "",
          "type": "uint256"
        }
      ],
      "stateMutability": "view",
      "type": "function"
    },
    {
      "inputs": [
        {
          "internalType": "address",
          "name": "",
          "type": "address"
        }
      ],
      "name": "holdersVestingCount",
      "outputs": [
        {
          "internalType": "uint256",
          "name": "",
          "type": "uint256"
        }
      ],
      "stateMutability": "view",
      "type": "function"
    },
    {
      "inputs": [
        {
          "internalType": "address",
          "name": "_token",
          "type": "address"
        }
      ],
      "name": "initialize",
      "outputs": [],
      "stateMutability": "nonpayable",
      "type": "function"
    },
    {
      "inputs": [],
      "name": "owner",
      "outputs": [
        {
          "internalType": "address",
          "name": "",
          "type": "address"
        }
      ],
      "stateMutability": "view",
      "type": "function"
    },
    {
      "inputs": [],
      "name": "pause",
      "outputs": [],
      "stateMutability": "nonpayable",
      "type": "function"
    },
    {
      "inputs": [],
      "name": "paused",
      "outputs": [
        {
          "internalType": "bool",
          "name": "",
          "type": "bool"
        }
      ],
      "stateMutability": "view",
      "type": "function"
    },
    {
      "inputs": [],
      "name": "proxiableUUID",
      "outputs": [
        {
          "internalType": "bytes32",
          "name": "",
          "type": "bytes32"
        }
      ],
      "stateMutability": "view",
      "type": "function"
    },
    {
      "inputs": [
        {
          "internalType": "bytes32",
          "name": "vestingScheduleId",
          "type": "bytes32"
        },
        {
          "internalType": "uint128",
          "name": "amount",
          "type": "uint128"
        }
      ],
      "name": "release",
      "outputs": [],
      "stateMutability": "nonpayable",
      "type": "function"
    },
    {
      "inputs": [
        {
          "internalType": "address",
          "name": "_address",
          "type": "address"
        }
      ],
      "name": "removeAllowedAddress",
      "outputs": [],
      "stateMutability": "nonpayable",
      "type": "function"
    },
    {
      "inputs": [],
      "name": "renounceOwnership",
      "outputs": [],
      "stateMutability": "nonpayable",
      "type": "function"
    },
    {
      "inputs": [
        {
          "internalType": "bytes32",
          "name": "vestingScheduleId",
          "type": "bytes32"
        }
      ],
      "name": "revoke",
      "outputs": [],
      "stateMutability": "nonpayable",
      "type": "function"
    },
    {
      "inputs": [
        {
          "internalType": "address",
          "name": "_address",
          "type": "address"
        }
      ],
      "name": "setAdminAddress",
      "outputs": [],
      "stateMutability": "nonpayable",
      "type": "function"
    },
    {
      "inputs": [],
      "name": "token",
      "outputs": [
        {
          "internalType": "contract IERC20",
          "name": "",
          "type": "address"
        }
      ],
      "stateMutability": "view",
      "type": "function"
    },
    {
      "inputs": [
        {
          "internalType": "address",
          "name": "newOwner",
          "type": "address"
        }
      ],
      "name": "transferOwnership",
      "outputs": [],
      "stateMutability": "nonpayable",
      "type": "function"
    },
    {
      "inputs": [],
      "name": "unpause",
      "outputs": [],
      "stateMutability": "nonpayable",
      "type": "function"
    },
    {
      "inputs": [
        {
          "internalType": "address",
          "name": "newImplementation",
          "type": "address"
        },
        {
          "internalType": "bytes",
          "name": "data",
          "type": "bytes"
        }
      ],
      "name": "upgradeToAndCall",
      "outputs": [],
      "stateMutability": "payable",
      "type": "function"
    },
    {
      "inputs": [
        {
          "internalType": "bytes32",
          "name": "",
          "type": "bytes32"
        }
      ],
      "name": "vestingSchedules",
      "outputs": [
        {
          "internalType": "bool",
          "name": "initialized",
          "type": "bool"
        },
        {
          "internalType": "address",
          "name": "beneficiary",
          "type": "address"
        },
        {
          "internalType": "uint128",
          "name": "cliff",
          "type": "uint128"
        },
        {
          "internalType": "uint128",
          "name": "start",
          "type": "uint128"
        },
        {
          "internalType": "uint128",
          "name": "duration",
          "type": "uint128"
        },
        {
          "internalType": "uint128",
          "name": "slicePeriodSeconds",
          "type": "uint128"
        },
        {
          "internalType": "bool",
          "name": "revocable",
          "type": "bool"
        },
        {
          "internalType": "uint128",
          "name": "amountTotal",
          "type": "uint128"
        },
        {
          "internalType": "uint128",
          "name": "released",
          "type": "uint128"
        },
        {
          "internalType": "bool",
          "name": "revoked",
          "type": "bool"
        },
        {
          "internalType": "uint8",
          "name": "vestingType",
          "type": "uint8"
        }
      ],
      "stateMutability": "view",
      "type": "function"
    },
    {
      "inputs": [],
      "name": "vestingSchedulesTotalAmount",
      "outputs": [
        {
          "internalType": "uint256",
          "name": "",
          "type": "uint256"
        }
      ],
      "stateMutability": "view",
      "type": "function"
    },
    {
      "inputs": [
        {
          "internalType": "address",
          "name": "to",
          "type": "address"
        },
        {
          "internalType": "uint256",
          "name": "amount",
          "type": "uint256"
        }
      ],
      "name": "withdraw",
      "outputs": [],
      "stateMutability": "nonpayable",
      "type": "function"
    }
  ],
  "bytecode": "0x60a0604052306080523480156200001557600080fd5b506200002062000026565b620000da565b7ff0c57e16840df040f15088dc2f81fe391c3923bec73e23a9662efc9c229c6a00805468010000000000000000900460ff1615620000775760405163f92ee8a960e01b815260040160405180910390fd5b80546001600160401b0390811614620000d75780546001600160401b0319166001600160401b0390811782556040519081527fc7f505b2f371ae2175ee4913f4499e1f2633a7b5936321eed1cdaeb6115181d29060200160405180910390a15b50565b60805161305b62000104600039600081816114b4015281816114dd015261161e015261305b6000f3fe6080604052600436106101cd5760003560e01c80638da5cb5b116100f7578063e808dc1411610095578063f51321d711610064578063f51321d714610620578063fc0c546a14610640578063fc6f946814610660578063ff4ff86f1461068057600080fd5b8063e808dc141461059e578063ea1bb3d5146105c0578063f2fde38b146105e0578063f3fef3a31461060057600080fd5b8063a931208f116100d1578063a931208f14610500578063ad3cb1cc14610520578063b75c7dc61461055e578063c4d66de81461057e57600080fd5b80638da5cb5b146104a857806390be10cc146104d55780639d8535ad146104ea57600080fd5b8063604178871161016f57806381788e2b1161013e57806381788e2b146104335780638456cb591461045357806387b9c84a146104685780638af104da1461048857600080fd5b806360417887146102c1578063646fd909146103d1578063715018a6146103f15780637e913dc61461040657600080fd5b8063471121d1116101ab578063471121d1146102295780634f1ef2861461026957806352d1902d1461027c5780635c975abb1461029157600080fd5b80632c1e816d146101d25780633c9d93b8146101f45780633f4ba83a14610214575b600080fd5b3480156101de57600080fd5b506101f26101ed36600461288d565b610696565b005b34801561020057600080fd5b506101f261020f36600461288d565b610734565b34801561022057600080fd5b506101f26107c4565b34801561023557600080fd5b5061025661024436600461288d565b60396020526000908152604090205481565b6040519081526020015b60405180910390f35b6101f2610277366004612919565b61081b565b34801561028857600080fd5b5061025661083a565b34801561029d57600080fd5b50600080516020612fe68339815191525460ff166040519015158152602001610260565b3480156102cd57600080fd5b5061035c6102dc3660046129bf565b6038602052600090815260409020805460018201546002830154600384015460049094015460ff808516956001600160a01b036101009687900416956001600160801b0380871696600160801b908190048216968083169690829004831695858116959490940483169392811692918104821691600160881b909104168b565b604080519b15158c526001600160a01b03909a1660208c01526001600160801b03988916998b019990995295871660608a0152938616608089015291851660a0880152151560c0870152831660e086015291909116610100840152151561012083015260ff1661014082015261016001610260565b3480156103dd57600080fd5b506101f26103ec3660046129ef565b610857565b3480156103fd57600080fd5b506101f26108cc565b34801561041257600080fd5b5061042661042136600461288d565b6108de565b6040516102609190612a1b565b34801561043f57600080fd5b506101f261044e36600461288d565b6109e0565b34801561045f57600080fd5b506101f2610a70565b34801561047457600080fd5b506101f2610483366004612b3c565b610ac5565b34801561049457600080fd5b506102566104a3366004612c8d565b610c06565b3480156104b457600080fd5b506104bd610c1b565b6040516001600160a01b039091168152602001610260565b3480156104e157600080fd5b50610256610c49565b3480156104f657600080fd5b5061025660375481565b34801561050c57600080fd5b506101f261051b366004612cb7565b610cc9565b34801561052c57600080fd5b50610551604051806040016040528060058152602001640352e302e360dc1b81525081565b6040516102609190612d7e565b34801561056a57600080fd5b506101f26105793660046129bf565b610d0d565b34801561058a57600080fd5b506101f261059936600461288d565b610f83565b3480156105aa57600080fd5b506105b36110c6565b6040516102609190612db1565b3480156105cc57600080fd5b506102566105db3660046129bf565b6110d2565b3480156105ec57600080fd5b506101f26105fb36600461288d565b6111ec565b34801561060c57600080fd5b506101f261061b366004612c8d565b61122a565b34801561062c57600080fd5b5061042661063b366004612c8d565b61135b565b34801561064c57600080fd5b506035546104bd906001600160a01b031681565b34801561066c57600080fd5b506000546104bd906001600160a01b031681565b34801561068c57600080fd5b5061025660365481565b6000546001600160a01b03163314806106c757506106b2610c1b565b6001600160a01b0316336001600160a01b0316145b6106ec5760405162461bcd60e51b81526004016106e390612dfe565b60405180910390fd5b600080546001600160a01b0319166001600160a01b038316908117825560405190917f030ff471e8e3d5a26cd9ee887eb024f145aaf27e12cd2f7bdcd14aeb40cf333191a250565b6000546001600160a01b03163314806107655750610750610c1b565b6001600160a01b0316336001600160a01b0316145b6107815760405162461bcd60e51b81526004016106e390612dfe565b61078c603382611434565b506040516001600160a01b038216907fec953dd0c3cc0e610c4084a9ac18540acf1e88f392862dde4d74baa9f5aebc9e90600090a250565b6000546001600160a01b03163314806107f557506107e0610c1b565b6001600160a01b0316336001600160a01b0316145b6108115760405162461bcd60e51b81526004016106e390612dfe565b610819611449565b565b6108236114a9565b61082c8261154e565b6108368282611556565b5050565b6000610844611613565b50600080516020612fc683398151915290565b61085f61165c565b61086761168d565b600082815260386020526040902054829060ff1661088457600080fd5b600081815260386020526040902060040154600160801b900460ff16156108aa57600080fd5b6108b483836116c5565b50610836600160008051602061300683398151915255565b6108d46119bb565b61081960006119ed565b6108e6612815565b6001600160a01b0382166000908152603960205260408120546038919061091a90859061091590600190612e4b565b611a5e565b81526020808201929092526040908101600020815161016081018352815460ff808216151583526001600160a01b0361010092839004169583019590955260018301546001600160801b0380821695840195909552600160801b908190048516606084015260028401548086166080850152819004851660a08401526003840154808716151560c0850152829004851660e08401526004909301549384169082015290820483161515610120820152600160881b90910490911661014082015292915050565b6000546001600160a01b0316331480610a1157506109fc610c1b565b6001600160a01b0316336001600160a01b0316145b610a2d5760405162461bcd60e51b81526004016106e390612dfe565b610a38603382611aa5565b506040516001600160a01b038216907f3606fcf39703633cb9c4be698c208c42df5a457031fcd4370c9bb3bd127f8f1290600090a250565b6000546001600160a01b0316331480610aa15750610a8c610c1b565b6001600160a01b0316336001600160a01b0316145b610abd5760405162461bcd60e51b81526004016106e390612dfe565b610819611aba565b33610ad1603382611b03565b610aed5760405162461bcd60e51b81526004016106e390612e5e565b60005b8251811015610c0157610bf1838281518110610b0e57610b0e612ea2565b602002602001015160000151848381518110610b2c57610b2c612ea2565b602002602001015160200151858481518110610b4a57610b4a612ea2565b602002602001015160400151868581518110610b6857610b68612ea2565b602002602001015160600151878681518110610b8657610b86612ea2565b602002602001015160800151888781518110610ba457610ba4612ea2565b602002602001015160a00151898881518110610bc257610bc2612ea2565b602002602001015160c001518a8981518110610be057610be0612ea2565b602002602001015160e00151611b25565b610bfa81612eb8565b9050610af0565b505050565b6000610c128383611a5e565b90505b92915050565b7f9016d09d72d40fdae2fd8ceac6b6234c7706214fd39c1cd1e609a0528c199300546001600160a01b031690565b6037546035546040516370a0823160e01b8152306004820152600092916001600160a01b0316906370a0823190602401602060405180830381865afa158015610c96573d6000803e3d6000fd5b505050506040513d601f19601f82011682018060405250810190610cba9190612ed1565b610cc49190612e4b565b905090565b33610cd5603382611b03565b610cf15760405162461bcd60e51b81526004016106e390612e5e565b610d018a8a8a8a8a8a8a8a611b25565b50505050505050505050565b6000546001600160a01b0316331480610d3e5750610d29610c1b565b6001600160a01b0316336001600160a01b0316145b610d5a5760405162461bcd60e51b81526004016106e390612dfe565b600081815260386020526040902054819060ff16610d7757600080fd5b600081815260386020526040902060040154600160801b900460ff1615610d9d57600080fd5b6000828152603860205260409020600381015460ff16610e0e5760405162461bcd60e51b815260206004820152602660248201527f546f6b656e56657374696e673a2076657374696e67206973206e6f74207265766044820152656f6361626c6560d01b60648201526084016106e3565b6040805161016081018252825460ff808216151583526001600160a01b036101009283900416602084015260018501546001600160801b0380821695850195909552600160801b908190048516606085015260028601548086166080860152819004851660a08501526003860154808316151560c0860152839004851660e085015260048601549485169284019290925290830481161515610120830152600160881b909204909116610140820152600090610ec9906120dc565b90506001600160801b03811615610ee457610ee484826116c5565b60048201546003830154600091610f0d916001600160801b039182169161010090910416612eea565b6001600160801b0316905080603754610f269190612e4b565b60375560048301805460ff60801b1916600160801b1790556040516001600160801b038316815285907ff53e4c807734a99e87fb386d2952cda1e1aa71600280ecf91f5eaae69677c3339060200160405180910390a25050505050565b7ff0c57e16840df040f15088dc2f81fe391c3923bec73e23a9662efc9c229c6a008054600160401b810460ff16159067ffffffffffffffff16600081158015610fc95750825b905060008267ffffffffffffffff166001148015610fe65750303b155b905081158015610ff4575080155b156110125760405163f92ee8a960e01b815260040160405180910390fd5b845467ffffffffffffffff19166001178555831561103c57845460ff60401b1916600160401b1785555b603580546001600160a01b0319166001600160a01b0388161790556001603655611067603333611aa5565b506110706121e5565b611078612252565b83156110be57845460ff60401b19168555604051600181527fc7f505b2f371ae2175ee4913f4499e1f2633a7b5936321eed1cdaeb6115181d29060200160405180910390a15b505050505050565b6060610cc46033612262565b600081815260386020526040812054829060ff166110ef57600080fd5b600081815260386020526040902060040154600160801b900460ff161561111557600080fd5b600083815260386020908152604091829020825161016081018452815460ff808216151583526001600160a01b0361010092839004169483019490945260018301546001600160801b0380821696840196909652600160801b908190048616606084015260028401548087166080850152819004861660a08401526003840154808616151560c0850152829004861660e08401526004909301549485169082015290830482161515610120820152600160881b909204166101408201526111db816120dc565b6001600160801b0316949350505050565b6111f46119bb565b6001600160a01b03811661121e57604051631e4fbdf760e01b8152600060048201526024016106e3565b611227816119ed565b50565b61123261168d565b6000546001600160a01b0316331480611263575061124e610c1b565b6001600160a01b0316336001600160a01b0316145b61127f5760405162461bcd60e51b81526004016106e390612dfe565b80611288610c49565b10156112ea5760405162461bcd60e51b815260206004820152602b60248201527f546f6b656e56657374696e673a206e6f7420656e6f756768207769746864726160448201526a7761626c652066756e647360a81b60648201526084016106e3565b603554611301906001600160a01b0316838361226f565b816001600160a01b03167f884edad9ce6fa2440d8a54cc123490eb96d2768479d49ff9c7366125a94243648260405161133c91815260200190565b60405180910390a2610836600160008051602061300683398151915255565b611363612815565b600061136f8484611a5e565b600090815260386020908152604091829020825161016081018452815460ff80821615158352610100918290046001600160a01b03169483019490945260018301546001600160801b0380821696840196909652600160801b908190048616606084015260028401548087166080850152819004861660a08401526003840154808616151560c0850152829004861660e08401526004909301549485169082015290830482161515610120820152600160881b90920416610140820152949350505050565b6000610c12836001600160a01b0384166122c1565b6114516123bb565b600080516020612fe6833981519152805460ff191681557f5db9ee0a495bf2e6ff9c91a7834c1ba4fdd244a5e8aa4e537bd38aeae4b073aa335b6040516001600160a01b03909116815260200160405180910390a150565b306001600160a01b037f000000000000000000000000000000000000000000000000000000000000000016148061153057507f00000000000000000000000000000000000000000000000000000000000000006001600160a01b0316611524600080516020612fc6833981519152546001600160a01b031690565b6001600160a01b031614155b156108195760405163703e46dd60e11b815260040160405180910390fd5b6112276119bb565b816001600160a01b03166352d1902d6040518163ffffffff1660e01b8152600401602060405180830381865afa9250505080156115b0575060408051601f3d908101601f191682019092526115ad91810190612ed1565b60015b6115d857604051634c9c8ce360e01b81526001600160a01b03831660048201526024016106e3565b600080516020612fc6833981519152811461160957604051632a87526960e21b8152600481018290526024016106e3565b610c0183836123eb565b306001600160a01b037f000000000000000000000000000000000000000000000000000000000000000016146108195760405163703e46dd60e11b815260040160405180910390fd5b600080516020612fe68339815191525460ff16156108195760405163d93c066560e01b815260040160405180910390fd5b6000805160206130068339815191528054600119016116bf57604051633ee5aeb560e01b815260040160405180910390fd5b60029055565b6000828152603860205260408120805490916101009091046001600160a01b03163314906116f1610c1b565b6001600160a01b0316336001600160a01b031614905081806117105750805b61178d5760405162461bcd60e51b815260206004820152604260248201527f546f6b656e56657374696e673a206f6e6c792062656e6566696369617279206160448201527f6e64206f776e65722063616e2072656c656173652076657374656420746f6b656064820152616e7360f01b608482015260a4016106e3565b6040805161016081018252845460ff808216151583526001600160a01b036101009283900416602084015260018701546001600160801b0380821695850195909552600160801b908190048516606085015260028801548086166080860152819004851660a08501526003880154808316151560c0860152839004851660e085015260048801549485169284019290925290830481161515610120830152600160881b909204909116610140820152600090611848906120dc565b6001600160801b03169050846001600160801b03168110156118d25760405162461bcd60e51b815260206004820152603d60248201527f546f6b656e56657374696e673a2063616e6e6f742072656c6561736520746f6b60448201527f656e732c206e6f7420656e6f7567682076657374656420746f6b656e7300000060648201526084016106e3565b60048401546118eb9086906001600160801b0316612f0a565b6004850180546fffffffffffffffffffffffffffffffff19166001600160801b0392831617905560375461192191871690612e4b565b603755835460355461194f916001600160a01b0391821691610100909104166001600160801b03881661226f565b83546040516001600160801b03871681526101009091046001600160a01b03169087907fc8fa66dff4b9073528c3f1bf21a8dc9a18fdf09847e88e96188bc953aef519f09060200160405180910390a3505050505050565b600160008051602061300683398151915255565b336119c4610c1b565b6001600160a01b0316146108195760405163118cdaa760e01b81523360048201526024016106e3565b7f9016d09d72d40fdae2fd8ceac6b6234c7706214fd39c1cd1e609a0528c19930080546001600160a01b031981166001600160a01b03848116918217845560405192169182907f8be0079c531659141344cd1fd0a4f28419497f9722a3daafe3b4186f6b6457e090600090a3505050565b6040516bffffffffffffffffffffffff19606084901b1660208201526034810182905260009060540160405160208183030381529060405280519060200120905092915050565b6000610c12836001600160a01b038416612441565b611ac261165c565b600080516020612fe6833981519152805460ff191660011781557f62e78cea01bee320cd4e420270b5ea74000d11b0c9f74754ebdbfc544b05a2583361148b565b6001600160a01b03811660009081526001830160205260408120541515610c12565b816001600160801b0316611b37610c49565b1015611bbe5760405162461bcd60e51b815260206004820152604a60248201527f546f6b656e56657374696e673a2063616e6e6f7420637265617465207665737460448201527f696e67207363686564756c652062656361757365206e6f742073756666696369606482015269656e7420746f6b656e7360b01b608482015260a4016106e3565b6000856001600160801b031611611c225760405162461bcd60e51b815260206004820152602260248201527f546f6b656e56657374696e673a206475726174696f6e206d757374206265203e604482015261020360f41b60648201526084016106e3565b6000826001600160801b031611611c7b5760405162461bcd60e51b815260206004820181905260248201527f546f6b656e56657374696e673a20616d6f756e74206d757374206265203e203060448201526064016106e3565b6000846001600160801b031611611ce95760405162461bcd60e51b815260206004820152602c60248201527f546f6b656e56657374696e673a20736c696365506572696f645365636f6e647360448201526b0206d757374206265203e20360a41b60648201526084016106e3565b856001600160801b0316856001600160801b03161015611d5b5760405162461bcd60e51b815260206004820152602760248201527f546f6b656e56657374696e673a206475726174696f6e206d757374206265203e6044820152661e9031b634b33360c91b60648201526084016106e3565b6001600160a01b038816600090815260396020526040812054611d7f908a90611a5e565b90506000611d8d888a612f0a565b90506040518061016001604052806001151581526020018b6001600160a01b03168152602001826001600160801b031681526020018a6001600160801b03168152602001886001600160801b03168152602001876001600160801b031681526020018615158152602001856001600160801b0316815260200160006001600160801b031681526020016000151581526020018460ff168152506038600084815260200190815260200160002060008201518160000160006101000a81548160ff02191690831515021790555060208201518160000160016101000a8154816001600160a01b0302191690836001600160a01b0316021790555060408201518160010160006101000a8154816001600160801b0302191690836001600160801b0316021790555060608201518160010160106101000a8154816001600160801b0302191690836001600160801b0316021790555060808201518160020160006101000a8154816001600160801b0302191690836001600160801b0316021790555060a08201518160020160106101000a8154816001600160801b0302191690836001600160801b0316021790555060c08201518160030160006101000a81548160ff02191690831515021790555060e08201518160030160016101000a8154816001600160801b0302191690836001600160801b031602179055506101008201518160040160006101000a8154816001600160801b0302191690836001600160801b031602179055506101208201518160040160106101000a81548160ff0219169083151502179055506101408201518160040160116101000a81548160ff021916908360ff160217905550905050836001600160801b03166037546120129190612f2a565b6037556036805490600061202583612eb8565b90915550506001600160a01b038a166000908152603960205260408120805460019290612053908490612f2a565b9091555050604080516001600160801b0383811682528b811660208301528981168284015288811660608301528616608082015286151560a082015260ff851660c082015290516001600160a01b038c16917f0d7e62b8eae1491e5336ee3a9e9c99eba55a1759a78aa6853afb7ac8a404b29e919081900360e00190a250505050505050505050565b604081015160009042906001600160801b03168110806120fe57508261012001515b1561210c5750600092915050565b826080015183606001516121209190612f0a565b6001600160801b0316811061214b578261010001518360e001516121449190612eea565b9392505050565b600083606001516001600160801b0316826121669190612e4b565b60a08501519091506001600160801b031660006121838284612f3d565b905060006121918383612f5f565b9050600087608001516001600160801b0316828960e001516001600160801b03166121bc9190612f5f565b6121c69190612f3d565b9050876101000151816121d99190612eea565b98975050505050505050565b6121ed612490565b600080546001600160a01b0319163390811790915561220b906124d9565b6122136124ea565b61221b6124fa565b60405143815233907f25ff68dd81b34665b5ba7e553ee5511bf6812e12adb4a7e2c0d9e26b3099ce799060200160405180910390a2565b61225a612490565b610819612502565b606060006121448361250a565b604080516001600160a01b038416602482015260448082018490528251808303909101815260649091019091526020810180516001600160e01b031663a9059cbb60e01b179052610c01908490612566565b600081815260018301602052604081205480156123aa5760006122e5600183612e4b565b85549091506000906122f990600190612e4b565b905080821461235e57600086600001828154811061231957612319612ea2565b906000526020600020015490508087600001848154811061233c5761233c612ea2565b6000918252602080832090910192909255918252600188019052604090208390555b855486908061236f5761236f612f76565b600190038181906000526020600020016000905590558560010160008681526020019081526020016000206000905560019350505050610c15565b6000915050610c15565b5092915050565b600080516020612fe68339815191525460ff1661081957604051638dfc202b60e01b815260040160405180910390fd5b6123f4826125c9565b6040516001600160a01b038316907fbc7cd75a20ee27fd9adebab32041f755214dbc6bffa90cc0225b39da2e5c2d3b90600090a280511561243957610c01828261262e565b6108366126a4565b600081815260018301602052604081205461248857508154600181810184556000848152602080822090930184905584548482528286019093526040902091909155610c15565b506000610c15565b7ff0c57e16840df040f15088dc2f81fe391c3923bec73e23a9662efc9c229c6a0054600160401b900460ff1661081957604051631afcd79f60e31b815260040160405180910390fd5b6124e1612490565b611227816126c3565b6124f2612490565b6108196126cb565b610819612490565b6119a7612490565b60608160000180548060200260200160405190810160405280929190818152602001828054801561255a57602002820191906000526020600020905b815481526020019060010190808311612546575b50505050509050919050565b600061257b6001600160a01b038416836126ec565b905080516000141580156125a057508080602001905181019061259e9190612f8c565b155b15610c0157604051635274afe760e01b81526001600160a01b03841660048201526024016106e3565b806001600160a01b03163b6000036125ff57604051634c9c8ce360e01b81526001600160a01b03821660048201526024016106e3565b600080516020612fc683398151915280546001600160a01b0319166001600160a01b0392909216919091179055565b6060600080846001600160a01b03168460405161264b9190612fa9565b600060405180830381855af49150503d8060008114612686576040519150601f19603f3d011682016040523d82523d6000602084013e61268b565b606091505b509150915061269b8583836126fa565b95945050505050565b34156108195760405163b398979f60e01b815260040160405180910390fd5b6111f4612490565b6126d3612490565b600080516020612fe6833981519152805460ff19169055565b6060610c128383600061274f565b60608261270f5761270a826127ec565b612144565b815115801561272657506001600160a01b0384163b155b156123b457604051639996b31560e01b81526001600160a01b03851660048201526024016106e3565b6060814710156127745760405163cd78605960e01b81523060048201526024016106e3565b600080856001600160a01b031684866040516127909190612fa9565b60006040518083038185875af1925050503d80600081146127cd576040519150601f19603f3d011682016040523d82523d6000602084013e6127d2565b606091505b50915091506127e28683836126fa565b9695505050505050565b8051156127fc5780518082602001fd5b604051630a12f52160e11b815260040160405180910390fd5b6040805161016081018252600080825260208201819052918101829052606081018290526080810182905260a0810182905260c0810182905260e081018290526101008101829052610120810182905261014081019190915290565b80356001600160a01b038116811461288857600080fd5b919050565b60006020828403121561289f57600080fd5b610c1282612871565b634e487b7160e01b600052604160045260246000fd5b604051610120810167ffffffffffffffff811182821017156128e2576128e26128a8565b60405290565b604051601f8201601f1916810167ffffffffffffffff81118282101715612911576129116128a8565b604052919050565b6000806040838503121561292c57600080fd5b61293583612871565b915060208084013567ffffffffffffffff8082111561295357600080fd5b818601915086601f83011261296757600080fd5b813581811115612979576129796128a8565b61298b601f8201601f191685016128e8565b915080825287848285010111156129a157600080fd5b80848401858401376000848284010152508093505050509250929050565b6000602082840312156129d157600080fd5b5035919050565b80356001600160801b038116811461288857600080fd5b60008060408385031215612a0257600080fd5b82359150612a12602084016129d8565b90509250929050565b81511515815261016081016020830151612a4060208401826001600160a01b03169052565b506040830151612a5b60408401826001600160801b03169052565b506060830151612a7660608401826001600160801b03169052565b506080830151612a9160808401826001600160801b03169052565b5060a0830151612aac60a08401826001600160801b03169052565b5060c0830151612ac060c084018215159052565b5060e0830151612adb60e08401826001600160801b03169052565b50610100838101516001600160801b031690830152610120808401511515908301526101409283015160ff16929091019190915290565b801515811461122757600080fd5b803561288881612b12565b803560ff8116811461288857600080fd5b60006020808385031215612b4f57600080fd5b823567ffffffffffffffff80821115612b6757600080fd5b818501915085601f830112612b7b57600080fd5b813581811115612b8d57612b8d6128a8565b612b9b848260051b016128e8565b8181528481019250610120918202840185019188831115612bbb57600080fd5b938501935b82851015612c815780858a031215612bd85760008081fd5b612be06128be565b612be986612871565b8152612bf68787016129d8565b878201526040612c078188016129d8565b908201526060612c188782016129d8565b908201526080612c298782016129d8565b9082015260a0612c3a878201612b20565b9082015260c0612c4b8782016129d8565b9082015260e0612c5c878201612b2b565b90820152610100612c6e878201612b2b565b9082015284529384019392850192612bc0565b50979650505050505050565b60008060408385031215612ca057600080fd5b612ca983612871565b946020939093013593505050565b60008060008060008060008060006101208a8c031215612cd657600080fd5b612cdf8a612871565b9850612ced60208b016129d8565b9750612cfb60408b016129d8565b9650612d0960608b016129d8565b9550612d1760808b016129d8565b945060a08a0135612d2781612b12565b9350612d3560c08b016129d8565b9250612d4360e08b01612b2b565b91506101008a013590509295985092959850929598565b60005b83811015612d75578181015183820152602001612d5d565b50506000910152565b6020815260008251806020840152612d9d816040850160208701612d5a565b601f01601f19169190910160400192915050565b6020808252825182820181905260009190848201906040850190845b81811015612df25783516001600160a01b031683529284019291840191600101612dcd565b50909695505050505050565b6020808252601a908201527f4261736555706772616461626c653a206f6e6c792061646d696e000000000000604082015260600190565b634e487b7160e01b600052601160045260246000fd5b81810381811115610c1557610c15612e35565b60208082526024908201527f546f6b656e56657374696e673a206f6e6c7920616c6c6f7765642061646472656040820152637373657360e01b606082015260800190565b634e487b7160e01b600052603260045260246000fd5b600060018201612eca57612eca612e35565b5060010190565b600060208284031215612ee357600080fd5b5051919050565b6001600160801b038281168282160390808211156123b4576123b4612e35565b6001600160801b038181168382160190808211156123b4576123b4612e35565b80820180821115610c1557610c15612e35565b600082612f5a57634e487b7160e01b600052601260045260246000fd5b500490565b8082028115828204841417610c1557610c15612e35565b634e487b7160e01b600052603160045260246000fd5b600060208284031215612f9e57600080fd5b815161214481612b12565b60008251612fbb818460208701612d5a565b919091019291505056fe360894a13ba1a3210667c828492db98dca3e2076cc3735a920a3ca505d382bbccd5ed15c6e187e77e9aee88184c21f4f2182ab5827cb3b7e07fbedcd63f033009b779b17422d0df92223018b32b4d1fa46e071723d6817e2486d003becc55f00a26469706673582212207c1e93330c3719c781bfbbd443eee85a37571777040205c066aaab2285509efc64736f6c63430008140033",
  "linkReferences": {},
  "deployedLinkReferences": {}
}